{
  "abi": [
    {
      "inputs": [
        {
          "internalType": "address",
          "name": "gbarToken",
          "type": "address"
        }
      ],
      "stateMutability": "nonpayable",
      "type": "constructor"
    },
    {
      "anonymous": false,
      "inputs": [
        {
          "indexed": true,
          "internalType": "address",
          "name": "previousOwner",
          "type": "address"
        },
        {
          "indexed": true,
          "internalType": "address",
          "name": "newOwner",
          "type": "address"
        }
      ],
      "name": "OwnershipTransferred",
      "type": "event"
    },
    {
      "anonymous": false,
      "inputs": [
        {
          "indexed": false,
          "internalType": "address",
          "name": "token",
          "type": "address"
        },
        {
          "indexed": false,
          "internalType": "uint256",
          "name": "amount",
          "type": "uint256"
        }
      ],
      "name": "Recovered",
      "type": "event"
    },
    {
      "anonymous": false,
      "inputs": [
        {
          "indexed": false,
          "internalType": "uint256",
          "name": "reward",
          "type": "uint256"
        }
      ],
      "name": "RewardAdded",
      "type": "event"
    },
    {
      "anonymous": false,
      "inputs": [
        {
          "indexed": true,
          "internalType": "address",
          "name": "user",
          "type": "address"
        },
        {
          "indexed": false,
          "internalType": "uint256",
          "name": "reward",
          "type": "uint256"
        }
      ],
      "name": "RewardPaid",
      "type": "event"
    },
    {
      "anonymous": false,
      "inputs": [
        {
          "indexed": true,
          "internalType": "address",
          "name": "user",
          "type": "address"
        },
        {
          "indexed": false,
          "internalType": "uint256",
          "name": "amount",
          "type": "uint256"
        }
      ],
      "name": "Staked",
      "type": "event"
    },
    {
      "anonymous": false,
      "inputs": [
        {
          "indexed": true,
          "internalType": "address",
          "name": "buyer",
          "type": "address"
        },
        {
          "indexed": false,
          "internalType": "uint256",
          "name": "amount",
          "type": "uint256"
        }
      ],
      "name": "StakedForBuyer",
      "type": "event"
    },
    {
      "anonymous": false,
      "inputs": [
        {
          "indexed": true,
          "internalType": "address",
          "name": "user",
          "type": "address"
        },
        {
          "indexed": false,
          "internalType": "uint256",
          "name": "amount",
          "type": "uint256"
        }
      ],
      "name": "UnStaked",
      "type": "event"
    },
    {
      "inputs": [],
      "name": "DISTRIBUTION_PERIOD",
      "outputs": [
        {
          "internalType": "uint256",
          "name": "",
          "type": "uint256"
        }
      ],
      "stateMutability": "view",
      "type": "function"
    },
    {
      "inputs": [],
      "name": "FEE_DISTRIBUTOR",
      "outputs": [
        {
          "internalType": "address",
          "name": "",
          "type": "address"
        }
      ],
      "stateMutability": "view",
      "type": "function"
    },
    {
      "inputs": [],
      "name": "GBAR",
      "outputs": [
        {
          "internalType": "address",
          "name": "",
          "type": "address"
        }
      ],
      "stateMutability": "view",
      "type": "function"
    },
    {
      "inputs": [],
      "name": "IGbarToken",
      "outputs": [
        {
          "internalType": "contract IGBAR",
          "name": "",
          "type": "address"
        }
      ],
      "stateMutability": "view",
      "type": "function"
    },
    {
      "inputs": [],
      "name": "ONE",
      "outputs": [
        {
          "internalType": "uint256",
          "name": "",
          "type": "uint256"
        }
      ],
      "stateMutability": "view",
      "type": "function"
    },
    {
      "inputs": [
        {
          "internalType": "address",
          "name": "",
          "type": "address"
        }
      ],
      "name": "Rewards",
      "outputs": [
        {
          "internalType": "uint256",
          "name": "",
          "type": "uint256"
        }
      ],
      "stateMutability": "view",
      "type": "function"
    },
    {
      "inputs": [
        {
          "internalType": "address",
          "name": "",
          "type": "address"
        }
      ],
      "name": "Stakers",
      "outputs": [
        {
          "internalType": "uint256",
          "name": "totalStaked",
          "type": "uint256"
        },
        {
          "internalType": "uint256",
          "name": "rewardCallableDate",
          "type": "uint256"
        }
      ],
      "stateMutability": "view",
      "type": "function"
    },
    {
      "inputs": [],
      "name": "TOKEN_DECIMAL",
      "outputs": [
        {
          "internalType": "uint256",
          "name": "",
          "type": "uint256"
        }
      ],
      "stateMutability": "view",
      "type": "function"
    },
    {
      "inputs": [],
      "name": "TOTAL_PERCENTAGE",
      "outputs": [
        {
          "internalType": "uint256",
          "name": "",
          "type": "uint256"
        }
      ],
      "stateMutability": "view",
      "type": "function"
    },
    {
      "inputs": [
        {
          "internalType": "address",
          "name": "",
          "type": "address"
        }
      ],
      "name": "UserRewardPerTokenPaid",
      "outputs": [
        {
          "internalType": "uint256",
          "name": "",
          "type": "uint256"
        }
      ],
      "stateMutability": "view",
      "type": "function"
    },
    {
      "inputs": [
        {
          "internalType": "address",
          "name": "account",
          "type": "address"
        }
      ],
      "name": "balanceOf",
      "outputs": [
        {
          "internalType": "uint256",
          "name": "",
          "type": "uint256"
        }
      ],
      "stateMutability": "view",
      "type": "function"
    },
    {
      "inputs": [],
      "name": "claimRewards",
      "outputs": [],
      "stateMutability": "nonpayable",
      "type": "function"
    },
    {
      "inputs": [
        {
          "internalType": "address",
          "name": "owner",
          "type": "address"
        },
        {
          "internalType": "uint256",
          "name": "amount",
          "type": "uint256"
        }
      ],
      "name": "directStake",
      "outputs": [
        {
          "internalType": "bool",
          "name": "success",
          "type": "bool"
        }
      ],
      "stateMutability": "nonpayable",
      "type": "function"
    },
    {
      "inputs": [
        {
          "internalType": "address",
          "name": "account",
          "type": "address"
        }
      ],
      "name": "earned",
      "outputs": [
        {
          "internalType": "uint256",
          "name": "",
          "type": "uint256"
        }
      ],
      "stateMutability": "view",
      "type": "function"
    },
    {
      "inputs": [],
      "name": "getEntryIndexer",
      "outputs": [
        {
          "internalType": "uint256[]",
          "name": "",
          "type": "uint256[]"
        }
      ],
      "stateMutability": "view",
      "type": "function"
    },
    {
      "inputs": [
        {
          "internalType": "address",
          "name": "goldOwner",
          "type": "address"
        }
      ],
      "name": "getEntryIndexerForAddress",
      "outputs": [
        {
          "internalType": "uint256[]",
          "name": "",
          "type": "uint256[]"
        }
      ],
      "stateMutability": "view",
      "type": "function"
    },
    {
      "inputs": [],
      "name": "getRewardForDuration",
      "outputs": [
        {
          "internalType": "uint256",
          "name": "",
          "type": "uint256"
        }
      ],
      "stateMutability": "view",
      "type": "function"
    },
    {
      "inputs": [
        {
          "internalType": "uint256",
          "name": "entryId",
          "type": "uint256"
        }
      ],
      "name": "getStakeEntry",
      "outputs": [
        {
          "components": [
            {
              "internalType": "uint256",
              "name": "amount",
              "type": "uint256"
            },
            {
              "internalType": "uint256",
              "name": "startDate",
              "type": "uint256"
            },
            {
              "internalType": "uint256",
              "name": "endDate",
              "type": "uint256"
            }
          ],
          "internalType": "struct Entry",
          "name": "",
          "type": "tuple"
        }
      ],
      "stateMutability": "view",
      "type": "function"
    },
    {
      "inputs": [
        {
          "internalType": "address",
          "name": "goldOwner",
          "type": "address"
        },
        {
          "internalType": "uint256",
          "name": "entryId",
          "type": "uint256"
        }
      ],
      "name": "getStakeEntryForAddress",
      "outputs": [
        {
          "components": [
            {
              "internalType": "uint256",
              "name": "amount",
              "type": "uint256"
            },
            {
              "internalType": "uint256",
              "name": "startDate",
              "type": "uint256"
            },
            {
              "internalType": "uint256",
              "name": "endDate",
              "type": "uint256"
            }
          ],
          "internalType": "struct Entry",
          "name": "",
          "type": "tuple"
        }
      ],
      "stateMutability": "view",
      "type": "function"
    },
    {
      "inputs": [],
      "name": "lastTimeRewardApplicable",
      "outputs": [
        {
          "internalType": "uint256",
          "name": "",
          "type": "uint256"
        }
      ],
      "stateMutability": "view",
      "type": "function"
    },
    {
      "inputs": [],
      "name": "lastUpdateTime",
      "outputs": [
        {
          "internalType": "uint256",
          "name": "",
          "type": "uint256"
        }
      ],
      "stateMutability": "view",
      "type": "function"
    },
    {
      "inputs": [
        {
          "internalType": "uint256",
          "name": "reward",
          "type": "uint256"
        }
      ],
      "name": "notifyRewardAmount",
      "outputs": [],
      "stateMutability": "nonpayable",
      "type": "function"
    },
    {
      "inputs": [],
      "name": "owner",
      "outputs": [
        {
          "internalType": "address",
          "name": "",
          "type": "address"
        }
      ],
      "stateMutability": "view",
      "type": "function"
    },
    {
      "inputs": [],
      "name": "periodFinish",
      "outputs": [
        {
          "internalType": "uint256",
          "name": "",
          "type": "uint256"
        }
      ],
      "stateMutability": "view",
      "type": "function"
    },
    {
      "inputs": [
        {
          "internalType": "address",
          "name": "tokenAddress",
          "type": "address"
        },
        {
          "internalType": "uint256",
          "name": "tokenAmount",
          "type": "uint256"
        }
      ],
      "name": "recoverERC20",
      "outputs": [],
      "stateMutability": "nonpayable",
      "type": "function"
    },
    {
      "inputs": [],
      "name": "renounceOwnership",
      "outputs": [],
      "stateMutability": "nonpayable",
      "type": "function"
    },
    {
      "inputs": [],
      "name": "rewardPerToken",
      "outputs": [
        {
          "internalType": "uint256",
          "name": "",
          "type": "uint256"
        }
      ],
      "stateMutability": "view",
      "type": "function"
    },
    {
      "inputs": [],
      "name": "rewardPerTokenStored",
      "outputs": [
        {
          "internalType": "uint256",
          "name": "",
          "type": "uint256"
        }
      ],
      "stateMutability": "view",
      "type": "function"
    },
    {
      "inputs": [],
      "name": "rewardRate",
      "outputs": [
        {
          "internalType": "uint256",
          "name": "",
          "type": "uint256"
        }
      ],
      "stateMutability": "view",
      "type": "function"
    },
    {
      "inputs": [
        {
          "internalType": "address",
          "name": "feeDistributor",
          "type": "address"
        }
      ],
      "name": "setFeeDistributor",
      "outputs": [],
      "stateMutability": "nonpayable",
      "type": "function"
    },
    {
      "inputs": [
        {
          "internalType": "uint256",
          "name": "cap",
          "type": "uint256"
        }
      ],
      "name": "setStakeCap",
      "outputs": [
        {
          "internalType": "bool",
          "name": "",
          "type": "bool"
        }
      ],
      "stateMutability": "nonpayable",
      "type": "function"
    },
    {
      "inputs": [
        {
          "internalType": "uint256",
          "name": "amount",
          "type": "uint256"
        }
      ],
      "name": "stake",
      "outputs": [],
      "stateMutability": "nonpayable",
      "type": "function"
    },
    {
      "inputs": [],
      "name": "stakeCap",
      "outputs": [
        {
          "internalType": "uint256",
          "name": "",
          "type": "uint256"
        }
      ],
      "stateMutability": "view",
      "type": "function"
    },
    {
      "inputs": [],
      "name": "stakeVaultLocked",
      "outputs": [
        {
          "internalType": "bool",
          "name": "",
          "type": "bool"
        }
      ],
      "stateMutability": "view",
      "type": "function"
    },
    {
      "inputs": [],
      "name": "toggleStakeVaultLock",
      "outputs": [
        {
          "internalType": "bool",
          "name": "",
          "type": "bool"
        }
      ],
      "stateMutability": "nonpayable",
      "type": "function"
    },
    {
      "inputs": [],
      "name": "totalStakers",
      "outputs": [
        {
          "internalType": "uint256",
          "name": "",
          "type": "uint256"
        }
      ],
      "stateMutability": "view",
      "type": "function"
    },
    {
      "inputs": [],
      "name": "totalSupply",
      "outputs": [
        {
          "internalType": "uint256",
          "name": "",
          "type": "uint256"
        }
      ],
      "stateMutability": "view",
      "type": "function"
    },
    {
      "inputs": [
        {
          "internalType": "address",
          "name": "newOwner",
          "type": "address"
        }
      ],
      "name": "transferOwnership",
      "outputs": [],
      "stateMutability": "nonpayable",
      "type": "function"
    },
    {
      "inputs": [
        {
          "internalType": "uint256",
          "name": "entryId",
          "type": "uint256"
        }
      ],
      "name": "unStake",
      "outputs": [],
      "stateMutability": "nonpayable",
      "type": "function"
    }
  ],
  "bytecode": {
    "object": "0x6080604052600060058190556006556010805460ff191660011790553480156200002857600080fd5b5060405162002103380380620021038339810160408190526200004b91620000da565b62000056336200008a565b60018055600480546001600160a01b039092166001600160a01b03199283168117909155600280549092161790556200010c565b600080546001600160a01b038381166001600160a01b0319831681178455604051919092169283917f8be0079c531659141344cd1fd0a4f28419497f9722a3daafe3b4186f6b6457e09190a35050565b600060208284031215620000ed57600080fd5b81516001600160a01b03811681146200010557600080fd5b9392505050565b611fe7806200011c6000396000f3fe608060405234801561001057600080fd5b506004361061023c5760003560e01c80637b0a47ee1161013b578063c2ee3a08116100b8578063df136d651161007c578063df136d65146104b0578063ebe2b12b146104b9578063ede85eb7146104c2578063f06753d9146104fe578063f2fde38b1461051157600080fd5b8063c2ee3a0814610471578063c8f33c9114610479578063ccfc2e8d14610482578063cd3daf9d14610495578063d522e0bf1461049d57600080fd5b8063936c63d9116100ff578063936c63d91461043b578063a694fc3a14610443578063add8c90a14610456578063b092deb11461045e578063ba28fd2e1461046857600080fd5b80637b0a47ee146103fe57806380faa57d14610407578063869890381461040f5780638980f11f146104175780638da5cb5b1461042a57600080fd5b8063372500ab116101c95780635d3eea911161018d5780635d3eea91146103945780636910dcce146103a757806370805435146103ba57806370a08231146103cd578063715018a6146103f657600080fd5b8063372500ab1461033957806338f90844146103435780633c6b16ab1461034e578063498a1ac214610361578063558faaa21461037457600080fd5b8063193cf2bf11610210578063193cf2bf146102915780631c1f78eb146102c6578063237634c8146102ce5780632686c33c146102ee57806327f5d5581461031957600080fd5b80628cc262146102415780630cb6b577146102675780630e9d3f3c1461027157806318160ddd14610289575b600080fd5b61025461024f366004611d07565b610524565b6040519081526020015b60405180910390f35b610254620f424081565b6102796105b3565b604051901515815260200161025e565b600e54610254565b6102a461029f366004611d29565b610621565b604080518251815260208084015190820152918101519082015260600161025e565b6102546106c9565b6102546102dc366004611d07565b600b6020526000908152604090205481565b600254610301906001600160a01b031681565b6040516001600160a01b03909116815260200161025e565b610254610327366004611d07565b600a6020526000908152604090205481565b6103416106e1565b005b60105460ff16610279565b61034161035c366004611d29565b610730565b6102a461036f366004611d42565b610955565b610387610382366004611d07565b610a11565b60405161025e9190611d6c565b6103416103a2366004611d29565b610a80565b600354610301906001600160a01b031681565b6102796103c8366004611d29565b610d94565b6102546103db366004611d07565b6001600160a01b03166000908152600f602052604090205490565b610341610ded565b61025460065481565b610254610e01565b600d54610254565b610341610425366004611d42565b610e18565b6000546001600160a01b0316610301565b610254610f61565b610341610451366004611d29565b610f72565b6103876113a4565b61025462278d0081565b61025460095481565b610254611408565b61025460075481565b610341610490366004611d07565b611416565b6102546114a9565b6102796104ab366004611d42565b611510565b61025460085481565b61025460055481565b6104e96104d0366004611d07565b600c602052600090815260409020805460039091015482565b6040805192835260208301919091520161025e565b600454610301906001600160a01b031681565b61034161051f366004611d07565b611a4b565b6001600160a01b0381166000908152600b602052604081205461054b620f42406001611dc6565b6001600160a01b0384166000908152600a602052604090205461056c6114a9565b6105769190611de5565b6001600160a01b0385166000908152600f60205260409020546105999190611dc6565b6105a39190611df8565b6105ad9190611e1a565b92915050565b6003546000906001600160a01b0316336001600160a01b031614806105e257506000546001600160a01b031633145b6106075760405162461bcd60e51b81526004016105fe90611e2d565b60405180910390fd5b506010805460ff19811660ff918216159081179092551690565b61064560405180606001604052806000815260200160008152602001600081525090565b336000908152600c602090815260408083208584526002019091529020600101544210156106855760405162461bcd60e51b81526004016105fe90611e8a565b50336000908152600c602090815260408083209383526002938401825291829020825160608101845281548152600182015492810192909252909201549082015290565b600062278d006006546106dc9190611dc6565b905090565b6002600154036107035760405162461bcd60e51b81526004016105fe90611ec1565b6002600155336000908152600c602052604090206003015442101561072a5761072a611ac4565b60018055565b6003546001600160a01b0316336001600160a01b0316148061075c57506000546001600160a01b031633145b6107785760405162461bcd60e51b81526004016105fe90611e2d565b60006107826114a9565b60085561078d610e01565b6007556001600160a01b038116156107d4576107a881610524565b6001600160a01b0382166000908152600b6020908152604080832093909355600854600a909152919020555b60055442106107f2576107ea62278d0083611df8565b600655610834565b6000426005546108029190611de5565b90506000600654826108149190611dc6565b905062278d006108248286611e1a565b61082e9190611df8565b60065550505b600480546040516370a0823160e01b815230928101929092526000916001600160a01b03909116906370a0823190602401602060405180830381865afa158015610882573d6000803e3d6000fd5b505050506040513d601f19601f820116820180604052508101906108a69190611ef8565b90506108b562278d0082611df8565b60065411156109065760405162461bcd60e51b815260206004820152601860248201527f50726f76696465642072657761726420746f6f2068696768000000000000000060448201526064016105fe565b42600781905561091a9062278d0090611e1a565b6005556040518381527fde88a922e0d3b88b24e9623efeb464919c6bf9f66857a65e2bfcf2ce87a9433d9060200160405180910390a1505050565b61097960405180606001604052806000815260200160008152602001600081525090565b6001600160a01b0383166000908152600c602090815260408083208584526002019091529020600101544210156109c25760405162461bcd60e51b81526004016105fe90611e8a565b506001600160a01b03919091166000908152600c602090815260408083209383526002938401825291829020825160608101845281548152600182015492810192909252909201549082015290565b6001600160a01b0381166000908152600c6020908152604091829020600101805483518184028101840190945280845260609392830182828015610a7457602002820191906000526020600020905b815481526020019060010190808311610a60575b50505050509050919050565b600260015403610aa25760405162461bcd60e51b81526004016105fe90611ec1565b600260015533610ab06114a9565b600855610abb610e01565b6007556001600160a01b03811615610b0257610ad681610524565b6001600160a01b0382166000908152600b6020908152604080832093909355600854600a909152919020555b610b0c3383611bfd565b336000908152600c60209081526040808320858452600201909152902054610b6b5760405162461bcd60e51b81526020600482015260126024820152714572726f723a20456d70747920656e74727960701b60448201526064016105fe565b336000818152600c60208181526040808420878552600281018352908420549490935252541015610bee5760405162461bcd60e51b815260206004820152602760248201527f4572726f723a2043616e6e6f74207769746864726177206d6f7265207468616e604482015266081cdd185ad95960ca1b60648201526084016105fe565b336000908152600c602090815260408083208584526002019091528120805490829055600e805491928392610c24908490611de5565b9091555050336000908152600f602052604081208054839290610c48908490611de5565b9091555050336000908152600c602052604081208054839290610c6c908490611de5565b9091555050336000908152600f6020526040902054158015610c9b5750336000908152600c6020526040902054155b15610cb457600d60008154610caf90611f11565b909155505b6004546001600160a01b031663a9059cbb336040516001600160e01b031960e084901b1681526001600160a01b039091166004820152602481018490526044016020604051808303816000875af1158015610d13573d6000803e3d6000fd5b505050506040513d601f19601f82011682018060405250810190610d379190611f28565b50336000908152600b602052604090205415610d5557610d55611ac4565b60405181815233907f79d3df6837cc49ff0e09fd3258e6e45594e0703445bb06825e9d75156eaee8f0906020015b60405180910390a250506001805550565b6003546000906001600160a01b0316336001600160a01b03161480610dc357506000546001600160a01b031633145b610ddf5760405162461bcd60e51b81526004016105fe90611e2d565b50600981905560015b919050565b610df5611c46565b610dff6000611ca0565b565b60006005544210610e13575060055490565b504290565b610e20611c46565b6004546001600160a01b0390811690831603610e885760405162461bcd60e51b815260206004820152602160248201527f43616e6e6f7420776974686472617720746865207374616b696e6720746f6b656044820152603760f91b60648201526084016105fe565b816001600160a01b031663a9059cbb610ea96000546001600160a01b031690565b6040516001600160e01b031960e084901b1681526001600160a01b039091166004820152602481018490526044016020604051808303816000875af1158015610ef6573d6000803e3d6000fd5b505050506040513d601f19601f82011682018060405250810190610f1a9190611f28565b50604080516001600160a01b0384168152602081018390527f8c1256b8896378cd5044f80c202f9772b9d77dc85c8a6eb51967210b09bfaa28910160405180910390a15050565b610f6f620f42406064611dc6565b81565b600260015403610f945760405162461bcd60e51b81526004016105fe90611ec1565b600260015533610fa26114a9565b600855610fad610e01565b6007556001600160a01b03811615610ff457610fc881610524565b6001600160a01b0382166000908152600b6020908152604080832093909355600854600a909152919020555b60105460ff16156110475760405162461bcd60e51b815260206004820152601c60248201527f4572726f723a205374616b65207661756c74206973206c6f636b65640000000060448201526064016105fe565b600082116110935760405162461bcd60e51b815260206004820152601960248201527804572726f723a20416d6f756e74206d757374206265203e203603c1b60448201526064016105fe565b60095482600e546110a49190611e1a565b11156110f25760405162461bcd60e51b815260206004820152601b60248201527f4572726f723a205374616b65204361702069732072656163686564000000000060448201526064016105fe565b60045482906001600160a01b031663dd62ed3e336040516001600160e01b031960e084901b1681526001600160a01b039091166004820152306024820152604401602060405180830381865afa158015611150573d6000803e3d6000fd5b505050506040513d601f19601f820116820180604052508101906111749190611ef8565b10156111925760405162461bcd60e51b81526004016105fe90611f4a565b336000908152600f60205260409020541580156111bc5750336000908152600c6020526040902054155b156111d557600d600081546111d090611f98565b909155505b336000908152600c602052604081206001908101546111f391611e1a565b336000908152600c6020526040812080549293508592909190611217908490611e1a565b9091555050336000908152600c602090815260408083206001808201805491820181558552838520018590558484526002019091528120805485929061125e908490611e1a565b9091555050336000908152600c6020908152604080832084845260020190915290204260019091018190556112979062278d0090611e1a565b336000908152600c6020526040812060030191909155600e80548592906112bf908490611e1a565b9091555050336000908152600f6020526040812080548592906112e3908490611e1a565b90915550506004546001600160a01b03166323b872dd336040516001600160e01b031960e084901b1681526001600160a01b039091166004820152306024820152604481018690526064016020604051808303816000875af115801561134d573d6000803e3d6000fd5b505050506040513d601f19601f820116820180604052508101906113719190611f28565b5060405183815233907f9e71bc8eea02a63969f509818f2dafb9254532904319f9dbda79b67bd34a5f3d90602001610d83565b336000908152600c60209081526040918290206001018054835181840281018401909452808452606093928301828280156113fe57602002820191906000526020600020905b8154815260200190600101908083116113ea575b5050505050905090565b610f6f620f42406001611dc6565b61141e611c46565b6001600160a01b0381166114875760405162461bcd60e51b815260206004820152602a60248201527f4572726f723a20466565204469737472696275746f722063616e6e6f742062656044820152692030206164647265737360b01b60648201526084016105fe565b600380546001600160a01b0319166001600160a01b0392909216919091179055565b6000600e546000036114bc575060085490565b600e546114cd620f42406001611dc6565b6006546007546114db610e01565b6114e59190611de5565b6114ef9190611dc6565b6114f99190611dc6565b6115039190611df8565b6008546106dc9190611e1a565b6002546000906001600160a01b0316336001600160a01b0316146115945760405162461bcd60e51b815260206004820152603560248201527f4572726f723a204f6e6c7920746865206762617220636f6e7472616374206361604482015274371031b0b636103a3434b990333ab731ba34b7b71760591b60648201526084016105fe565b8261159d6114a9565b6008556115a8610e01565b6007556001600160a01b038116156115ef576115c381610524565b6001600160a01b0382166000908152600b6020908152604080832093909355600854600a909152919020555b60105460ff16156116425760405162461bcd60e51b815260206004820152601c60248201527f4572726f723a205374616b65207661756c74206973206c6f636b65640000000060448201526064016105fe565b6000831161168e5760405162461bcd60e51b815260206004820152601960248201527804572726f723a20416d6f756e74206d757374206265203e203603c1b60448201526064016105fe565b60095483600e5461169f9190611e1a565b11156116ed5760405162461bcd60e51b815260206004820152601b60248201527f4572726f723a205374616b65204361702069732072656163686564000000000060448201526064016105fe565b60048054600254604051636eb1769f60e11b81526001600160a01b0391821693810193909352306024840152859291169063dd62ed3e90604401602060405180830381865afa158015611744573d6000803e3d6000fd5b505050506040513d601f19601f820116820180604052508101906117689190611ef8565b10156117865760405162461bcd60e51b81526004016105fe90611f4a565b6001600160a01b0384166000908152600f60205260409020541580156117c257506001600160a01b0384166000908152600c6020526040902054155b156117db57600d600081546117d690611f98565b909155505b6001600160a01b0384166000908152600c6020526040812060019081015461180291611e1a565b6001600160a01b0386166000908152600c602052604081208054929350869290919061182f908490611e1a565b90915550506001600160a01b0385166000908152600c602090815260408083206001808201805491820181558552838520018590558484526002019091528120805486929061187f908490611e1a565b90915550506001600160a01b0385166000908152600c6020908152604080832084845260020190915290204260019091018190556118c19062278d0090611e1a565b6001600160a01b0386166000908152600c6020526040812060030191909155600e80548692906118f2908490611e1a565b90915550506001600160a01b0385166000908152600f60205260408120805486929061191f908490611e1a565b9091555050600480546002546040516323b872dd60e01b81526001600160a01b03918216938101939093523060248401526044830187905216906323b872dd906064016020604051808303816000875af1158015611981573d6000803e3d6000fd5b505050506040513d601f19601f820116820180604052508101906119a59190611f28565b925082611a005760405162461bcd60e51b815260206004820152602360248201527f4572726f723a205472616e73666572206f6620746f6b656e20686173206661696044820152621b195960ea1b60648201526084016105fe565b846001600160a01b03167f38fa6f41c19e7a38b4d549a0880f575b2e9feb6998a4902f233cc6e7defcbe1485604051611a3b91815260200190565b60405180910390a2505092915050565b611a53611c46565b6001600160a01b038116611ab85760405162461bcd60e51b815260206004820152602660248201527f4f776e61626c653a206e6577206f776e657220697320746865207a65726f206160448201526564647265737360d01b60648201526084016105fe565b611ac181611ca0565b50565b33611acd6114a9565b600855611ad8610e01565b6007556001600160a01b03811615611b1f57611af381610524565b6001600160a01b0382166000908152600b6020908152604080832093909355600854600a909152919020555b336000908152600b60205260409020548015611bf957336000818152600b6020908152604080832083905560048054825163a9059cbb60e01b8152918201959095526024810186905290516001600160a01b039094169363a9059cbb936044808401949383900301908290875af1158015611b9e573d6000803e3d6000fd5b505050506040513d601f19601f82011682018060405250810190611bc29190611f28565b5060405181815233907fe2403640ba68fed3a2f88b7557551d1993f84b99bb10ff833f0cf8db0c5e04869060200160405180910390a25b5050565b6001600160a01b0382166000908152600c60209081526040808320848452600201909152902060010154421015611bf95760405162461bcd60e51b81526004016105fe90611e8a565b6000546001600160a01b03163314610dff5760405162461bcd60e51b815260206004820181905260248201527f4f776e61626c653a2063616c6c6572206973206e6f7420746865206f776e657260448201526064016105fe565b600080546001600160a01b038381166001600160a01b0319831681178455604051919092169283917f8be0079c531659141344cd1fd0a4f28419497f9722a3daafe3b4186f6b6457e09190a35050565b80356001600160a01b0381168114610de857600080fd5b600060208284031215611d1957600080fd5b611d2282611cf0565b9392505050565b600060208284031215611d3b57600080fd5b5035919050565b60008060408385031215611d5557600080fd5b611d5e83611cf0565b946020939093013593505050565b6020808252825182820181905260009190848201906040850190845b81811015611da457835183529284019291840191600101611d88565b50909695505050505050565b634e487b7160e01b600052601160045260246000fd5b6000816000190483118215151615611de057611de0611db0565b500290565b818103818111156105ad576105ad611db0565b600082611e1557634e487b7160e01b600052601260045260246000fd5b500490565b808201808211156105ad576105ad611db0565b6020808252603b908201527f4572726f723a204f6e6c79204665654469737472696275746f7220636f6e747260408201527f6163742063616e2063616c6c20746869732066756e6374696f6e2e0000000000606082015260800190565b6020808252601b908201527f4572726f723a20456e74727920646f6573206e6f742065786973740000000000604082015260600190565b6020808252601f908201527f5265656e7472616e637947756172643a207265656e7472616e742063616c6c00604082015260600190565b600060208284031215611f0a57600080fd5b5051919050565b600081611f2057611f20611db0565b506000190190565b600060208284031215611f3a57600080fd5b81518015158114611d2257600080fd5b6020808252602e908201527f4572726f723a205472616e73666572206f6620746f6b656e20686173206e6f7460408201526d081899595b88185c1c1c9bdd995960921b606082015260800190565b600060018201611faa57611faa611db0565b506001019056fea264697066735822122040d5a6ed619a39dcfd79993a8445f8a84c79d546ace9cac732bfe2710b673dd364736f6c63430008100033",
    "linkReferences": {}
  },
  "methodIdentifiers": {
    "DISTRIBUTION_PERIOD()": "b092deb1",
    "FEE_DISTRIBUTOR()": "6910dcce",
    "GBAR()": "2686c33c",
    "IGbarToken()": "f06753d9",
    "ONE()": "c2ee3a08",
    "Rewards(address)": "237634c8",
    "Stakers(address)": "ede85eb7",
    "TOKEN_DECIMAL()": "0cb6b577",
    "TOTAL_PERCENTAGE()": "936c63d9",
    "UserRewardPerTokenPaid(address)": "27f5d558",
    "balanceOf(address)": "70a08231",
    "claimRewards()": "372500ab",
    "directStake(address,uint256)": "d522e0bf",
    "earned(address)": "008cc262",
    "getEntryIndexer()": "add8c90a",
    "getEntryIndexerForAddress(address)": "558faaa2",
    "getRewardForDuration()": "1c1f78eb",
    "getStakeEntry(uint256)": "193cf2bf",
    "getStakeEntryForAddress(address,uint256)": "498a1ac2",
    "lastTimeRewardApplicable()": "80faa57d",
    "lastUpdateTime()": "c8f33c91",
    "notifyRewardAmount(uint256)": "3c6b16ab",
    "owner()": "8da5cb5b",
    "periodFinish()": "ebe2b12b",
    "recoverERC20(address,uint256)": "8980f11f",
    "renounceOwnership()": "715018a6",
    "rewardPerToken()": "cd3daf9d",
    "rewardPerTokenStored()": "df136d65",
    "rewardRate()": "7b0a47ee",
    "setFeeDistributor(address)": "ccfc2e8d",
    "setStakeCap(uint256)": "70805435",
    "stake(uint256)": "a694fc3a",
    "stakeCap()": "ba28fd2e",
    "stakeVaultLocked()": "38f90844",
    "toggleStakeVaultLock()": "0e9d3f3c",
    "totalStakers()": "86989038",
    "totalSupply()": "18160ddd",
    "transferOwnership(address)": "f2fde38b",
    "unStake(uint256)": "5d3eea91"
  },
  "id": 13
}