{
  "abi": [
    {
      "inputs": [
        {
          "internalType": "address",
          "name": "feeRecepient",
          "type": "address"
        }
      ],
      "stateMutability": "nonpayable",
      "type": "constructor"
    },
    {
      "anonymous": false,
      "inputs": [
        {
          "indexed": true,
          "internalType": "address",
          "name": "owner",
          "type": "address"
        },
        {
          "indexed": true,
          "internalType": "address",
          "name": "spender",
          "type": "address"
        },
        {
          "indexed": false,
          "internalType": "uint256",
          "name": "value",
          "type": "uint256"
        }
      ],
      "name": "Approval",
      "type": "event"
    },
    {
      "anonymous": false,
      "inputs": [
        {
          "indexed": true,
          "internalType": "address",
          "name": "previousOwner",
          "type": "address"
        },
        {
          "indexed": true,
          "internalType": "address",
          "name": "newOwner",
          "type": "address"
        }
      ],
      "name": "OwnershipTransferred",
      "type": "event"
    },
    {
      "anonymous": false,
      "inputs": [
        {
          "indexed": true,
          "internalType": "address",
          "name": "from",
          "type": "address"
        },
        {
          "indexed": true,
          "internalType": "address",
          "name": "to",
          "type": "address"
        },
        {
          "indexed": false,
          "internalType": "uint256",
          "name": "value",
          "type": "uint256"
        }
      ],
      "name": "Transfer",
      "type": "event"
    },
    {
      "inputs": [
        {
          "internalType": "address",
          "name": "",
          "type": "address"
        }
      ],
      "name": "FeeExclusions",
      "outputs": [
        {
          "internalType": "bool",
          "name": "",
          "type": "bool"
        }
      ],
      "stateMutability": "view",
      "type": "function"
    },
    {
      "inputs": [],
      "name": "FeeFraction",
      "outputs": [
        {
          "internalType": "uint256",
          "name": "",
          "type": "uint256"
        }
      ],
      "stateMutability": "view",
      "type": "function"
    },
    {
      "inputs": [],
      "name": "FeeRecipient",
      "outputs": [
        {
          "internalType": "address",
          "name": "",
          "type": "address"
        }
      ],
      "stateMutability": "view",
      "type": "function"
    },
    {
      "inputs": [
        {
          "internalType": "address",
          "name": "toExclude",
          "type": "address"
        }
      ],
      "name": "addFeeExclusion",
      "outputs": [],
      "stateMutability": "nonpayable",
      "type": "function"
    },
    {
      "inputs": [
        {
          "internalType": "address",
          "name": "owner",
          "type": "address"
        },
        {
          "internalType": "address",
          "name": "spender",
          "type": "address"
        }
      ],
      "name": "allowance",
      "outputs": [
        {
          "internalType": "uint256",
          "name": "",
          "type": "uint256"
        }
      ],
      "stateMutability": "view",
      "type": "function"
    },
    {
      "inputs": [
        {
          "internalType": "address",
          "name": "spender",
          "type": "address"
        },
        {
          "internalType": "uint256",
          "name": "amount",
          "type": "uint256"
        }
      ],
      "name": "approve",
      "outputs": [
        {
          "internalType": "bool",
          "name": "",
          "type": "bool"
        }
      ],
      "stateMutability": "nonpayable",
      "type": "function"
    },
    {
      "inputs": [
        {
          "internalType": "address",
          "name": "account",
          "type": "address"
        }
      ],
      "name": "balanceOf",
      "outputs": [
        {
          "internalType": "uint256",
          "name": "",
          "type": "uint256"
        }
      ],
      "stateMutability": "view",
      "type": "function"
    },
    {
      "inputs": [
        {
          "internalType": "uint256",
          "name": "amount",
          "type": "uint256"
        }
      ],
      "name": "burn",
      "outputs": [],
      "stateMutability": "nonpayable",
      "type": "function"
    },
    {
      "inputs": [],
      "name": "decimals",
      "outputs": [
        {
          "internalType": "uint8",
          "name": "",
          "type": "uint8"
        }
      ],
      "stateMutability": "view",
      "type": "function"
    },
    {
      "inputs": [
        {
          "internalType": "address",
          "name": "spender",
          "type": "address"
        },
        {
          "internalType": "uint256",
          "name": "subtractedValue",
          "type": "uint256"
        }
      ],
      "name": "decreaseAllowance",
      "outputs": [
        {
          "internalType": "bool",
          "name": "",
          "type": "bool"
        }
      ],
      "stateMutability": "nonpayable",
      "type": "function"
    },
    {
      "inputs": [
        {
          "internalType": "address",
          "name": "spender",
          "type": "address"
        },
        {
          "internalType": "uint256",
          "name": "addedValue",
          "type": "uint256"
        }
      ],
      "name": "increaseAllowance",
      "outputs": [
        {
          "internalType": "bool",
          "name": "",
          "type": "bool"
        }
      ],
      "stateMutability": "nonpayable",
      "type": "function"
    },
    {
      "inputs": [],
      "name": "name",
      "outputs": [
        {
          "internalType": "string",
          "name": "",
          "type": "string"
        }
      ],
      "stateMutability": "view",
      "type": "function"
    },
    {
      "inputs": [],
      "name": "owner",
      "outputs": [
        {
          "internalType": "address",
          "name": "",
          "type": "address"
        }
      ],
      "stateMutability": "view",
      "type": "function"
    },
    {
      "inputs": [
        {
          "internalType": "address",
          "name": "toExclude",
          "type": "address"
        }
      ],
      "name": "removeFeeExclusion",
      "outputs": [],
      "stateMutability": "nonpayable",
      "type": "function"
    },
    {
      "inputs": [],
      "name": "renounceOwnership",
      "outputs": [],
      "stateMutability": "nonpayable",
      "type": "function"
    },
    {
      "inputs": [
        {
          "internalType": "uint256",
          "name": "fraction",
          "type": "uint256"
        }
      ],
      "name": "setFeeFraction",
      "outputs": [],
      "stateMutability": "nonpayable",
      "type": "function"
    },
    {
      "inputs": [
        {
          "internalType": "address",
          "name": "feeRecipient",
          "type": "address"
        }
      ],
      "name": "setFeeRecipient",
      "outputs": [],
      "stateMutability": "nonpayable",
      "type": "function"
    },
    {
      "inputs": [],
      "name": "symbol",
      "outputs": [
        {
          "internalType": "string",
          "name": "",
          "type": "string"
        }
      ],
      "stateMutability": "view",
      "type": "function"
    },
    {
      "inputs": [],
      "name": "totalSupply",
      "outputs": [
        {
          "internalType": "uint256",
          "name": "",
          "type": "uint256"
        }
      ],
      "stateMutability": "view",
      "type": "function"
    },
    {
      "inputs": [
        {
          "internalType": "address",
          "name": "to",
          "type": "address"
        },
        {
          "internalType": "uint256",
          "name": "amount",
          "type": "uint256"
        }
      ],
      "name": "transfer",
      "outputs": [
        {
          "internalType": "bool",
          "name": "",
          "type": "bool"
        }
      ],
      "stateMutability": "nonpayable",
      "type": "function"
    },
    {
      "inputs": [
        {
          "internalType": "address",
          "name": "from",
          "type": "address"
        },
        {
          "internalType": "address",
          "name": "to",
          "type": "address"
        },
        {
          "internalType": "uint256",
          "name": "amount",
          "type": "uint256"
        }
      ],
      "name": "transferFrom",
      "outputs": [
        {
          "internalType": "bool",
          "name": "",
          "type": "bool"
        }
      ],
      "stateMutability": "nonpayable",
      "type": "function"
    },
    {
      "inputs": [
        {
          "internalType": "address",
          "name": "newOwner",
          "type": "address"
        }
      ],
      "name": "transferOwnership",
      "outputs": [],
      "stateMutability": "nonpayable",
      "type": "function"
    }
  ],
  "bytecode": {
    "object": "0x60806040526103e86006553480156200001757600080fd5b50604051620014df380380620014df8339810160408190526200003a9162000238565b6040518060400160405280600881526020016721a2ac1021b7b4b760c11b815250604051806040016040528060038152602001620868ab60eb1b81525081600390816200008891906200030e565b5060046200009782826200030e565b505050620000b4620000ae620000f560201b60201c565b620000f9565b600780546001600160a01b0319166001600160a01b038316179055620000ee620000db3390565b6b02de89507556d846780000006200014b565b5062000402565b3390565b600580546001600160a01b038381166001600160a01b0319831681179093556040519116919082907f8be0079c531659141344cd1fd0a4f28419497f9722a3daafe3b4186f6b6457e090600090a35050565b6001600160a01b038216620001a65760405162461bcd60e51b815260206004820152601f60248201527f45524332303a206d696e7420746f20746865207a65726f206164647265737300604482015260640160405180910390fd5b8060026000828254620001ba9190620003da565b90915550506001600160a01b03821660009081526020819052604081208054839290620001e9908490620003da565b90915550506040518181526001600160a01b038316906000907fddf252ad1be2c89b69c2b068fc378daa952ba7f163c4a11628f55a4df523b3ef9060200160405180910390a35050565b505050565b6000602082840312156200024b57600080fd5b81516001600160a01b03811681146200026357600080fd5b9392505050565b634e487b7160e01b600052604160045260246000fd5b600181811c908216806200029557607f821691505b602082108103620002b657634e487b7160e01b600052602260045260246000fd5b50919050565b601f8211156200023357600081815260208120601f850160051c81016020861015620002e55750805b601f850160051c820191505b818110156200030657828155600101620002f1565b505050505050565b81516001600160401b038111156200032a576200032a6200026a565b62000342816200033b845462000280565b84620002bc565b602080601f8311600181146200037a5760008415620003615750858301515b600019600386901b1c1916600185901b17855562000306565b600085815260208120601f198616915b82811015620003ab578886015182559484019460019091019084016200038a565b5085821015620003ca5787850151600019600388901b60f8161c191681555b5050505050600190811b01905550565b80820180821115620003fc57634e487b7160e01b600052601160045260246000fd5b92915050565b6110cd80620004126000396000f3fe608060405234801561001057600080fd5b50600436106101425760003560e01c80638da5cb5b116100b8578063c9bf8e461161007c578063c9bf8e46146102a7578063dd62ed3e146102ba578063e74b981b146102cd578063ec5d35af146102e0578063ec94578e146102f3578063f2fde38b1461030657600080fd5b80638da5cb5b1461024b57806395d89b4114610270578063a457c2d714610278578063a9059cbb1461028b578063c0cfc1101461029e57600080fd5b8063313ce5671161010a578063313ce567146101c257806339509351146101d157806342966c68146101e4578063594ffd6d146101f757806370a082311461021a578063715018a61461024357600080fd5b806306fdde0314610147578063095ea7b31461016557806318160ddd1461018857806320ddf6c41461019a57806323b872dd146101af575b600080fd5b61014f610319565b60405161015c9190610e8c565b60405180910390f35b610178610173366004610ef6565b6103ab565b604051901515815260200161015c565b6002545b60405190815260200161015c565b6101ad6101a8366004610f20565b6103c5565b005b6101786101bd366004610f39565b6103fd565b6040516012815260200161015c565b6101786101df366004610ef6565b610517565b6101ad6101f2366004610f20565b610539565b610178610205366004610f75565b60086020526000908152604090205460ff1681565b61018c610228366004610f75565b6001600160a01b031660009081526020819052604090205490565b6101ad61059c565b6005546001600160a01b03165b6040516001600160a01b03909116815260200161015c565b61014f6105d2565b610178610286366004610ef6565b6105e1565b610178610299366004610ef6565b610667565b61018c60065481565b6101ad6102b5366004610f75565b610752565b61018c6102c8366004610f97565b6107a0565b6101ad6102db366004610f75565b6107cb565b6101ad6102ee366004610f75565b610879565b600754610258906001600160a01b031681565b6101ad610314366004610f75565b6108c4565b60606003805461032890610fca565b80601f016020809104026020016040519081016040528092919081815260200182805461035490610fca565b80156103a15780601f10610376576101008083540402835291602001916103a1565b820191906000526020600020905b81548152906001019060200180831161038457829003601f168201915b5050505050905090565b6000336103b981858561095f565b60019150505b92915050565b6005546001600160a01b031633146103f85760405162461bcd60e51b81526004016103ef90611004565b60405180910390fd5b600655565b600080821161044e5760405162461bcd60e51b815260206004820181905260248201527f416d6f756e74206d7573742062652067726561746572207468616e207a65726f60448201526064016103ef565b3361045a858285610a83565b600061046584610afd565b6001600160a01b03871660009081526008602052604090205490915060ff16806104a757506001600160a01b03851660009081526008602052604090205460ff165b806104ca57506001600160a01b03821660009081526008602052604090205460ff165b156104d3575060005b80156104f1576007546104f19087906001600160a01b031683610b1e565b60006104fd828661104f565b905061050a878783610b1e565b5060019695505050505050565b6000336103b981858561052a83836107a0565b6105349190611062565b61095f565b600061054482610afd565b3360009081526008602052604090205490915060ff1615610563575060005b801561057f5761057f336007546001600160a01b031683610b1e565b600061058b828461104f565b90506105973382610cec565b505050565b6005546001600160a01b031633146105c65760405162461bcd60e51b81526004016103ef90611004565b6105d06000610e3a565b565b60606004805461032890610fca565b600033816105ef82866107a0565b90508381101561064f5760405162461bcd60e51b815260206004820152602560248201527f45524332303a2064656372656173656420616c6c6f77616e63652062656c6f77604482015264207a65726f60d81b60648201526084016103ef565b61065c828686840361095f565b506001949350505050565b60008082116106b85760405162461bcd60e51b815260206004820181905260248201527f416d6f756e74206d7573742062652067726561746572207468616e207a65726f60448201526064016103ef565b3360006106c484610afd565b6001600160a01b03831660009081526008602052604090205490915060ff168061070657506001600160a01b03851660009081526008602052604090205460ff165b1561070f575060005b801561072d5760075461072d9083906001600160a01b031683610b1e565b6000610739828661104f565b9050610746838783610b1e565b50600195945050505050565b6005546001600160a01b0316331461077c5760405162461bcd60e51b81526004016103ef90611004565b6001600160a01b03166000908152600860205260409020805460ff19166001179055565b6001600160a01b03918216600090815260016020908152604080832093909416825291909152205490565b6005546001600160a01b031633146107f55760405162461bcd60e51b81526004016103ef90611004565b6001600160a01b0381166108575760405162461bcd60e51b8152602060048201526024808201527f46656520726563697069656e742063616e6e6f74206265207a65726f206164646044820152637265737360e01b60648201526084016103ef565b600780546001600160a01b0319166001600160a01b0392909216919091179055565b6005546001600160a01b031633146108a35760405162461bcd60e51b81526004016103ef90611004565b6001600160a01b03166000908152600860205260409020805460ff19169055565b6005546001600160a01b031633146108ee5760405162461bcd60e51b81526004016103ef90611004565b6001600160a01b0381166109535760405162461bcd60e51b815260206004820152602660248201527f4f776e61626c653a206e6577206f776e657220697320746865207a65726f206160448201526564647265737360d01b60648201526084016103ef565b61095c81610e3a565b50565b6001600160a01b0383166109c15760405162461bcd60e51b8152602060048201526024808201527f45524332303a20617070726f76652066726f6d20746865207a65726f206164646044820152637265737360e01b60648201526084016103ef565b6001600160a01b038216610a225760405162461bcd60e51b815260206004820152602260248201527f45524332303a20617070726f766520746f20746865207a65726f206164647265604482015261737360f01b60648201526084016103ef565b6001600160a01b0383811660008181526001602090815260408083209487168084529482529182902085905590518481527f8c5be1e5ebec7d5bd14f71427d1e84f3dd0314c0f7b2291e5b200ac8c7c3b925910160405180910390a3505050565b6000610a8f84846107a0565b90506000198114610af75781811015610aea5760405162461bcd60e51b815260206004820152601d60248201527f45524332303a20696e73756666696369656e7420616c6c6f77616e636500000060448201526064016103ef565b610af7848484840361095f565b50505050565b6000600654600003610b1157506000919050565b6006546103bf9083611075565b6001600160a01b038316610b825760405162461bcd60e51b815260206004820152602560248201527f45524332303a207472616e736665722066726f6d20746865207a65726f206164604482015264647265737360d81b60648201526084016103ef565b6001600160a01b038216610be45760405162461bcd60e51b815260206004820152602360248201527f45524332303a207472616e7366657220746f20746865207a65726f206164647260448201526265737360e81b60648201526084016103ef565b6001600160a01b03831660009081526020819052604090205481811015610c5c5760405162461bcd60e51b815260206004820152602660248201527f45524332303a207472616e7366657220616d6f756e7420657863656564732062604482015265616c616e636560d01b60648201526084016103ef565b6001600160a01b03808516600090815260208190526040808220858503905591851681529081208054849290610c93908490611062565b92505081905550826001600160a01b0316846001600160a01b03167fddf252ad1be2c89b69c2b068fc378daa952ba7f163c4a11628f55a4df523b3ef84604051610cdf91815260200190565b60405180910390a3610af7565b6001600160a01b038216610d4c5760405162461bcd60e51b815260206004820152602160248201527f45524332303a206275726e2066726f6d20746865207a65726f206164647265736044820152607360f81b60648201526084016103ef565b6001600160a01b03821660009081526020819052604090205481811015610dc05760405162461bcd60e51b815260206004820152602260248201527f45524332303a206275726e20616d6f756e7420657863656564732062616c616e604482015261636560f01b60648201526084016103ef565b6001600160a01b0383166000908152602081905260408120838303905560028054849290610def90849061104f565b90915550506040518281526000906001600160a01b038516907fddf252ad1be2c89b69c2b068fc378daa952ba7f163c4a11628f55a4df523b3ef9060200160405180910390a3505050565b600580546001600160a01b038381166001600160a01b0319831681179093556040519116919082907f8be0079c531659141344cd1fd0a4f28419497f9722a3daafe3b4186f6b6457e090600090a35050565b600060208083528351808285015260005b81811015610eb957858101830151858201604001528201610e9d565b506000604082860101526040601f19601f8301168501019250505092915050565b80356001600160a01b0381168114610ef157600080fd5b919050565b60008060408385031215610f0957600080fd5b610f1283610eda565b946020939093013593505050565b600060208284031215610f3257600080fd5b5035919050565b600080600060608486031215610f4e57600080fd5b610f5784610eda565b9250610f6560208501610eda565b9150604084013590509250925092565b600060208284031215610f8757600080fd5b610f9082610eda565b9392505050565b60008060408385031215610faa57600080fd5b610fb383610eda565b9150610fc160208401610eda565b90509250929050565b600181811c90821680610fde57607f821691505b602082108103610ffe57634e487b7160e01b600052602260045260246000fd5b50919050565b6020808252818101527f4f776e61626c653a2063616c6c6572206973206e6f7420746865206f776e6572604082015260600190565b634e487b7160e01b600052601160045260246000fd5b818103818111156103bf576103bf611039565b808201808211156103bf576103bf611039565b60008261109257634e487b7160e01b600052601260045260246000fd5b50049056fea264697066735822122050f71466670fe810090dcf3c13048795ccaa0c65c68ebf9535510f0aa08525a564736f6c63430008110033",
    "linkReferences": {}
  },
  "methodIdentifiers": {
    "FeeExclusions(address)": "594ffd6d",
    "FeeFraction()": "c0cfc110",
    "FeeRecipient()": "ec94578e",
    "addFeeExclusion(address)": "c9bf8e46",
    "allowance(address,address)": "dd62ed3e",
    "approve(address,uint256)": "095ea7b3",
    "balanceOf(address)": "70a08231",
    "burn(uint256)": "42966c68",
    "decimals()": "313ce567",
    "decreaseAllowance(address,uint256)": "a457c2d7",
    "increaseAllowance(address,uint256)": "39509351",
    "name()": "06fdde03",
    "owner()": "8da5cb5b",
    "removeFeeExclusion(address)": "ec5d35af",
    "renounceOwnership()": "715018a6",
    "setFeeFraction(uint256)": "20ddf6c4",
    "setFeeRecipient(address)": "e74b981b",
    "symbol()": "95d89b41",
    "totalSupply()": "18160ddd",
    "transfer(address,uint256)": "a9059cbb",
    "transferFrom(address,address,uint256)": "23b872dd",
    "transferOwnership(address)": "f2fde38b"
  },
  "id": 0
}