{
  "abi": [
    {
      "inputs": [
        {
          "internalType": "address",
          "name": "_rewardsToken",
          "type": "address"
        },
        {
          "internalType": "address",
          "name": "_stakingToken",
          "type": "address"
        }
      ],
      "stateMutability": "nonpayable",
      "type": "constructor"
    },
    {
      "anonymous": false,
      "inputs": [
        {
          "indexed": true,
          "internalType": "address",
          "name": "previousOwner",
          "type": "address"
        },
        {
          "indexed": true,
          "internalType": "address",
          "name": "newOwner",
          "type": "address"
        }
      ],
      "name": "OwnershipTransferred",
      "type": "event"
    },
    {
      "anonymous": false,
      "inputs": [
        {
          "indexed": true,
          "internalType": "address",
          "name": "token",
          "type": "address"
        },
        {
          "indexed": true,
          "internalType": "uint256",
          "name": "amount",
          "type": "uint256"
        }
      ],
      "name": "Recovered",
      "type": "event"
    },
    {
      "anonymous": false,
      "inputs": [
        {
          "indexed": true,
          "internalType": "uint256",
          "name": "reward",
          "type": "uint256"
        }
      ],
      "name": "RewardAdded",
      "type": "event"
    },
    {
      "anonymous": false,
      "inputs": [
        {
          "indexed": true,
          "internalType": "address",
          "name": "user",
          "type": "address"
        },
        {
          "indexed": true,
          "internalType": "uint256",
          "name": "reward",
          "type": "uint256"
        }
      ],
      "name": "RewardPaid",
      "type": "event"
    },
    {
      "anonymous": false,
      "inputs": [
        {
          "indexed": true,
          "internalType": "uint256",
          "name": "newDuration",
          "type": "uint256"
        }
      ],
      "name": "RewardsDurationUpdated",
      "type": "event"
    },
    {
      "anonymous": false,
      "inputs": [
        {
          "indexed": true,
          "internalType": "address",
          "name": "user",
          "type": "address"
        },
        {
          "indexed": true,
          "internalType": "uint256",
          "name": "amount",
          "type": "uint256"
        }
      ],
      "name": "Staked",
      "type": "event"
    },
    {
      "anonymous": false,
      "inputs": [
        {
          "indexed": true,
          "internalType": "address",
          "name": "user",
          "type": "address"
        },
        {
          "indexed": true,
          "internalType": "uint256",
          "name": "amount",
          "type": "uint256"
        }
      ],
      "name": "Withdrawn",
      "type": "event"
    },
    {
      "inputs": [
        {
          "internalType": "address",
          "name": "account",
          "type": "address"
        }
      ],
      "name": "balanceOf",
      "outputs": [
        {
          "internalType": "uint256",
          "name": "",
          "type": "uint256"
        }
      ],
      "stateMutability": "view",
      "type": "function"
    },
    {
      "inputs": [
        {
          "internalType": "address",
          "name": "account",
          "type": "address"
        }
      ],
      "name": "earned",
      "outputs": [
        {
          "internalType": "uint256",
          "name": "",
          "type": "uint256"
        }
      ],
      "stateMutability": "view",
      "type": "function"
    },
    {
      "inputs": [],
      "name": "exit",
      "outputs": [],
      "stateMutability": "nonpayable",
      "type": "function"
    },
    {
      "inputs": [],
      "name": "getReward",
      "outputs": [],
      "stateMutability": "nonpayable",
      "type": "function"
    },
    {
      "inputs": [],
      "name": "getRewardForDuration",
      "outputs": [
        {
          "internalType": "uint256",
          "name": "",
          "type": "uint256"
        }
      ],
      "stateMutability": "view",
      "type": "function"
    },
    {
      "inputs": [],
      "name": "lastTimeRewardApplicable",
      "outputs": [
        {
          "internalType": "uint256",
          "name": "",
          "type": "uint256"
        }
      ],
      "stateMutability": "view",
      "type": "function"
    },
    {
      "inputs": [],
      "name": "lastUpdateTime",
      "outputs": [
        {
          "internalType": "uint256",
          "name": "",
          "type": "uint256"
        }
      ],
      "stateMutability": "view",
      "type": "function"
    },
    {
      "inputs": [
        {
          "internalType": "uint256",
          "name": "reward",
          "type": "uint256"
        }
      ],
      "name": "notifyRewardAmount",
      "outputs": [],
      "stateMutability": "nonpayable",
      "type": "function"
    },
    {
      "inputs": [],
      "name": "owner",
      "outputs": [
        {
          "internalType": "address",
          "name": "",
          "type": "address"
        }
      ],
      "stateMutability": "view",
      "type": "function"
    },
    {
      "inputs": [],
      "name": "periodFinish",
      "outputs": [
        {
          "internalType": "uint256",
          "name": "",
          "type": "uint256"
        }
      ],
      "stateMutability": "view",
      "type": "function"
    },
    {
      "inputs": [
        {
          "internalType": "address",
          "name": "tokenAddress",
          "type": "address"
        },
        {
          "internalType": "uint256",
          "name": "tokenAmount",
          "type": "uint256"
        }
      ],
      "name": "recoverERC20",
      "outputs": [],
      "stateMutability": "nonpayable",
      "type": "function"
    },
    {
      "inputs": [],
      "name": "renounceOwnership",
      "outputs": [],
      "stateMutability": "nonpayable",
      "type": "function"
    },
    {
      "inputs": [],
      "name": "rewardPerToken",
      "outputs": [
        {
          "internalType": "uint256",
          "name": "",
          "type": "uint256"
        }
      ],
      "stateMutability": "view",
      "type": "function"
    },
    {
      "inputs": [],
      "name": "rewardPerTokenStored",
      "outputs": [
        {
          "internalType": "uint256",
          "name": "",
          "type": "uint256"
        }
      ],
      "stateMutability": "view",
      "type": "function"
    },
    {
      "inputs": [],
      "name": "rewardRate",
      "outputs": [
        {
          "internalType": "uint256",
          "name": "",
          "type": "uint256"
        }
      ],
      "stateMutability": "view",
      "type": "function"
    },
    {
      "inputs": [
        {
          "internalType": "address",
          "name": "",
          "type": "address"
        }
      ],
      "name": "rewards",
      "outputs": [
        {
          "internalType": "uint256",
          "name": "",
          "type": "uint256"
        }
      ],
      "stateMutability": "view",
      "type": "function"
    },
    {
      "inputs": [],
      "name": "rewardsDuration",
      "outputs": [
        {
          "internalType": "uint256",
          "name": "",
          "type": "uint256"
        }
      ],
      "stateMutability": "view",
      "type": "function"
    },
    {
      "inputs": [],
      "name": "rewardsToken",
      "outputs": [
        {
          "internalType": "contract IERC20",
          "name": "",
          "type": "address"
        }
      ],
      "stateMutability": "view",
      "type": "function"
    },
    {
      "inputs": [
        {
          "internalType": "uint256",
          "name": "_rewardsDuration",
          "type": "uint256"
        }
      ],
      "name": "setRewardsDuration",
      "outputs": [],
      "stateMutability": "nonpayable",
      "type": "function"
    },
    {
      "inputs": [
        {
          "internalType": "uint256",
          "name": "amount",
          "type": "uint256"
        }
      ],
      "name": "stake",
      "outputs": [],
      "stateMutability": "nonpayable",
      "type": "function"
    },
    {
      "inputs": [],
      "name": "stakingToken",
      "outputs": [
        {
          "internalType": "contract IERC20",
          "name": "",
          "type": "address"
        }
      ],
      "stateMutability": "view",
      "type": "function"
    },
    {
      "inputs": [],
      "name": "totalSupply",
      "outputs": [
        {
          "internalType": "uint256",
          "name": "",
          "type": "uint256"
        }
      ],
      "stateMutability": "view",
      "type": "function"
    },
    {
      "inputs": [
        {
          "internalType": "address",
          "name": "newOwner",
          "type": "address"
        }
      ],
      "name": "transferOwnership",
      "outputs": [],
      "stateMutability": "nonpayable",
      "type": "function"
    },
    {
      "inputs": [
        {
          "internalType": "address",
          "name": "",
          "type": "address"
        }
      ],
      "name": "userRewardPerTokenPaid",
      "outputs": [
        {
          "internalType": "uint256",
          "name": "",
          "type": "uint256"
        }
      ],
      "stateMutability": "view",
      "type": "function"
    },
    {
      "inputs": [
        {
          "internalType": "uint256",
          "name": "amount",
          "type": "uint256"
        }
      ],
      "name": "withdraw",
      "outputs": [],
      "stateMutability": "nonpayable",
      "type": "function"
    }
  ],
  "bytecode": {
    "object": "0x60806040526000600455600060055562093a8060065534801561002157600080fd5b50604051620013de380380620013de833981016040819052610042916100ef565b600160005561005033610081565b600280546001600160a01b039384166001600160a01b03199182161790915560038054929093169116179055610122565b600180546001600160a01b038381166001600160a01b0319831681179093556040519116919082907f8be0079c531659141344cd1fd0a4f28419497f9722a3daafe3b4186f6b6457e090600090a35050565b80516001600160a01b03811681146100ea57600080fd5b919050565b6000806040838503121561010257600080fd5b61010b836100d3565b9150610119602084016100d3565b90509250929050565b6112ac80620001326000396000f3fe608060405234801561001057600080fd5b50600436106101725760003560e01c806380faa57d116100de578063cc1a378f11610097578063df136d6511610071578063df136d6514610301578063e9fad8ee1461030a578063ebe2b12b14610312578063f2fde38b1461031b57600080fd5b8063cc1a378f146102d3578063cd3daf9d146102e6578063d1af0c7d146102ee57600080fd5b806380faa57d1461026b5780638980f11f146102735780638b876347146102865780638da5cb5b146102a6578063a694fc3a146102b7578063c8f33c91146102ca57600080fd5b80633c6b16ab116101305780633c6b16ab146101eb5780633d18b912146101fe57806370a0823114610206578063715018a61461022f57806372f702f3146102375780637b0a47ee1461026257600080fd5b80628cc262146101775780630700037d1461019d57806318160ddd146101bd5780631c1f78eb146101c55780632e1a7d4d146101cd578063386a9525146101e2575b600080fd5b61018a6101853660046110f5565b61032e565b6040519081526020015b60405180910390f35b61018a6101ab3660046110f5565b600a6020526000908152604090205481565b600b5461018a565b61018a6103ab565b6101e06101db366004611117565b6103c2565b005b61018a60065481565b6101e06101f9366004611117565b610602565b6101e06107fb565b61018a6102143660046110f5565b6001600160a01b03166000908152600c602052604090205490565b6101e0610959565b60035461024a906001600160a01b031681565b6040516001600160a01b039091168152602001610194565b61018a60055481565b61018a61098f565b6101e0610281366004611130565b6109a6565b61018a6102943660046110f5565b60096020526000908152604090205481565b6001546001600160a01b031661024a565b6101e06102c5366004611117565b610b05565b61018a60075481565b6101e06102e1366004611117565b610da3565b61018a610e9d565b60025461024a906001600160a01b031681565b61018a60085481565b6101e0610efe565b61018a60045481565b6101e06103293660046110f5565b610f17565b6001600160a01b0381166000908152600a60209081526040808320546009909252822054670de0b6b3a764000090610364610e9d565b61036e9190611170565b6001600160a01b0385166000908152600c60205260409020546103919190611183565b61039b919061119a565b6103a591906111bc565b92915050565b60006006546005546103bd9190611183565b905090565b6002600054036103ed5760405162461bcd60e51b81526004016103e4906111cf565b60405180910390fd5b6002600055336103fb610e9d565b60085561040661098f565b6007556001600160a01b0381161561044d576104218161032e565b6001600160a01b0382166000908152600a60209081526040808320939093556008546009909152919020555b600082116104915760405162461bcd60e51b8152602060048201526011602482015270043616e6e6f74207769746864726177203607c1b60448201526064016103e4565b336000908152600c60205260409020548211156104f05760405162461bcd60e51b815260206004820181905260248201527f43616e6e6f74207769746864726177206d6f7265207468616e207374616b656460448201526064016103e4565b81600b60008282546105029190611170565b9091555050336000908152600c602052604081208054849290610526908490611170565b90915550506003546001600160a01b031663a9059cbb336040516001600160e01b031960e084901b1681526001600160a01b039091166004820152602481018590526044016020604051808303816000875af115801561058a573d6000803e3d6000fd5b505050506040513d601f19601f820116820180604052508101906105ae9190611206565b50336000908152600a6020526040902054156105cc576105cc610fb2565b604051829033907f7084f5476618d8e60b11ef0d7d3f06914655adb8793e28ff7f018d4c76d505d590600090a350506001600055565b6001546001600160a01b0316331461062c5760405162461bcd60e51b81526004016103e490611228565b6000610636610e9d565b60085561064161098f565b6007556001600160a01b038116156106885761065c8161032e565b6001600160a01b0382166000908152600a60209081526040808320939093556008546009909152919020555b60045442106106a65760065461069e908361119a565b6005556106e8565b6000426004546106b69190611170565b90506000600554826106c89190611183565b6006549091506106d882866111bc565b6106e2919061119a565b60055550505b6002546040516370a0823160e01b81523060048201526000916001600160a01b0316906370a0823190602401602060405180830381865afa158015610731573d6000803e3d6000fd5b505050506040513d601f19601f82011682018060405250810190610755919061125d565b905060065481610765919061119a565b60055411156107b65760405162461bcd60e51b815260206004820152601860248201527f50726f76696465642072657761726420746f6f2068696768000000000000000060448201526064016103e4565b4260078190556006546107c8916111bc565b60045560405183907fde88a922e0d3b88b24e9623efeb464919c6bf9f66857a65e2bfcf2ce87a9433d90600090a2505050565b60026000540361081d5760405162461bcd60e51b81526004016103e4906111cf565b60026000553361082b610e9d565b60085561083661098f565b6007556001600160a01b0381161561087d576108518161032e565b6001600160a01b0382166000908152600a60209081526040808320939093556008546009909152919020555b336000908152600a6020526040902054801561095057336000818152600a60209081526040808320839055600254815163a9059cbb60e01b815260048101959095526024850186905290516001600160a01b039091169363a9059cbb93604480830194939283900301908290875af11580156108fd573d6000803e3d6000fd5b505050506040513d601f19601f820116820180604052508101906109219190611206565b50604051819033907fe2403640ba68fed3a2f88b7557551d1993f84b99bb10ff833f0cf8db0c5e048690600090a35b50506001600055565b6001546001600160a01b031633146109835760405162461bcd60e51b81526004016103e490611228565b61098d6000611087565b565b600060045442106109a1575060045490565b504290565b6001546001600160a01b031633146109d05760405162461bcd60e51b81526004016103e490611228565b6003546001600160a01b0390811690831603610a385760405162461bcd60e51b815260206004820152602160248201527f43616e6e6f7420776974686472617720746865207374616b696e6720746f6b656044820152603760f91b60648201526084016103e4565b816001600160a01b031663a9059cbb610a596001546001600160a01b031690565b6040516001600160e01b031960e084901b1681526001600160a01b039091166004820152602481018490526044016020604051808303816000875af1158015610aa6573d6000803e3d6000fd5b505050506040513d601f19601f82011682018060405250810190610aca9190611206565b5060405181906001600160a01b038416907f8c1256b8896378cd5044f80c202f9772b9d77dc85c8a6eb51967210b09bfaa2890600090a35050565b600260005403610b275760405162461bcd60e51b81526004016103e4906111cf565b600260005533610b35610e9d565b600855610b4061098f565b6007556001600160a01b03811615610b8757610b5b8161032e565b6001600160a01b0382166000908152600a60209081526040808320939093556008546009909152919020555b60008211610bc85760405162461bcd60e51b815260206004820152600e60248201526d043616e6e6f74207374616b6520360941b60448201526064016103e4565b60035482906001600160a01b031663dd62ed3e336040516001600160e01b031960e084901b1681526001600160a01b039091166004820152306024820152604401602060405180830381865afa158015610c26573d6000803e3d6000fd5b505050506040513d601f19601f82011682018060405250810190610c4a919061125d565b1015610ca85760405162461bcd60e51b815260206004820152602760248201527f5472616e73666572206f6620746f6b656e20686173206e6f74206265656e20616044820152661c1c1c9bdd995960ca1b60648201526084016103e4565b81600b6000828254610cba91906111bc565b9091555050336000908152600c602052604081208054849290610cde9084906111bc565b90915550506003546001600160a01b03166323b872dd336040516001600160e01b031960e084901b1681526001600160a01b039091166004820152306024820152604481018590526064016020604051808303816000875af1158015610d48573d6000803e3d6000fd5b505050506040513d601f19601f82011682018060405250810190610d6c9190611206565b50604051829033907f9e71bc8eea02a63969f509818f2dafb9254532904319f9dbda79b67bd34a5f3d90600090a350506001600055565b6001546001600160a01b03163314610dcd5760405162461bcd60e51b81526004016103e490611228565b6004544211610e6a5760405162461bcd60e51b815260206004820152605860248201527f50726576696f7573207265776172647320706572696f64206d7573742062652060448201527f636f6d706c657465206265666f7265206368616e67696e67207468652064757260648201527f6174696f6e20666f7220746865206e657720706572696f640000000000000000608482015260a4016103e4565b600681905560405181907ffb46ca5a5e06d4540d6387b930a7c978bce0db5f449ec6b3f5d07c6e1d44f2d390600090a250565b6000600b54600003610eb0575060085490565b600b54600554600754610ec161098f565b610ecb9190611170565b610ed59190611183565b610ee790670de0b6b3a7640000611183565b610ef1919061119a565b6008546103bd91906111bc565b336000908152600c602052604090205461098d906103c2565b6001546001600160a01b03163314610f415760405162461bcd60e51b81526004016103e490611228565b6001600160a01b038116610fa65760405162461bcd60e51b815260206004820152602660248201527f4f776e61626c653a206e6577206f776e657220697320746865207a65726f206160448201526564647265737360d01b60648201526084016103e4565b610faf81611087565b50565b336000908152600a60205260409020548015610faf57336000818152600a60209081526040808320839055600254815163a9059cbb60e01b815260048101959095526024850186905290516001600160a01b039091169363a9059cbb93604480830194939283900301908290875af1158015611032573d6000803e3d6000fd5b505050506040513d601f19601f820116820180604052508101906110569190611206565b50604051819033907fe2403640ba68fed3a2f88b7557551d1993f84b99bb10ff833f0cf8db0c5e048690600090a350565b600180546001600160a01b038381166001600160a01b0319831681179093556040519116919082907f8be0079c531659141344cd1fd0a4f28419497f9722a3daafe3b4186f6b6457e090600090a35050565b80356001600160a01b03811681146110f057600080fd5b919050565b60006020828403121561110757600080fd5b611110826110d9565b9392505050565b60006020828403121561112957600080fd5b5035919050565b6000806040838503121561114357600080fd5b61114c836110d9565b946020939093013593505050565b634e487b7160e01b600052601160045260246000fd5b818103818111156103a5576103a561115a565b80820281158282048414176103a5576103a561115a565b6000826111b757634e487b7160e01b600052601260045260246000fd5b500490565b808201808211156103a5576103a561115a565b6020808252601f908201527f5265656e7472616e637947756172643a207265656e7472616e742063616c6c00604082015260600190565b60006020828403121561121857600080fd5b8151801515811461111057600080fd5b6020808252818101527f4f776e61626c653a2063616c6c6572206973206e6f7420746865206f776e6572604082015260600190565b60006020828403121561126f57600080fd5b505191905056fea26469706673582212202ab67242c43dbac539b4a7f582e0a311eacd6ae3707db9485dfd5973f8b1decf64736f6c63430008110033",
    "linkReferences": {}
  },
  "methodIdentifiers": {
    "balanceOf(address)": "70a08231",
    "earned(address)": "008cc262",
    "exit()": "e9fad8ee",
    "getReward()": "3d18b912",
    "getRewardForDuration()": "1c1f78eb",
    "lastTimeRewardApplicable()": "80faa57d",
    "lastUpdateTime()": "c8f33c91",
    "notifyRewardAmount(uint256)": "3c6b16ab",
    "owner()": "8da5cb5b",
    "periodFinish()": "ebe2b12b",
    "recoverERC20(address,uint256)": "8980f11f",
    "renounceOwnership()": "715018a6",
    "rewardPerToken()": "cd3daf9d",
    "rewardPerTokenStored()": "df136d65",
    "rewardRate()": "7b0a47ee",
    "rewards(address)": "0700037d",
    "rewardsDuration()": "386a9525",
    "rewardsToken()": "d1af0c7d",
    "setRewardsDuration(uint256)": "cc1a378f",
    "stake(uint256)": "a694fc3a",
    "stakingToken()": "72f702f3",
    "totalSupply()": "18160ddd",
    "transferOwnership(address)": "f2fde38b",
    "userRewardPerTokenPaid(address)": "8b876347",
    "withdraw(uint256)": "2e1a7d4d"
  },
  "id": 2
}