{
  "abi": [
    {
      "inputs": [
        {
          "internalType": "address",
          "name": "token",
          "type": "address"
        }
      ],
      "stateMutability": "nonpayable",
      "type": "constructor"
    },
    {
      "anonymous": false,
      "inputs": [
        {
          "indexed": true,
          "internalType": "address",
          "name": "previousOwner",
          "type": "address"
        },
        {
          "indexed": true,
          "internalType": "address",
          "name": "newOwner",
          "type": "address"
        }
      ],
      "name": "OwnershipTransferred",
      "type": "event"
    },
    {
      "anonymous": false,
      "inputs": [
        {
          "indexed": true,
          "internalType": "address",
          "name": "token",
          "type": "address"
        },
        {
          "indexed": true,
          "internalType": "uint256",
          "name": "amount",
          "type": "uint256"
        }
      ],
      "name": "Recovered",
      "type": "event"
    },
    {
      "anonymous": false,
      "inputs": [
        {
          "indexed": true,
          "internalType": "uint256",
          "name": "reward",
          "type": "uint256"
        }
      ],
      "name": "RewardAdded",
      "type": "event"
    },
    {
      "anonymous": false,
      "inputs": [
        {
          "indexed": true,
          "internalType": "address",
          "name": "user",
          "type": "address"
        },
        {
          "indexed": true,
          "internalType": "uint256",
          "name": "reward",
          "type": "uint256"
        }
      ],
      "name": "RewardPaid",
      "type": "event"
    },
    {
      "anonymous": false,
      "inputs": [
        {
          "indexed": true,
          "internalType": "uint256",
          "name": "newDuration",
          "type": "uint256"
        }
      ],
      "name": "RewardsDurationUpdated",
      "type": "event"
    },
    {
      "anonymous": false,
      "inputs": [
        {
          "indexed": true,
          "internalType": "address",
          "name": "user",
          "type": "address"
        },
        {
          "indexed": true,
          "internalType": "uint256",
          "name": "amount",
          "type": "uint256"
        }
      ],
      "name": "Staked",
      "type": "event"
    },
    {
      "anonymous": false,
      "inputs": [
        {
          "indexed": true,
          "internalType": "address",
          "name": "user",
          "type": "address"
        },
        {
          "indexed": true,
          "internalType": "uint256",
          "name": "amount",
          "type": "uint256"
        }
      ],
      "name": "Withdrawn",
      "type": "event"
    },
    {
      "inputs": [],
      "name": "Token",
      "outputs": [
        {
          "internalType": "contract IERC20",
          "name": "",
          "type": "address"
        }
      ],
      "stateMutability": "view",
      "type": "function"
    },
    {
      "inputs": [
        {
          "internalType": "address",
          "name": "account",
          "type": "address"
        }
      ],
      "name": "balanceOf",
      "outputs": [
        {
          "internalType": "uint256",
          "name": "",
          "type": "uint256"
        }
      ],
      "stateMutability": "view",
      "type": "function"
    },
    {
      "inputs": [
        {
          "internalType": "address",
          "name": "account",
          "type": "address"
        }
      ],
      "name": "earned",
      "outputs": [
        {
          "internalType": "uint256",
          "name": "",
          "type": "uint256"
        }
      ],
      "stateMutability": "view",
      "type": "function"
    },
    {
      "inputs": [],
      "name": "exit",
      "outputs": [],
      "stateMutability": "nonpayable",
      "type": "function"
    },
    {
      "inputs": [],
      "name": "getReward",
      "outputs": [],
      "stateMutability": "nonpayable",
      "type": "function"
    },
    {
      "inputs": [],
      "name": "getRewardForDuration",
      "outputs": [
        {
          "internalType": "uint256",
          "name": "",
          "type": "uint256"
        }
      ],
      "stateMutability": "view",
      "type": "function"
    },
    {
      "inputs": [],
      "name": "lastTimeRewardApplicable",
      "outputs": [
        {
          "internalType": "uint256",
          "name": "",
          "type": "uint256"
        }
      ],
      "stateMutability": "view",
      "type": "function"
    },
    {
      "inputs": [],
      "name": "lastUpdateTime",
      "outputs": [
        {
          "internalType": "uint256",
          "name": "",
          "type": "uint256"
        }
      ],
      "stateMutability": "view",
      "type": "function"
    },
    {
      "inputs": [],
      "name": "merkleRoot",
      "outputs": [
        {
          "internalType": "bytes32",
          "name": "",
          "type": "bytes32"
        }
      ],
      "stateMutability": "view",
      "type": "function"
    },
    {
      "inputs": [
        {
          "internalType": "uint256",
          "name": "reward",
          "type": "uint256"
        }
      ],
      "name": "notifyRewardAmount",
      "outputs": [],
      "stateMutability": "nonpayable",
      "type": "function"
    },
    {
      "inputs": [],
      "name": "owner",
      "outputs": [
        {
          "internalType": "address",
          "name": "",
          "type": "address"
        }
      ],
      "stateMutability": "view",
      "type": "function"
    },
    {
      "inputs": [],
      "name": "periodFinish",
      "outputs": [
        {
          "internalType": "uint256",
          "name": "",
          "type": "uint256"
        }
      ],
      "stateMutability": "view",
      "type": "function"
    },
    {
      "inputs": [
        {
          "internalType": "address",
          "name": "tokenAddress",
          "type": "address"
        },
        {
          "internalType": "uint256",
          "name": "tokenAmount",
          "type": "uint256"
        }
      ],
      "name": "recoverERC20",
      "outputs": [],
      "stateMutability": "nonpayable",
      "type": "function"
    },
    {
      "inputs": [],
      "name": "renounceOwnership",
      "outputs": [],
      "stateMutability": "nonpayable",
      "type": "function"
    },
    {
      "inputs": [],
      "name": "rewardPerToken",
      "outputs": [
        {
          "internalType": "uint256",
          "name": "",
          "type": "uint256"
        }
      ],
      "stateMutability": "view",
      "type": "function"
    },
    {
      "inputs": [],
      "name": "rewardPerTokenStored",
      "outputs": [
        {
          "internalType": "uint256",
          "name": "",
          "type": "uint256"
        }
      ],
      "stateMutability": "view",
      "type": "function"
    },
    {
      "inputs": [],
      "name": "rewardRate",
      "outputs": [
        {
          "internalType": "uint256",
          "name": "",
          "type": "uint256"
        }
      ],
      "stateMutability": "view",
      "type": "function"
    },
    {
      "inputs": [
        {
          "internalType": "address",
          "name": "",
          "type": "address"
        }
      ],
      "name": "rewards",
      "outputs": [
        {
          "internalType": "uint256",
          "name": "",
          "type": "uint256"
        }
      ],
      "stateMutability": "view",
      "type": "function"
    },
    {
      "inputs": [],
      "name": "rewardsDuration",
      "outputs": [
        {
          "internalType": "uint256",
          "name": "",
          "type": "uint256"
        }
      ],
      "stateMutability": "view",
      "type": "function"
    },
    {
      "inputs": [
        {
          "internalType": "bytes32",
          "name": "root",
          "type": "bytes32"
        }
      ],
      "name": "setMerkleRoot",
      "outputs": [],
      "stateMutability": "nonpayable",
      "type": "function"
    },
    {
      "inputs": [
        {
          "internalType": "uint256",
          "name": "_rewardsDuration",
          "type": "uint256"
        }
      ],
      "name": "setRewardsDuration",
      "outputs": [],
      "stateMutability": "nonpayable",
      "type": "function"
    },
    {
      "inputs": [
        {
          "internalType": "uint256",
          "name": "amount",
          "type": "uint256"
        },
        {
          "internalType": "bytes32[]",
          "name": "_merkleProof",
          "type": "bytes32[]"
        }
      ],
      "name": "stake",
      "outputs": [],
      "stateMutability": "nonpayable",
      "type": "function"
    },
    {
      "inputs": [],
      "name": "totalReward",
      "outputs": [
        {
          "internalType": "uint256",
          "name": "",
          "type": "uint256"
        }
      ],
      "stateMutability": "view",
      "type": "function"
    },
    {
      "inputs": [],
      "name": "totalStaked",
      "outputs": [
        {
          "internalType": "uint256",
          "name": "",
          "type": "uint256"
        }
      ],
      "stateMutability": "view",
      "type": "function"
    },
    {
      "inputs": [],
      "name": "totalStakers",
      "outputs": [
        {
          "internalType": "uint256",
          "name": "",
          "type": "uint256"
        }
      ],
      "stateMutability": "view",
      "type": "function"
    },
    {
      "inputs": [
        {
          "internalType": "address",
          "name": "newOwner",
          "type": "address"
        }
      ],
      "name": "transferOwnership",
      "outputs": [],
      "stateMutability": "nonpayable",
      "type": "function"
    },
    {
      "inputs": [
        {
          "internalType": "address",
          "name": "",
          "type": "address"
        }
      ],
      "name": "userRewardPerTokenPaid",
      "outputs": [
        {
          "internalType": "uint256",
          "name": "",
          "type": "uint256"
        }
      ],
      "stateMutability": "view",
      "type": "function"
    },
    {
      "inputs": [
        {
          "internalType": "uint256",
          "name": "amount",
          "type": "uint256"
        }
      ],
      "name": "withdraw",
      "outputs": [],
      "stateMutability": "nonpayable",
      "type": "function"
    }
  ],
  "bytecode": {
    "object": "0x6080604052600060035562093a806009556000600a556000600b5534801561002657600080fd5b506040516117e93803806117e9833981016040819052610045916100ca565b600160005561005333610078565b600280546001600160a01b0319166001600160a01b03929092169190911790556100fa565b600180546001600160a01b038381166001600160a01b0319831681179093556040519116919082907f8be0079c531659141344cd1fd0a4f28419497f9722a3daafe3b4186f6b6457e090600090a35050565b6000602082840312156100dc57600080fd5b81516001600160a01b03811681146100f357600080fd5b9392505050565b6116e0806101096000396000f3fe608060405234801561001057600080fd5b50600436106101c35760003560e01c8063817b1cd2116100f9578063c8f33c9111610097578063df136d6511610071578063df136d651461036a578063e9fad8ee14610373578063ebe2b12b1461037b578063f2fde38b1461038457600080fd5b8063c8f33c9114610346578063cc1a378f1461034f578063cd3daf9d1461036257600080fd5b80638b876347116100d35780638b876347146102db5780638da5cb5b146102fb578063a4eb3aaf14610320578063c24126761461033357600080fd5b8063817b1cd2146102b657806386989038146102bf5780638980f11f146102c857600080fd5b80633d18b91211610166578063750142e611610140578063750142e6146102895780637b0a47ee146102925780637cb647591461029b57806380faa57d146102ae57600080fd5b80633d18b9121461025057806370a0823114610258578063715018a61461028157600080fd5b80632e1a7d4d116101a25780632e1a7d4d146102165780632eb4a7ab1461022b578063386a9525146102345780633c6b16ab1461023d57600080fd5b80628cc262146101c85780630700037d146101ee5780631c1f78eb1461020e575b600080fd5b6101db6101d636600461147b565b610397565b6040519081526020015b60405180910390f35b6101db6101fc36600461147b565b600d6020526000908152604090205481565b6101db610414565b61022961022436600461149d565b61042b565b005b6101db600b5481565b6101db60095481565b61022961024b36600461149d565b61069a565b6102296108bb565b6101db61026636600461147b565b6001600160a01b03166000908152600e602052604090205490565b610229610a37565b6101db60085481565b6101db600a5481565b6102296102a936600461149d565b610a6d565b6101db610a9c565b6101db60055481565b6101db60045481565b6102296102d63660046114b6565b610ab3565b6101db6102e936600461147b565b600c6020526000908152604090205481565b6001546001600160a01b03165b6040516001600160a01b0390911681526020016101e5565b61022961032e3660046114e0565b610d0e565b600254610308906001600160a01b031681565b6101db60075481565b61022961035d36600461149d565b61109f565b6101db611199565b6101db60065481565b6102296111fa565b6101db60035481565b61022961039236600461147b565b611213565b6001600160a01b0381166000908152600d6020908152604080832054600c909252822054670de0b6b3a7640000906103cd611199565b6103d79190611575565b6001600160a01b0385166000908152600e60205260409020546103fa9190611588565b610404919061159f565b61040e91906115c1565b92915050565b6000600954600a546104269190611588565b905090565b6002600054036104565760405162461bcd60e51b815260040161044d906115d4565b60405180910390fd5b600260005533610464611199565b60065561046f610a9c565b6007556001600160a01b038116156104b65761048a81610397565b6001600160a01b0382166000908152600d6020908152604080832093909355600654600c909152919020555b600082116104fa5760405162461bcd60e51b8152602060048201526011602482015270043616e6e6f74207769746864726177203607c1b604482015260640161044d565b336000908152600e60205260409020548211156105595760405162461bcd60e51b815260206004820181905260248201527f43616e6e6f74207769746864726177206d6f7265207468616e207374616b6564604482015260640161044d565b816005600082825461056b9190611575565b9091555050336000908152600e6020526040902054820361059f576001600460008282546105999190611575565b90915550505b336000908152600e6020526040812080548492906105be908490611575565b90915550506002546001600160a01b031663a9059cbb336040516001600160e01b031960e084901b1681526001600160a01b039091166004820152602481018590526044016020604051808303816000875af1158015610622573d6000803e3d6000fd5b505050506040513d601f19601f82011682018060405250810190610646919061160b565b50336000908152600d602052604090205415610664576106646112ae565b604051829033907f7084f5476618d8e60b11ef0d7d3f06914655adb8793e28ff7f018d4c76d505d590600090a350506001600055565b6001546001600160a01b031633146106c45760405162461bcd60e51b815260040161044d9061162d565b60006106ce611199565b6006556106d9610a9c565b6007556001600160a01b03811615610720576106f481610397565b6001600160a01b0382166000908152600d6020908152604080832093909355600654600c909152919020555b600354421061073e57600954610736908361159f565b600a55610780565b60004260035461074e9190611575565b90506000600a54826107609190611588565b60095490915061077082866115c1565b61077a919061159f565b600a5550505b6005546002546040516370a0823160e01b8152306004820152600092916001600160a01b0316906370a0823190602401602060405180830381865afa1580156107cd573d6000803e3d6000fd5b505050506040513d601f19601f820116820180604052508101906107f19190611662565b6107fb9190611575565b90506009548161080b919061159f565b600a54111561085c5760405162461bcd60e51b815260206004820152601860248201527f50726f76696465642072657761726420746f6f20686967680000000000000000604482015260640161044d565b42600781905560095461086e916115c1565b600381905550826008600082825461088691906115c1565b909155505060405183907fde88a922e0d3b88b24e9623efeb464919c6bf9f66857a65e2bfcf2ce87a9433d90600090a2505050565b6002600054036108dd5760405162461bcd60e51b815260040161044d906115d4565b6002600055336108eb611199565b6006556108f6610a9c565b6007556001600160a01b0381161561093d5761091181610397565b6001600160a01b0382166000908152600d6020908152604080832093909355600654600c909152919020555b336000908152600d60205260409020548015610a2e57336000908152600d6020526040812081905560088054839290610977908490611575565b90915550506002546001600160a01b031663a9059cbb336040516001600160e01b031960e084901b1681526001600160a01b039091166004820152602481018490526044016020604051808303816000875af11580156109db573d6000803e3d6000fd5b505050506040513d601f19601f820116820180604052508101906109ff919061160b565b50604051819033907fe2403640ba68fed3a2f88b7557551d1993f84b99bb10ff833f0cf8db0c5e048690600090a35b50506001600055565b6001546001600160a01b03163314610a615760405162461bcd60e51b815260040161044d9061162d565b610a6b6000611383565b565b6001546001600160a01b03163314610a975760405162461bcd60e51b815260040161044d9061162d565b600b55565b60006003544210610aae575060035490565b504290565b6001546001600160a01b03163314610add5760405162461bcd60e51b815260040161044d9061162d565b6002546001600160a01b0390811690831603610c4157806008541015610b595760405162461bcd60e51b815260206004820152602b60248201527f43616e6e6f74207769746864726177206d6f7265207468616e2072657761726460448201526a7320617661696c61626c6560a81b606482015260840161044d565b8060086000828254610b6b9190611575565b90915550506002546001600160a01b031663a9059cbb610b936001546001600160a01b031690565b6040516001600160e01b031960e084901b1681526001600160a01b039091166004820152602481018490526044016020604051808303816000875af1158015610be0573d6000803e3d6000fd5b505050506040513d601f19601f82011682018060405250810190610c04919061160b565b5060025460405182916001600160a01b0316907f8c1256b8896378cd5044f80c202f9772b9d77dc85c8a6eb51967210b09bfaa2890600090a35050565b816001600160a01b031663a9059cbb610c626001546001600160a01b031690565b6040516001600160e01b031960e084901b1681526001600160a01b039091166004820152602481018490526044016020604051808303816000875af1158015610caf573d6000803e3d6000fd5b505050506040513d601f19601f82011682018060405250810190610cd3919061160b565b5060405181906001600160a01b038416907f8c1256b8896378cd5044f80c202f9772b9d77dc85c8a6eb51967210b09bfaa2890600090a35050565b600260005403610d305760405162461bcd60e51b815260040161044d906115d4565b600260005533610d3e611199565b600655610d49610a9c565b6007556001600160a01b03811615610d9057610d6481610397565b6001600160a01b0382166000908152600d6020908152604080832093909355600654600c909152919020555b60008411610dd15760405162461bcd60e51b815260206004820152600e60248201526d043616e6e6f74207374616b6520360941b604482015260640161044d565b600b5415610e93576040516bffffffffffffffffffffffff193360601b166020820152600090603401604051602081830303815290604052805190602001209050610e5384848080602002602001604051908101604052809392919081815260200183836020028082843760009201919091525050600b5491508490506113d5565b610e915760405162461bcd60e51b815260206004820152600f60248201526e24b731b7b93932b1ba10383937b7b360891b604482015260640161044d565b505b60025484906001600160a01b031663dd62ed3e336040516001600160e01b031960e084901b1681526001600160a01b039091166004820152306024820152604401602060405180830381865afa158015610ef1573d6000803e3d6000fd5b505050506040513d601f19601f82011682018060405250810190610f159190611662565b1015610f735760405162461bcd60e51b815260206004820152602760248201527f5472616e73666572206f6620746f6b656e20686173206e6f74206265656e20616044820152661c1c1c9bdd995960ca1b606482015260840161044d565b336000908152600e60205260408120549003610fa257600160046000828254610f9c91906115c1565b90915550505b8360056000828254610fb491906115c1565b9091555050336000908152600e602052604081208054869290610fd89084906115c1565b90915550506002546001600160a01b03166323b872dd336040516001600160e01b031960e084901b1681526001600160a01b039091166004820152306024820152604481018790526064016020604051808303816000875af1158015611042573d6000803e3d6000fd5b505050506040513d601f19601f82011682018060405250810190611066919061160b565b50604051849033907f9e71bc8eea02a63969f509818f2dafb9254532904319f9dbda79b67bd34a5f3d90600090a3505060016000555050565b6001546001600160a01b031633146110c95760405162461bcd60e51b815260040161044d9061162d565b60035442116111665760405162461bcd60e51b815260206004820152605860248201527f50726576696f7573207265776172647320706572696f64206d7573742062652060448201527f636f6d706c657465206265666f7265206368616e67696e67207468652064757260648201527f6174696f6e20666f7220746865206e657720706572696f640000000000000000608482015260a40161044d565b600981905560405181907ffb46ca5a5e06d4540d6387b930a7c978bce0db5f449ec6b3f5d07c6e1d44f2d390600090a250565b60006005546000036111ac575060065490565b600554600a546007546111bd610a9c565b6111c79190611575565b6111d19190611588565b6111e390670de0b6b3a7640000611588565b6111ed919061159f565b60065461042691906115c1565b336000908152600e6020526040902054610a6b9061042b565b6001546001600160a01b0316331461123d5760405162461bcd60e51b815260040161044d9061162d565b6001600160a01b0381166112a25760405162461bcd60e51b815260206004820152602660248201527f4f776e61626c653a206e6577206f776e657220697320746865207a65726f206160448201526564647265737360d01b606482015260840161044d565b6112ab81611383565b50565b336000908152600d602052604090205480156112ab57336000818152600d60209081526040808320839055600254815163a9059cbb60e01b815260048101959095526024850186905290516001600160a01b039091169363a9059cbb93604480830194939283900301908290875af115801561132e573d6000803e3d6000fd5b505050506040513d601f19601f82011682018060405250810190611352919061160b565b50604051819033907fe2403640ba68fed3a2f88b7557551d1993f84b99bb10ff833f0cf8db0c5e048690600090a350565b600180546001600160a01b038381166001600160a01b0319831681179093556040519116919082907f8be0079c531659141344cd1fd0a4f28419497f9722a3daafe3b4186f6b6457e090600090a35050565b6000826113e285846113eb565b14949350505050565b600081815b845181101561145757600085828151811061140d5761140d61167b565b602002602001015190508083116114335760008381526020829052604090209250611444565b600081815260208490526040902092505b508061144f81611691565b9150506113f0565b509392505050565b80356001600160a01b038116811461147657600080fd5b919050565b60006020828403121561148d57600080fd5b6114968261145f565b9392505050565b6000602082840312156114af57600080fd5b5035919050565b600080604083850312156114c957600080fd5b6114d28361145f565b946020939093013593505050565b6000806000604084860312156114f557600080fd5b83359250602084013567ffffffffffffffff8082111561151457600080fd5b818601915086601f83011261152857600080fd5b81358181111561153757600080fd5b8760208260051b850101111561154c57600080fd5b6020830194508093505050509250925092565b634e487b7160e01b600052601160045260246000fd5b8181038181111561040e5761040e61155f565b808202811582820484141761040e5761040e61155f565b6000826115bc57634e487b7160e01b600052601260045260246000fd5b500490565b8082018082111561040e5761040e61155f565b6020808252601f908201527f5265656e7472616e637947756172643a207265656e7472616e742063616c6c00604082015260600190565b60006020828403121561161d57600080fd5b8151801515811461149657600080fd5b6020808252818101527f4f776e61626c653a2063616c6c6572206973206e6f7420746865206f776e6572604082015260600190565b60006020828403121561167457600080fd5b5051919050565b634e487b7160e01b600052603260045260246000fd5b6000600182016116a3576116a361155f565b506001019056fea26469706673582212200dba940b713caecb6656960771d00f13a4892baa4f964a7177cdafdd329e6d4064736f6c63430008110033",
    "linkReferences": {}
  },
  "methodIdentifiers": {
    "Token()": "c2412676",
    "balanceOf(address)": "70a08231",
    "earned(address)": "008cc262",
    "exit()": "e9fad8ee",
    "getReward()": "3d18b912",
    "getRewardForDuration()": "1c1f78eb",
    "lastTimeRewardApplicable()": "80faa57d",
    "lastUpdateTime()": "c8f33c91",
    "merkleRoot()": "2eb4a7ab",
    "notifyRewardAmount(uint256)": "3c6b16ab",
    "owner()": "8da5cb5b",
    "periodFinish()": "ebe2b12b",
    "recoverERC20(address,uint256)": "8980f11f",
    "renounceOwnership()": "715018a6",
    "rewardPerToken()": "cd3daf9d",
    "rewardPerTokenStored()": "df136d65",
    "rewardRate()": "7b0a47ee",
    "rewards(address)": "0700037d",
    "rewardsDuration()": "386a9525",
    "setMerkleRoot(bytes32)": "7cb64759",
    "setRewardsDuration(uint256)": "cc1a378f",
    "stake(uint256,bytes32[])": "a4eb3aaf",
    "totalReward()": "750142e6",
    "totalStaked()": "817b1cd2",
    "totalStakers()": "86989038",
    "transferOwnership(address)": "f2fde38b",
    "userRewardPerTokenPaid(address)": "8b876347",
    "withdraw(uint256)": "2e1a7d4d"
  },
  "id": 4
}