{
  "abi": [
    {
      "inputs": [],
      "stateMutability": "nonpayable",
      "type": "constructor"
    },
    {
      "inputs": [],
      "name": "getLatestPrice",
      "outputs": [
        {
          "internalType": "int256",
          "name": "",
          "type": "int256"
        }
      ],
      "stateMutability": "view",
      "type": "function"
    }
  ],
  "bytecode": {
    "object": "0x608060405234801561001057600080fd5b50600080546001600160a01b03191673214ed9da11d2fbe465a6fc601a91e62ebec1a0d6179055610168806100466000396000f3fe608060405234801561001057600080fd5b506004361061002b5760003560e01c80638e15f47314610030575b600080fd5b61003861004a565b60405190815260200160405180910390f35b6000805460408051633fabe5a360e21b8152905183926001600160a01b03169163feaf968c9160048083019260a09291908290030181865afa158015610094573d6000803e3d6000fd5b505050506040513d601f19601f820116820180604052508101906100b891906100e2565b509195945050505050565b805169ffffffffffffffffffff811681146100dd57600080fd5b919050565b600080600080600060a086880312156100fa57600080fd5b610103866100c3565b9450602086015193506040860151925060608601519150610126608087016100c3565b9050929550929590935056fea26469706673582212200d8df253f2363a8d6d2b2d942e9a5bf2e18c6b5918d47dbe79ef14f2b4a8364264736f6c63430008100033",
    "linkReferences": {}
  },
  "methodIdentifiers": {
    "getLatestPrice()": "8e15f473"
  },
  "id": 6
}