{
  "abi": [
    {
      "inputs": [
        {
          "internalType": "address",
          "name": "token",
          "type": "address"
        }
      ],
      "stateMutability": "nonpayable",
      "type": "constructor"
    },
    {
      "anonymous": false,
      "inputs": [
        {
          "indexed": true,
          "internalType": "address",
          "name": "previousOwner",
          "type": "address"
        },
        {
          "indexed": true,
          "internalType": "address",
          "name": "newOwner",
          "type": "address"
        }
      ],
      "name": "OwnershipTransferred",
      "type": "event"
    },
    {
      "anonymous": false,
      "inputs": [
        {
          "indexed": false,
          "internalType": "address",
          "name": "reciever",
          "type": "address"
        },
        {
          "indexed": false,
          "internalType": "uint256",
          "name": "amount",
          "type": "uint256"
        }
      ],
      "name": "RewardWithdraw",
      "type": "event"
    },
    {
      "inputs": [],
      "name": "ReleaseDate",
      "outputs": [
        {
          "internalType": "uint256",
          "name": "",
          "type": "uint256"
        }
      ],
      "stateMutability": "view",
      "type": "function"
    },
    {
      "inputs": [
        {
          "internalType": "address",
          "name": "",
          "type": "address"
        }
      ],
      "name": "RewardAmountClaimed",
      "outputs": [
        {
          "internalType": "uint256",
          "name": "",
          "type": "uint256"
        }
      ],
      "stateMutability": "view",
      "type": "function"
    },
    {
      "inputs": [],
      "name": "RewardToken",
      "outputs": [
        {
          "internalType": "contract IERC20",
          "name": "",
          "type": "address"
        }
      ],
      "stateMutability": "view",
      "type": "function"
    },
    {
      "inputs": [],
      "name": "merkleRoot",
      "outputs": [
        {
          "internalType": "bytes32",
          "name": "",
          "type": "bytes32"
        }
      ],
      "stateMutability": "view",
      "type": "function"
    },
    {
      "inputs": [],
      "name": "owner",
      "outputs": [
        {
          "internalType": "address",
          "name": "",
          "type": "address"
        }
      ],
      "stateMutability": "view",
      "type": "function"
    },
    {
      "inputs": [],
      "name": "renounceOwnership",
      "outputs": [],
      "stateMutability": "nonpayable",
      "type": "function"
    },
    {
      "inputs": [
        {
          "internalType": "bytes32",
          "name": "root",
          "type": "bytes32"
        }
      ],
      "name": "setMerkleRoot",
      "outputs": [],
      "stateMutability": "nonpayable",
      "type": "function"
    },
    {
      "inputs": [
        {
          "internalType": "uint256",
          "name": "releaseDate",
          "type": "uint256"
        }
      ],
      "name": "setReleaseDate",
      "outputs": [],
      "stateMutability": "nonpayable",
      "type": "function"
    },
    {
      "inputs": [
        {
          "internalType": "address",
          "name": "newOwner",
          "type": "address"
        }
      ],
      "name": "transferOwnership",
      "outputs": [],
      "stateMutability": "nonpayable",
      "type": "function"
    },
    {
      "inputs": [
        {
          "internalType": "uint256",
          "name": "amount",
          "type": "uint256"
        },
        {
          "internalType": "bytes32[]",
          "name": "_merkleProof",
          "type": "bytes32[]"
        }
      ],
      "name": "withdraw",
      "outputs": [],
      "stateMutability": "nonpayable",
      "type": "function"
    }
  ],
  "bytecode": {
    "object": "0x6080604052600060025534801561001557600080fd5b50604051610b2e380380610b2e833981016040819052610034916100b9565b600160005561004233610067565b600380546001600160a01b0319166001600160a01b03929092169190911790556100e9565b600180546001600160a01b038381166001600160a01b0319831681179093556040519116919082907f8be0079c531659141344cd1fd0a4f28419497f9722a3daafe3b4186f6b6457e090600090a35050565b6000602082840312156100cb57600080fd5b81516001600160a01b03811681146100e257600080fd5b9392505050565b610a36806100f86000396000f3fe608060405234801561001057600080fd5b506004361061009e5760003560e01c80638cf49cad116100665780638cf49cad146101025780638da5cb5b1461010b578063cb4d650314610130578063f1e9f1e514610150578063f2fde38b1461016357600080fd5b80631352faec146100a35780632eb4a7ab146100b857806336317972146100d4578063715018a6146100e75780637cb64759146100ef575b600080fd5b6100b66100b1366004610824565b610176565b005b6100c160025481565b6040519081526020015b60405180910390f35b6100b66100e236600461083d565b6101ae565b6100b6610646565b6100b66100fd366004610824565b61067c565b6100c160045481565b6001546001600160a01b03165b6040516001600160a01b0390911681526020016100cb565b6100c161013e3660046108bc565b60056020526000908152604090205481565b600354610118906001600160a01b031681565b6100b66101713660046108bc565b6106ab565b6001546001600160a01b031633146101a95760405162461bcd60e51b81526004016101a0906108ec565b60405180910390fd5b600455565b6002600054036102005760405162461bcd60e51b815260206004820152601f60248201527f5265656e7472616e637947756172643a207265656e7472616e742063616c6c0060448201526064016101a0565b60026000556003546040516370a0823160e01b815230600482015284916001600160a01b0316906370a0823190602401602060405180830381865afa15801561024d573d6000803e3d6000fd5b505050506040513d601f19601f820116820180604052508101906102719190610921565b10156102b75760405162461bcd60e51b8152602060048201526015602482015274139bdd08195b9bdd59da08199d5b991cc81b19599d605a1b60448201526064016101a0565b6002546000036102ff5760405162461bcd60e51b81526020600482015260136024820152721b595c9adb19481c9bdbdd081b9bdd081cd95d606a1b60448201526064016101a0565b6040516bffffffffffffffffffffffff193360601b16602082015260348101849052600090605401604051602081830303815290604052805190602001209050610380838380806020026020016040519081016040528093929190818152602001838360200280828437600092019190915250506002549150849050610746565b6103be5760405162461bcd60e51b815260206004820152600f60248201526e24b731b7b93932b1ba10383937b7b360891b60448201526064016101a0565b33600090815260056020526040902054841161041c5760405162461bcd60e51b815260206004820152601c60248201527f546f74616c20616d6f756e7420616c726561647920636c61696d65640000000060448201526064016101a0565b6004541580159061042e575042600454105b61047a5760405162461bcd60e51b815260206004820152601c60248201527f52656c6561736520686173206e6f74207374617274656420796574210000000060448201526064016101a0565b60006004544261048a9190610950565b9050600061049b62278d0083610963565b9050600060128211156104ad57601291505b60005b82811015610526578015806104c55750806001145b156104f1576104d5606489610963565b6104e090600a610985565b6104ea908361099c565b9150610514565b6104fc606489610963565b610507906005610985565b610511908361099c565b91505b8061051e816109af565b9150506104b0565b50801561063857336000908152600560205260409020546105479082610950565b3360009081526005602052604081208054929350839290919061056b90849061099c565b90915550506003546001600160a01b031663a9059cbb336040516001600160e01b031960e084901b1681526001600160a01b039091166004820152602481018490526044016020604051808303816000875af11580156105cf573d6000803e3d6000fd5b505050506040513d601f19601f820116820180604052508101906105f391906109c8565b507f6553897c25961cd3a105492c25576d0552123ee868aca283e90f3b4224d7d17733604080516001600160a01b039092168252602082018490520160405180910390a15b505060016000555050505050565b6001546001600160a01b031633146106705760405162461bcd60e51b81526004016101a0906108ec565b61067a600061075c565b565b6001546001600160a01b031633146106a65760405162461bcd60e51b81526004016101a0906108ec565b600255565b6001546001600160a01b031633146106d55760405162461bcd60e51b81526004016101a0906108ec565b6001600160a01b03811661073a5760405162461bcd60e51b815260206004820152602660248201527f4f776e61626c653a206e6577206f776e657220697320746865207a65726f206160448201526564647265737360d01b60648201526084016101a0565b6107438161075c565b50565b60008261075385846107ae565b14949350505050565b600180546001600160a01b038381166001600160a01b0319831681179093556040519116919082907f8be0079c531659141344cd1fd0a4f28419497f9722a3daafe3b4186f6b6457e090600090a35050565b600081815b845181101561081a5760008582815181106107d0576107d06109ea565b602002602001015190508083116107f65760008381526020829052604090209250610807565b600081815260208490526040902092505b5080610812816109af565b9150506107b3565b5090505b92915050565b60006020828403121561083657600080fd5b5035919050565b60008060006040848603121561085257600080fd5b83359250602084013567ffffffffffffffff8082111561087157600080fd5b818601915086601f83011261088557600080fd5b81358181111561089457600080fd5b8760208260051b85010111156108a957600080fd5b6020830194508093505050509250925092565b6000602082840312156108ce57600080fd5b81356001600160a01b03811681146108e557600080fd5b9392505050565b6020808252818101527f4f776e61626c653a2063616c6c6572206973206e6f7420746865206f776e6572604082015260600190565b60006020828403121561093357600080fd5b5051919050565b634e487b7160e01b600052601160045260246000fd5b8181038181111561081e5761081e61093a565b60008261098057634e487b7160e01b600052601260045260246000fd5b500490565b808202811582820484141761081e5761081e61093a565b8082018082111561081e5761081e61093a565b6000600182016109c1576109c161093a565b5060010190565b6000602082840312156109da57600080fd5b815180151581146108e557600080fd5b634e487b7160e01b600052603260045260246000fdfea2646970667358221220d87520e9a1670f64b0646d7b1a124658bf2b37a51e3da7ec7183e73a25a8951664736f6c63430008110033",
    "linkReferences": {}
  },
  "methodIdentifiers": {
    "ReleaseDate()": "8cf49cad",
    "RewardAmountClaimed(address)": "cb4d6503",
    "RewardToken()": "f1e9f1e5",
    "merkleRoot()": "2eb4a7ab",
    "owner()": "8da5cb5b",
    "renounceOwnership()": "715018a6",
    "setMerkleRoot(bytes32)": "7cb64759",
    "setReleaseDate(uint256)": "1352faec",
    "transferOwnership(address)": "f2fde38b",
    "withdraw(uint256,bytes32[])": "36317972"
  },
  "id": 1
}