{
  "abi": [
    {
      "inputs": [
        {
          "internalType": "uint256",
          "name": "endDate",
          "type": "uint256"
        },
        {
          "internalType": "uint256",
          "name": "windowStart",
          "type": "uint256"
        },
        {
          "internalType": "uint256",
          "name": "windowEnd",
          "type": "uint256"
        },
        {
          "internalType": "uint256",
          "name": "baseFee",
          "type": "uint256"
        },
        {
          "internalType": "uint256",
          "name": "penaltyFee",
          "type": "uint256"
        }
      ],
      "stateMutability": "nonpayable",
      "type": "constructor"
    },
    {
      "anonymous": false,
      "inputs": [
        {
          "indexed": true,
          "internalType": "address",
          "name": "previousOwner",
          "type": "address"
        },
        {
          "indexed": true,
          "internalType": "address",
          "name": "newOwner",
          "type": "address"
        }
      ],
      "name": "OwnershipTransferred",
      "type": "event"
    },
    {
      "anonymous": false,
      "inputs": [
        {
          "indexed": true,
          "internalType": "uint256",
          "name": "_id",
          "type": "uint256"
        },
        {
          "indexed": true,
          "internalType": "uint256",
          "name": "_timestamp",
          "type": "uint256"
        },
        {
          "indexed": false,
          "internalType": "uint256",
          "name": "_windowStartDate",
          "type": "uint256"
        },
        {
          "indexed": false,
          "internalType": "uint256",
          "name": "_windowEndDate",
          "type": "uint256"
        },
        {
          "indexed": false,
          "internalType": "uint256",
          "name": "_poolEndDate",
          "type": "uint256"
        },
        {
          "indexed": false,
          "internalType": "address",
          "name": "_staker",
          "type": "address"
        },
        {
          "indexed": false,
          "internalType": "address",
          "name": "_token",
          "type": "address"
        },
        {
          "indexed": false,
          "internalType": "uint256",
          "name": "_amount",
          "type": "uint256"
        },
        {
          "indexed": false,
          "internalType": "uint256",
          "name": "_decimals",
          "type": "uint256"
        }
      ],
      "name": "Staked",
      "type": "event"
    },
    {
      "anonymous": false,
      "inputs": [
        {
          "indexed": true,
          "internalType": "uint256",
          "name": "_id",
          "type": "uint256"
        },
        {
          "indexed": true,
          "internalType": "uint256",
          "name": "_timestamp",
          "type": "uint256"
        }
      ],
      "name": "UnStaked",
      "type": "event"
    },
    {
      "inputs": [],
      "name": "BaseFee",
      "outputs": [
        {
          "internalType": "uint256",
          "name": "",
          "type": "uint256"
        }
      ],
      "stateMutability": "view",
      "type": "function"
    },
    {
      "inputs": [],
      "name": "LastId",
      "outputs": [
        {
          "internalType": "uint256",
          "name": "",
          "type": "uint256"
        }
      ],
      "stateMutability": "view",
      "type": "function"
    },
    {
      "inputs": [],
      "name": "PenaltyFee",
      "outputs": [
        {
          "internalType": "uint256",
          "name": "",
          "type": "uint256"
        }
      ],
      "stateMutability": "view",
      "type": "function"
    },
    {
      "inputs": [],
      "name": "PoolEndDate",
      "outputs": [
        {
          "internalType": "uint256",
          "name": "",
          "type": "uint256"
        }
      ],
      "stateMutability": "view",
      "type": "function"
    },
    {
      "inputs": [
        {
          "internalType": "uint256",
          "name": "",
          "type": "uint256"
        }
      ],
      "name": "StakeEntries",
      "outputs": [
        {
          "internalType": "address",
          "name": "Staker",
          "type": "address"
        },
        {
          "internalType": "address",
          "name": "TokenAddress",
          "type": "address"
        },
        {
          "internalType": "uint256",
          "name": "Amount",
          "type": "uint256"
        },
        {
          "internalType": "enum State",
          "name": "State",
          "type": "uint8"
        },
        {
          "internalType": "uint256",
          "name": "EntryTime",
          "type": "uint256"
        },
        {
          "internalType": "uint256",
          "name": "PeriodFinish",
          "type": "uint256"
        }
      ],
      "stateMutability": "view",
      "type": "function"
    },
    {
      "inputs": [
        {
          "internalType": "address",
          "name": "",
          "type": "address"
        },
        {
          "internalType": "uint256",
          "name": "",
          "type": "uint256"
        }
      ],
      "name": "StakeEntryIds",
      "outputs": [
        {
          "internalType": "uint256",
          "name": "",
          "type": "uint256"
        }
      ],
      "stateMutability": "view",
      "type": "function"
    },
    {
      "inputs": [],
      "name": "WindowEnd",
      "outputs": [
        {
          "internalType": "uint256",
          "name": "",
          "type": "uint256"
        }
      ],
      "stateMutability": "view",
      "type": "function"
    },
    {
      "inputs": [],
      "name": "WindowStart",
      "outputs": [
        {
          "internalType": "uint256",
          "name": "",
          "type": "uint256"
        }
      ],
      "stateMutability": "view",
      "type": "function"
    },
    {
      "inputs": [
        {
          "internalType": "uint256",
          "name": "_id",
          "type": "uint256"
        }
      ],
      "name": "getStakeEntry",
      "outputs": [
        {
          "components": [
            {
              "internalType": "address",
              "name": "Staker",
              "type": "address"
            },
            {
              "internalType": "address",
              "name": "TokenAddress",
              "type": "address"
            },
            {
              "internalType": "uint256",
              "name": "Amount",
              "type": "uint256"
            },
            {
              "internalType": "enum State",
              "name": "State",
              "type": "uint8"
            },
            {
              "internalType": "uint256",
              "name": "EntryTime",
              "type": "uint256"
            },
            {
              "internalType": "uint256",
              "name": "PeriodFinish",
              "type": "uint256"
            }
          ],
          "internalType": "struct StakeEntry",
          "name": "",
          "type": "tuple"
        }
      ],
      "stateMutability": "view",
      "type": "function"
    },
    {
      "inputs": [],
      "name": "owner",
      "outputs": [
        {
          "internalType": "address",
          "name": "",
          "type": "address"
        }
      ],
      "stateMutability": "view",
      "type": "function"
    },
    {
      "inputs": [],
      "name": "renounceOwnership",
      "outputs": [],
      "stateMutability": "nonpayable",
      "type": "function"
    },
    {
      "inputs": [
        {
          "internalType": "uint256",
          "name": "baseFee",
          "type": "uint256"
        }
      ],
      "name": "setBaseFee",
      "outputs": [],
      "stateMutability": "nonpayable",
      "type": "function"
    },
    {
      "inputs": [
        {
          "internalType": "uint256",
          "name": "penaltyFee",
          "type": "uint256"
        }
      ],
      "name": "setPenaltyFee",
      "outputs": [],
      "stateMutability": "nonpayable",
      "type": "function"
    },
    {
      "inputs": [
        {
          "internalType": "uint256",
          "name": "endDate",
          "type": "uint256"
        }
      ],
      "name": "setPoolEndDate",
      "outputs": [],
      "stateMutability": "nonpayable",
      "type": "function"
    },
    {
      "inputs": [
        {
          "internalType": "uint256",
          "name": "endDate",
          "type": "uint256"
        }
      ],
      "name": "setWindowEnd",
      "outputs": [],
      "stateMutability": "nonpayable",
      "type": "function"
    },
    {
      "inputs": [
        {
          "internalType": "uint256",
          "name": "startDate",
          "type": "uint256"
        }
      ],
      "name": "setWindowStart",
      "outputs": [],
      "stateMutability": "nonpayable",
      "type": "function"
    },
    {
      "inputs": [
        {
          "internalType": "address",
          "name": "stakingTokenAddress",
          "type": "address"
        }
      ],
      "name": "stake",
      "outputs": [],
      "stateMutability": "nonpayable",
      "type": "function"
    },
    {
      "inputs": [
        {
          "internalType": "address",
          "name": "_address",
          "type": "address"
        }
      ],
      "name": "stakeEntryIdsFullMapping",
      "outputs": [
        {
          "internalType": "uint256[]",
          "name": "",
          "type": "uint256[]"
        }
      ],
      "stateMutability": "view",
      "type": "function"
    },
    {
      "inputs": [
        {
          "internalType": "address",
          "name": "newOwner",
          "type": "address"
        }
      ],
      "name": "transferOwnership",
      "outputs": [],
      "stateMutability": "nonpayable",
      "type": "function"
    },
    {
      "inputs": [
        {
          "internalType": "uint256",
          "name": "id",
          "type": "uint256"
        }
      ],
      "name": "unStake",
      "outputs": [],
      "stateMutability": "nonpayable",
      "type": "function"
    }
  ],
  "bytecode": {
    "object": "0x608060405234801561001057600080fd5b5060405161151738038061151783398101604081905261002f916100a9565b600160005561003d33610057565b6005949094556006556007929092556008556009556100e9565b600180546001600160a01b038381166001600160a01b0319831681179093556040519116919082907f8be0079c531659141344cd1fd0a4f28419497f9722a3daafe3b4186f6b6457e090600090a35050565b600080600080600060a086880312156100c157600080fd5b5050835160208501516040860151606087015160809097015192989197509594509092509050565b61141f806100f86000396000f3fe608060405234801561001057600080fd5b506004361061012c5760003560e01c80636f9e15cc116100ad578063a258ca5c11610071578063a258ca5c14610248578063de8ad047146102b0578063ee85b50c146102c3578063f05f2e41146102d6578063f2fde38b146102df57600080fd5b80636f9e15cc14610200578063715018a614610209578063735f9256146102115780638da5cb5b1461021a578063995dc0c51461023557600080fd5b806346860698116100f4578063468606981461019e57806347f758d6146101b157806358f3c78a146101c45780635d3eea91146101e457806364e36725146101f757600080fd5b806310c4f434146101315780631544e65214610146578063193cf2bf1461016257806326476204146101825780632b31f2a114610195575b600080fd5b61014461013f3660046110f3565b6102f2565b005b61014f60065481565b6040519081526020015b60405180910390f35b6101756101703660046110f3565b61032a565b6040516101599190611144565b6101446101903660046111b8565b61045e565b61014f60095481565b6101446101ac3660046110f3565b6109ab565b6101446101bf3660046110f3565b6109da565b6101d76101d23660046111b8565b610a2a565b60405161015991906111da565b6101446101f23660046110f3565b610a96565b61014f60085481565b61014f60045481565b610144610dde565b61014f60075481565b6001546040516001600160a01b039091168152602001610159565b6101446102433660046110f3565b610e14565b61029e6102563660046110f3565b60026020819052600091825260409091208054600182015492820154600383015460048401546005909401546001600160a01b039384169590931693919260ff909116919086565b6040516101599695949392919061121e565b6101446102be3660046110f3565b610eb0565b61014f6102d136600461125e565b610fd5565b61014f60055481565b6101446102ed3660046111b8565b611006565b6001546001600160a01b031633146103255760405162461bcd60e51b815260040161031c90611288565b60405180910390fd5b600755565b6103636040805160c081018252600080825260208201819052918101829052906060820190815260200160008152602001600081525090565b6000828152600260205260409020546001600160a01b031633146103c95760405162461bcd60e51b815260206004820152601e60248201527f6e6f7420616c6c6f77656420746f2076696577207468697320656e7472790000604482015260640161031c565b600082815260026020818152604092839020835160c08101855281546001600160a01b0390811682526001808401549091169382019390935292810154938301939093526003830154919291606084019160ff9091169081111561042f5761042f61110c565b60018111156104405761044061110c565b81526004820154602082015260059091015460409091015292915050565b6002600054036104b05760405162461bcd60e51b815260206004820152601f60248201527f5265656e7472616e637947756172643a207265656e7472616e742063616c6c00604482015260640161031c565b600260009081556001600160a01b0382166370a08231336040516001600160e01b031960e084901b1681526001600160a01b039091166004820152602401602060405180830381865afa15801561050b573d6000803e3d6000fd5b505050506040513d601f19601f8201168201806040525081019061052f91906112bd565b9050806001600160a01b03831663dd62ed3e336040516001600160e01b031960e084901b1681526001600160a01b039091166004820152306024820152604401602060405180830381865afa15801561058c573d6000803e3d6000fd5b505050506040513d601f19601f820116820180604052508101906105b091906112bd565b10156105f25760405162461bcd60e51b8152602060048201526011602482015270105b1b1bddd85b98d9481b9bdd081cd95d607a1b604482015260640161031c565b60085442116106435760405162461bcd60e51b815260206004820152601960248201527f43616e6e6f74207374616b65206265666f726520737461727400000000000000604482015260640161031c565b600954421061068d5760405162461bcd60e51b815260206004820152601660248201527510d85b9b9bdd081cdd185ad94818599d195c88195b9960521b604482015260640161031c565b6001600460008282546106a091906112ec565b90915550506004805460009081526002602090815260408083208054336001600160a01b0319918216811790925585548552828520600190810180546001600160a01b038b16931683179055865486528386206003908101805460ff191690558754875284872042908901556005805489548952868920909101559286529184528285208654815493840182559086528486209092019190915581516370a0823160e01b815230958101959095529051929390926370a08231926024808401939192918290030181865afa15801561077c573d6000803e3d6000fd5b505050506040513d601f19601f820116820180604052508101906107a091906112bd565b90506001600160a01b0383166323b872dd336040516001600160e01b031960e084901b1681526001600160a01b039091166004820152306024820152604481018590526064016020604051808303816000875af1158015610805573d6000803e3d6000fd5b505050506040513d601f19601f820116820180604052508101906108299190611305565b506040516370a0823160e01b81523060048201526000906001600160a01b038516906370a0823190602401602060405180830381865afa158015610871573d6000803e3d6000fd5b505050506040513d601f19601f8201168201806040525081019061089591906112bd565b905060006108a38383611327565b90508060026000600454815260200190815260200160002060020181905550426004547f4dc8c65a76096a103dedd54acb7fd47ae3a5d006a4f437a441de171a60826b0f6008546009546005546108f73390565b8b888d6001600160a01b031663313ce5676040518163ffffffff1660e01b8152600401602060405180830381865afa158015610937573d6000803e3d6000fd5b505050506040513d601f19601f8201168201806040525081019061095b919061133a565b604080519788526020880196909652948601939093526001600160a01b03918216606086015216608084015260a083015260ff1660c082015260e00160405180910390a350506001600055505050565b6001546001600160a01b031633146109d55760405162461bcd60e51b815260040161031c90611288565b600655565b6001546001600160a01b03163314610a045760405162461bcd60e51b815260040161031c90611288565b6008548111610a255760405162461bcd60e51b815260040161031c9061135d565b600855565b6001600160a01b038116600090815260036020908152604091829020805483518184028101840190945280845260609392830182828015610a8a57602002820191906000526020600020905b815481526020019060010190808311610a76575b50505050509050919050565b600260005403610ae85760405162461bcd60e51b815260206004820152601f60248201527f5265656e7472616e637947756172643a207265656e7472616e742063616c6c00604482015260640161031c565b6002600081815582815260209190915260409020546001600160a01b03163314610b5e5760405162461bcd60e51b815260206004820152602160248201527f6e6f7420616c6c6f77656420746f20756e7374616b65207468697320656e74726044820152607960f81b606482015260840161031c565b60008181526002602052604081206003015460ff166001811115610b8457610b8461110c565b14610bc45760405162461bcd60e51b815260206004820152601060248201526f185b1c9958591e481d5b9cdd185ad95960821b604482015260640161031c565b6006546000828152600260208190526040822001549091606491610be891906113b0565b610bf291906113c7565b600454600090815260026020526040902060050154909150421015610c405760075460008381526002602081905260409091200154606491610c33916113b0565b610c3d91906113c7565b90505b600082815260026020819052604082200154610c5d908390611327565b600084815260026020526040902060038101805460ff1916600190811790915501549091506001600160a01b031663a9059cbb336040516001600160e01b031960e084901b1681526001600160a01b039091166004820152602481018490526044016020604051808303816000875af1158015610cde573d6000803e3d6000fd5b505050506040513d601f19601f82011682018060405250810190610d029190611305565b506000838152600260205260409020600101546001600160a01b031663a9059cbb610d356001546001600160a01b031690565b6040516001600160e01b031960e084901b1681526001600160a01b039091166004820152602481018590526044016020604051808303816000875af1158015610d82573d6000803e3d6000fd5b505050506040513d601f19601f82011682018060405250810190610da69190611305565b50604051429084907f69f6d6e6926b6914c628cca5ab19879a4099facaba2b44626e07d8e38ebd189b90600090a35050600160005550565b6001546001600160a01b03163314610e085760405162461bcd60e51b815260040161031c90611288565b610e1260006110a1565b565b6001546001600160a01b03163314610e3e5760405162461bcd60e51b815260040161031c90611288565b6005548111610eab5760405162461bcd60e51b815260206004820152603360248201527f63616e6e6f742073657420746f20612064617465206265666f7265207468652060448201527263757272656e7420506f6f6c456e644461746560681b606482015260840161031c565b600555565b6001546001600160a01b03163314610eda5760405162461bcd60e51b815260040161031c90611288565b428111610ef95760405162461bcd60e51b815260040161031c9061135d565b6009548111610f645760405162461bcd60e51b815260206004820152603160248201527f63616e6e6f742073657420746f20612064617465206265666f7265207468652060448201527018dd5c9c995b9d0815da5b991bddd15b99607a1b606482015260840161031c565b6005548110610fd05760405162461bcd60e51b815260206004820152603260248201527f63616e6e6f742073657420746f20612064617465206166746572207468652063604482015271757272656e7420506f6f6c456e644461746560701b606482015260840161031c565b600955565b60036020528160005260406000208181548110610ff157600080fd5b90600052602060002001600091509150505481565b6001546001600160a01b031633146110305760405162461bcd60e51b815260040161031c90611288565b6001600160a01b0381166110955760405162461bcd60e51b815260206004820152602660248201527f4f776e61626c653a206e6577206f776e657220697320746865207a65726f206160448201526564647265737360d01b606482015260840161031c565b61109e816110a1565b50565b600180546001600160a01b038381166001600160a01b0319831681179093556040519116919082907f8be0079c531659141344cd1fd0a4f28419497f9722a3daafe3b4186f6b6457e090600090a35050565b60006020828403121561110557600080fd5b5035919050565b634e487b7160e01b600052602160045260246000fd5b6002811061114057634e487b7160e01b600052602160045260246000fd5b9052565b81516001600160a01b039081168252602080840151909116908201526040808301519082015260608083015160c083019161118190840182611122565b506080830151608083015260a083015160a083015292915050565b80356001600160a01b03811681146111b357600080fd5b919050565b6000602082840312156111ca57600080fd5b6111d38261119c565b9392505050565b6020808252825182820181905260009190848201906040850190845b81811015611212578351835292840192918401916001016111f6565b50909695505050505050565b6001600160a01b038781168252861660208201526040810185905260c0810161124a6060830186611122565b608082019390935260a00152949350505050565b6000806040838503121561127157600080fd5b61127a8361119c565b946020939093013593505050565b6020808252818101527f4f776e61626c653a2063616c6c6572206973206e6f7420746865206f776e6572604082015260600190565b6000602082840312156112cf57600080fd5b5051919050565b634e487b7160e01b600052601160045260246000fd5b808201808211156112ff576112ff6112d6565b92915050565b60006020828403121561131757600080fd5b815180151581146111d357600080fd5b818103818111156112ff576112ff6112d6565b60006020828403121561134c57600080fd5b815160ff811681146111d357600080fd5b60208082526033908201527f63616e6e6f742073657420746f20612064617465206265666f7265207468652060408201527218dd5c9c995b9d0815da5b991bddd4dd185c9d606a1b606082015260800190565b80820281158282048414176112ff576112ff6112d6565b6000826113e457634e487b7160e01b600052601260045260246000fd5b50049056fea2646970667358221220f48fb91eb6c033eaa33b7935e2030429f501ed48621818aa11188fc19c56ced964736f6c63430008110033",
    "linkReferences": {}
  },
  "methodIdentifiers": {
    "BaseFee()": "1544e652",
    "LastId()": "6f9e15cc",
    "PenaltyFee()": "735f9256",
    "PoolEndDate()": "f05f2e41",
    "StakeEntries(uint256)": "a258ca5c",
    "StakeEntryIds(address,uint256)": "ee85b50c",
    "WindowEnd()": "2b31f2a1",
    "WindowStart()": "64e36725",
    "getStakeEntry(uint256)": "193cf2bf",
    "owner()": "8da5cb5b",
    "renounceOwnership()": "715018a6",
    "setBaseFee(uint256)": "46860698",
    "setPenaltyFee(uint256)": "10c4f434",
    "setPoolEndDate(uint256)": "995dc0c5",
    "setWindowEnd(uint256)": "de8ad047",
    "setWindowStart(uint256)": "47f758d6",
    "stake(address)": "26476204",
    "stakeEntryIdsFullMapping(address)": "58f3c78a",
    "transferOwnership(address)": "f2fde38b",
    "unStake(uint256)": "5d3eea91"
  },
  "id": 1
}