{
  "abi": [
    {
      "inputs": [],
      "stateMutability": "nonpayable",
      "type": "constructor"
    },
    {
      "anonymous": false,
      "inputs": [
        {
          "indexed": true,
          "internalType": "address",
          "name": "owner",
          "type": "address"
        },
        {
          "indexed": true,
          "internalType": "address",
          "name": "spender",
          "type": "address"
        },
        {
          "indexed": false,
          "internalType": "uint256",
          "name": "value",
          "type": "uint256"
        }
      ],
      "name": "Approval",
      "type": "event"
    },
    {
      "anonymous": false,
      "inputs": [
        {
          "indexed": true,
          "internalType": "address",
          "name": "previousOwner",
          "type": "address"
        },
        {
          "indexed": true,
          "internalType": "address",
          "name": "newOwner",
          "type": "address"
        }
      ],
      "name": "OwnershipTransferred",
      "type": "event"
    },
    {
      "anonymous": false,
      "inputs": [
        {
          "indexed": true,
          "internalType": "address",
          "name": "from",
          "type": "address"
        },
        {
          "indexed": true,
          "internalType": "address",
          "name": "to",
          "type": "address"
        },
        {
          "indexed": false,
          "internalType": "uint256",
          "name": "value",
          "type": "uint256"
        }
      ],
      "name": "Transfer",
      "type": "event"
    },
    {
      "inputs": [
        {
          "internalType": "address",
          "name": "owner",
          "type": "address"
        },
        {
          "internalType": "address",
          "name": "spender",
          "type": "address"
        }
      ],
      "name": "allowance",
      "outputs": [
        {
          "internalType": "uint256",
          "name": "",
          "type": "uint256"
        }
      ],
      "stateMutability": "view",
      "type": "function"
    },
    {
      "inputs": [
        {
          "internalType": "address",
          "name": "spender",
          "type": "address"
        },
        {
          "internalType": "uint256",
          "name": "amount",
          "type": "uint256"
        }
      ],
      "name": "approve",
      "outputs": [
        {
          "internalType": "bool",
          "name": "",
          "type": "bool"
        }
      ],
      "stateMutability": "nonpayable",
      "type": "function"
    },
    {
      "inputs": [
        {
          "internalType": "address",
          "name": "account",
          "type": "address"
        }
      ],
      "name": "balanceOf",
      "outputs": [
        {
          "internalType": "uint256",
          "name": "",
          "type": "uint256"
        }
      ],
      "stateMutability": "view",
      "type": "function"
    },
    {
      "inputs": [],
      "name": "decimals",
      "outputs": [
        {
          "internalType": "uint8",
          "name": "",
          "type": "uint8"
        }
      ],
      "stateMutability": "pure",
      "type": "function"
    },
    {
      "inputs": [
        {
          "internalType": "address",
          "name": "spender",
          "type": "address"
        },
        {
          "internalType": "uint256",
          "name": "subtractedValue",
          "type": "uint256"
        }
      ],
      "name": "decreaseAllowance",
      "outputs": [
        {
          "internalType": "bool",
          "name": "",
          "type": "bool"
        }
      ],
      "stateMutability": "nonpayable",
      "type": "function"
    },
    {
      "inputs": [
        {
          "internalType": "address",
          "name": "spender",
          "type": "address"
        },
        {
          "internalType": "uint256",
          "name": "addedValue",
          "type": "uint256"
        }
      ],
      "name": "increaseAllowance",
      "outputs": [
        {
          "internalType": "bool",
          "name": "",
          "type": "bool"
        }
      ],
      "stateMutability": "nonpayable",
      "type": "function"
    },
    {
      "inputs": [],
      "name": "liquidityStakingAddress",
      "outputs": [
        {
          "internalType": "address",
          "name": "",
          "type": "address"
        }
      ],
      "stateMutability": "view",
      "type": "function"
    },
    {
      "inputs": [
        {
          "internalType": "address",
          "name": "to",
          "type": "address"
        },
        {
          "internalType": "uint256",
          "name": "amount",
          "type": "uint256"
        }
      ],
      "name": "mint",
      "outputs": [
        {
          "internalType": "bool",
          "name": "",
          "type": "bool"
        }
      ],
      "stateMutability": "nonpayable",
      "type": "function"
    },
    {
      "inputs": [],
      "name": "name",
      "outputs": [
        {
          "internalType": "string",
          "name": "",
          "type": "string"
        }
      ],
      "stateMutability": "view",
      "type": "function"
    },
    {
      "inputs": [],
      "name": "owner",
      "outputs": [
        {
          "internalType": "address",
          "name": "",
          "type": "address"
        }
      ],
      "stateMutability": "view",
      "type": "function"
    },
    {
      "inputs": [],
      "name": "renounceOwnership",
      "outputs": [],
      "stateMutability": "nonpayable",
      "type": "function"
    },
    {
      "inputs": [
        {
          "internalType": "address",
          "name": "liqStaking",
          "type": "address"
        }
      ],
      "name": "setLiqStakingAddress",
      "outputs": [],
      "stateMutability": "nonpayable",
      "type": "function"
    },
    {
      "inputs": [
        {
          "internalType": "uint256",
          "name": "amount",
          "type": "uint256"
        },
        {
          "internalType": "address",
          "name": "liquidityProvider",
          "type": "address"
        }
      ],
      "name": "stakeMint",
      "outputs": [],
      "stateMutability": "nonpayable",
      "type": "function"
    },
    {
      "inputs": [],
      "name": "symbol",
      "outputs": [
        {
          "internalType": "string",
          "name": "",
          "type": "string"
        }
      ],
      "stateMutability": "view",
      "type": "function"
    },
    {
      "inputs": [],
      "name": "totalSupply",
      "outputs": [
        {
          "internalType": "uint256",
          "name": "",
          "type": "uint256"
        }
      ],
      "stateMutability": "view",
      "type": "function"
    },
    {
      "inputs": [
        {
          "internalType": "address",
          "name": "to",
          "type": "address"
        },
        {
          "internalType": "uint256",
          "name": "amount",
          "type": "uint256"
        }
      ],
      "name": "transfer",
      "outputs": [
        {
          "internalType": "bool",
          "name": "",
          "type": "bool"
        }
      ],
      "stateMutability": "nonpayable",
      "type": "function"
    },
    {
      "inputs": [
        {
          "internalType": "address",
          "name": "from",
          "type": "address"
        },
        {
          "internalType": "address",
          "name": "to",
          "type": "address"
        },
        {
          "internalType": "uint256",
          "name": "amount",
          "type": "uint256"
        }
      ],
      "name": "transferFrom",
      "outputs": [
        {
          "internalType": "bool",
          "name": "",
          "type": "bool"
        }
      ],
      "stateMutability": "nonpayable",
      "type": "function"
    },
    {
      "inputs": [
        {
          "internalType": "address",
          "name": "newOwner",
          "type": "address"
        }
      ],
      "name": "transferOwnership",
      "outputs": [],
      "stateMutability": "nonpayable",
      "type": "function"
    }
  ],
  "bytecode": {
    "object": "0x60806040523480156200001157600080fd5b5060408051808201825260058082526423a1a7a4a760d91b60208084018290528451808601909552918452908301529060036200004f83826200017c565b5060046200005e82826200017c565b5050506200007b620000756200008160201b60201c565b62000085565b62000248565b3390565b600580546001600160a01b038381166001600160a01b0319831681179093556040519116919082907f8be0079c531659141344cd1fd0a4f28419497f9722a3daafe3b4186f6b6457e090600090a35050565b634e487b7160e01b600052604160045260246000fd5b600181811c908216806200010257607f821691505b6020821081036200012357634e487b7160e01b600052602260045260246000fd5b50919050565b601f8211156200017757600081815260208120601f850160051c81016020861015620001525750805b601f850160051c820191505b8181101562000173578281556001016200015e565b5050505b505050565b81516001600160401b03811115620001985762000198620000d7565b620001b081620001a98454620000ed565b8462000129565b602080601f831160018114620001e85760008415620001cf5750858301515b600019600386901b1c1916600185901b17855562000173565b600085815260208120601f198616915b828110156200021957888601518255948401946001909101908401620001f8565b5085821015620002385787850151600019600388901b60f8161c191681555b5050505050600190811b01905550565b610e0c80620002586000396000f3fe608060405234801561001057600080fd5b50600436106101165760003560e01c8063715018a6116100a2578063a457c2d711610071578063a457c2d71461023a578063a9059cbb1461024d578063dd62ed3e14610260578063f2fde38b14610273578063f366c6a61461028657600080fd5b8063715018a6146101f45780638da5cb5b146101fc57806395d89b41146102215780639cd321ad1461022957600080fd5b806323b872dd116100e957806323b872dd14610183578063313ce5671461019657806339509351146101a557806340c10f19146101b857806370a08231146101cb57600080fd5b806306fdde031461011b578063095ea7b31461013957806318160ddd1461015c5780631d6a97571461016e575b600080fd5b610123610299565b6040516101309190610c33565b60405180910390f35b61014c610147366004610c9d565b61032b565b6040519015158152602001610130565b6002545b604051908152602001610130565b61018161017c366004610cc7565b610345565b005b61014c610191366004610cf3565b6104e7565b60405160008152602001610130565b61014c6101b3366004610c9d565b61050b565b61014c6101c6366004610c9d565b61052d565b6101606101d9366004610d2f565b6001600160a01b031660009081526020819052604090205490565b61018161054a565b6005546001600160a01b03165b6040516001600160a01b039091168152602001610130565b61012361055e565b6006546001600160a01b0316610209565b61014c610248366004610c9d565b61056d565b61014c61025b366004610c9d565b6105e8565b61016061026e366004610d51565b6105f6565b610181610281366004610d2f565b610621565b610181610294366004610d2f565b61069a565b6060600380546102a890610d7b565b80601f01602080910402602001604051908101604052809291908181526020018280546102d490610d7b565b80156103215780601f106102f657610100808354040283529160200191610321565b820191906000526020600020905b81548152906001019060200180831161030457829003601f168201915b5050505050905090565b60003361033981858561072e565b60019150505b92915050565b61034d610852565b6006546001600160a01b03166103b45760405162461bcd60e51b815260206004820152602160248201527f4c6971756964697479207374616b696e672061646472657373206e6f742073656044820152601d60fa1b60648201526084015b60405180910390fd5b6001600160a01b03811661040a5760405162461bcd60e51b815260206004820152601c60248201527f4572726f72206d696e74696e6720746f2061646472657373202830290000000060448201526064016103ab565b61041430836108ac565b60065460009061042d906001600160a01b03168461098b565b90508061047c5760405162461bcd60e51b815260206004820152601760248201527f617070726f76655374616b654d696e74206661696c656400000000000000000060448201526064016103ab565b600654604051635a408df360e11b8152600481018590526001600160a01b0384811660248301529091169063b4811be690604401600060405180830381600087803b1580156104ca57600080fd5b505af11580156104de573d6000803e3d6000fd5b50505050505050565b6000336104f5858285610999565b610500858585610a13565b506001949350505050565b60003361033981858561051e83836105f6565b6105289190610db5565b61072e565b6000610537610852565b61054183836108ac565b50600192915050565b610552610852565b61055c6000610be1565b565b6060600480546102a890610d7b565b6000338161057b82866105f6565b9050838110156105db5760405162461bcd60e51b815260206004820152602560248201527f45524332303a2064656372656173656420616c6c6f77616e63652062656c6f77604482015264207a65726f60d81b60648201526084016103ab565b610500828686840361072e565b600033610339818585610a13565b6001600160a01b03918216600090815260016020908152604080832093909416825291909152205490565b610629610852565b6001600160a01b03811661068e5760405162461bcd60e51b815260206004820152602660248201527f4f776e61626c653a206e6577206f776e657220697320746865207a65726f206160448201526564647265737360d01b60648201526084016103ab565b61069781610be1565b50565b6106a2610852565b6001600160a01b03811661070c5760405162461bcd60e51b815260206004820152602b60248201527f4572726f722073657474696e67206c6971756964697479207374616b696e672060448201526a616464726573732028302960a81b60648201526084016103ab565b600680546001600160a01b0319166001600160a01b0392909216919091179055565b6001600160a01b0383166107905760405162461bcd60e51b8152602060048201526024808201527f45524332303a20617070726f76652066726f6d20746865207a65726f206164646044820152637265737360e01b60648201526084016103ab565b6001600160a01b0382166107f15760405162461bcd60e51b815260206004820152602260248201527f45524332303a20617070726f766520746f20746865207a65726f206164647265604482015261737360f01b60648201526084016103ab565b6001600160a01b0383811660008181526001602090815260408083209487168084529482529182902085905590518481527f8c5be1e5ebec7d5bd14f71427d1e84f3dd0314c0f7b2291e5b200ac8c7c3b925910160405180910390a3505050565b6005546001600160a01b0316331461055c5760405162461bcd60e51b815260206004820181905260248201527f4f776e61626c653a2063616c6c6572206973206e6f7420746865206f776e657260448201526064016103ab565b6001600160a01b0382166109025760405162461bcd60e51b815260206004820152601f60248201527f45524332303a206d696e7420746f20746865207a65726f20616464726573730060448201526064016103ab565b80600260008282546109149190610db5565b90915550506001600160a01b03821660009081526020819052604081208054839290610941908490610db5565b90915550506040518181526001600160a01b038316906000907fddf252ad1be2c89b69c2b068fc378daa952ba7f163c4a11628f55a4df523b3ef9060200160405180910390a35050565b60003061033981858561072e565b60006109a584846105f6565b90506000198114610a0d5781811015610a005760405162461bcd60e51b815260206004820152601d60248201527f45524332303a20696e73756666696369656e7420616c6c6f77616e636500000060448201526064016103ab565b610a0d848484840361072e565b50505050565b6001600160a01b038316610a775760405162461bcd60e51b815260206004820152602560248201527f45524332303a207472616e736665722066726f6d20746865207a65726f206164604482015264647265737360d81b60648201526084016103ab565b6001600160a01b038216610ad95760405162461bcd60e51b815260206004820152602360248201527f45524332303a207472616e7366657220746f20746865207a65726f206164647260448201526265737360e81b60648201526084016103ab565b6001600160a01b03831660009081526020819052604090205481811015610b515760405162461bcd60e51b815260206004820152602660248201527f45524332303a207472616e7366657220616d6f756e7420657863656564732062604482015265616c616e636560d01b60648201526084016103ab565b6001600160a01b03808516600090815260208190526040808220858503905591851681529081208054849290610b88908490610db5565b92505081905550826001600160a01b0316846001600160a01b03167fddf252ad1be2c89b69c2b068fc378daa952ba7f163c4a11628f55a4df523b3ef84604051610bd491815260200190565b60405180910390a3610a0d565b600580546001600160a01b038381166001600160a01b0319831681179093556040519116919082907f8be0079c531659141344cd1fd0a4f28419497f9722a3daafe3b4186f6b6457e090600090a35050565b600060208083528351808285015260005b81811015610c6057858101830151858201604001528201610c44565b506000604082860101526040601f19601f8301168501019250505092915050565b80356001600160a01b0381168114610c9857600080fd5b919050565b60008060408385031215610cb057600080fd5b610cb983610c81565b946020939093013593505050565b60008060408385031215610cda57600080fd5b82359150610cea60208401610c81565b90509250929050565b600080600060608486031215610d0857600080fd5b610d1184610c81565b9250610d1f60208501610c81565b9150604084013590509250925092565b600060208284031215610d4157600080fd5b610d4a82610c81565b9392505050565b60008060408385031215610d6457600080fd5b610d6d83610c81565b9150610cea60208401610c81565b600181811c90821680610d8f57607f821691505b602082108103610daf57634e487b7160e01b600052602260045260246000fd5b50919050565b8082018082111561033f57634e487b7160e01b600052601160045260246000fdfea2646970667358221220bff30a58aa1604a4edb9d3e6d7494b41f5394781ce1da9a07b7edd78a5d2785164736f6c63430008100033",
    "linkReferences": {}
  },
  "methodIdentifiers": {
    "allowance(address,address)": "dd62ed3e",
    "approve(address,uint256)": "095ea7b3",
    "balanceOf(address)": "70a08231",
    "decimals()": "313ce567",
    "decreaseAllowance(address,uint256)": "a457c2d7",
    "increaseAllowance(address,uint256)": "39509351",
    "liquidityStakingAddress()": "9cd321ad",
    "mint(address,uint256)": "40c10f19",
    "name()": "06fdde03",
    "owner()": "8da5cb5b",
    "renounceOwnership()": "715018a6",
    "setLiqStakingAddress(address)": "f366c6a6",
    "stakeMint(uint256,address)": "1d6a9757",
    "symbol()": "95d89b41",
    "totalSupply()": "18160ddd",
    "transfer(address,uint256)": "a9059cbb",
    "transferFrom(address,address,uint256)": "23b872dd",
    "transferOwnership(address)": "f2fde38b"
  },
  "id": 1
}