{
  "abi": [
    {
      "inputs": [
        {
          "internalType": "address",
          "name": "gbar",
          "type": "address"
        }
      ],
      "stateMutability": "nonpayable",
      "type": "constructor"
    },
    {
      "anonymous": false,
      "inputs": [
        {
          "indexed": false,
          "internalType": "address",
          "name": "from",
          "type": "address"
        },
        {
          "indexed": false,
          "internalType": "uint256",
          "name": "amount",
          "type": "uint256"
        }
      ],
      "name": "Deposited",
      "type": "event"
    },
    {
      "anonymous": false,
      "inputs": [
        {
          "indexed": true,
          "internalType": "address",
          "name": "previousOwner",
          "type": "address"
        },
        {
          "indexed": true,
          "internalType": "address",
          "name": "newOwner",
          "type": "address"
        }
      ],
      "name": "OwnershipTransferred",
      "type": "event"
    },
    {
      "anonymous": false,
      "inputs": [
        {
          "indexed": false,
          "internalType": "address",
          "name": "to",
          "type": "address"
        },
        {
          "indexed": false,
          "internalType": "uint256",
          "name": "amount",
          "type": "uint256"
        }
      ],
      "name": "WithdrawnTo",
      "type": "event"
    },
    {
      "inputs": [],
      "name": "IGbarToken",
      "outputs": [
        {
          "internalType": "contract IGBAR",
          "name": "",
          "type": "address"
        }
      ],
      "stateMutability": "view",
      "type": "function"
    },
    {
      "inputs": [
        {
          "internalType": "uint256",
          "name": "amount",
          "type": "uint256"
        }
      ],
      "name": "deposit",
      "outputs": [],
      "stateMutability": "nonpayable",
      "type": "function"
    },
    {
      "inputs": [],
      "name": "getContractBalance",
      "outputs": [
        {
          "internalType": "uint256",
          "name": "",
          "type": "uint256"
        }
      ],
      "stateMutability": "view",
      "type": "function"
    },
    {
      "inputs": [],
      "name": "owner",
      "outputs": [
        {
          "internalType": "address",
          "name": "",
          "type": "address"
        }
      ],
      "stateMutability": "view",
      "type": "function"
    },
    {
      "inputs": [],
      "name": "renounceOwnership",
      "outputs": [],
      "stateMutability": "nonpayable",
      "type": "function"
    },
    {
      "inputs": [
        {
          "internalType": "address",
          "name": "gbar",
          "type": "address"
        }
      ],
      "name": "setGBAR",
      "outputs": [],
      "stateMutability": "nonpayable",
      "type": "function"
    },
    {
      "inputs": [
        {
          "internalType": "address",
          "name": "newOwner",
          "type": "address"
        }
      ],
      "name": "transferOwnership",
      "outputs": [],
      "stateMutability": "nonpayable",
      "type": "function"
    },
    {
      "inputs": [
        {
          "internalType": "address",
          "name": "to",
          "type": "address"
        },
        {
          "internalType": "uint256",
          "name": "amount",
          "type": "uint256"
        }
      ],
      "name": "withdrawTo",
      "outputs": [],
      "stateMutability": "nonpayable",
      "type": "function"
    }
  ],
  "bytecode": {
    "object": "0x608060405234801561001057600080fd5b5060405161098538038061098583398101604081905261002f91610107565b610038336100b7565b6001600160a01b0381166100925760405162461bcd60e51b815260206004820152601f60248201527f4572726f723a204742415220616464726573732063616e6e6f74206265203000604482015260640160405180910390fd5b600180546001600160a01b0319166001600160a01b0392909216919091179055610137565b600080546001600160a01b038381166001600160a01b0319831681178455604051919092169283917f8be0079c531659141344cd1fd0a4f28419497f9722a3daafe3b4186f6b6457e09190a35050565b60006020828403121561011957600080fd5b81516001600160a01b038116811461013057600080fd5b9392505050565b61083f806101466000396000f3fe608060405234801561001057600080fd5b50600436106100885760003560e01c80638da5cb5b1161005b5780638da5cb5b146100d8578063b6b55f25146100fd578063f06753d914610110578063f2fde38b1461012357600080fd5b8063205c28781461008d5780635af3efbd146100a25780636f9fb98a146100b5578063715018a6146100d0575b600080fd5b6100a061009b366004610769565b610136565b005b6100a06100b0366004610793565b610311565b6100bd610391565b6040519081526020015b60405180910390f35b6100a0610403565b6000546001600160a01b03165b6040516001600160a01b0390911681526020016100c7565b6100a061010b3660046107b5565b610417565b6001546100e5906001600160a01b031681565b6100a0610131366004610793565b61062a565b61013e6106a3565b6001600160a01b0382166101995760405162461bcd60e51b815260206004820152601f60248201527f4572726f723a2043616e6e6f742073656e6420746f203020616464726573730060448201526064015b60405180910390fd5b6001546040516370a0823160e01b815230600482015282916001600160a01b0316906370a0823190602401602060405180830381865afa1580156101e1573d6000803e3d6000fd5b505050506040513d601f19601f8201168201806040525081019061020591906107ce565b10156102535760405162461bcd60e51b815260206004820181905260248201527f4572726f723a204e6f7420656e6f7567682066756e647320696e207661756c746044820152606401610190565b60015460405163a9059cbb60e01b81526001600160a01b038481166004830152602482018490529091169063a9059cbb906044016020604051808303816000875af11580156102a6573d6000803e3d6000fd5b505050506040513d601f19601f820116820180604052508101906102ca91906107e7565b50604080516001600160a01b0384168152602081018390527fe986473adb88164a3135c0b0a057f43ec368108e4e41df874f22134ab1788022910160405180910390a15050565b6103196106a3565b6001600160a01b03811661036f5760405162461bcd60e51b815260206004820152601f60248201527f4572726f723a204742415220616464726573732063616e6e6f742062652030006044820152606401610190565b600180546001600160a01b0319166001600160a01b0392909216919091179055565b6001546040516370a0823160e01b81523060048201526000916001600160a01b0316906370a0823190602401602060405180830381865afa1580156103da573d6000803e3d6000fd5b505050506040513d601f19601f820116820180604052508101906103fe91906107ce565b905090565b61040b6106a3565b61041560006106fd565b565b600081116104735760405162461bcd60e51b8152602060048201526024808201527f4572726f723a20416d6f756e74206d75737420626520677265617465722074686044820152630616e20360e41b6064820152608401610190565b60015481906001600160a01b031663dd62ed3e336040516001600160e01b031960e084901b1681526001600160a01b039091166004820152306024820152604401602060405180830381865afa1580156104d1573d6000803e3d6000fd5b505050506040513d601f19601f820116820180604052508101906104f591906107ce565b101561055a5760405162461bcd60e51b815260206004820152602e60248201527f4572726f723a205472616e73666572206f6620746f6b656e20686173206e6f7460448201526d081899595b88185c1c1c9bdd995960921b6064820152608401610190565b6001546001600160a01b03166323b872dd336040516001600160e01b031960e084901b1681526001600160a01b039091166004820152306024820152604481018490526064016020604051808303816000875af11580156105bf573d6000803e3d6000fd5b505050506040513d601f19601f820116820180604052508101906105e391906107e7565b507f2da466a7b24304f47e87fa2e1e5a81b9831ce54fec19055ce277ca2f39ba42c433604080516001600160a01b039092168252602082018490520160405180910390a150565b6106326106a3565b6001600160a01b0381166106975760405162461bcd60e51b815260206004820152602660248201527f4f776e61626c653a206e6577206f776e657220697320746865207a65726f206160448201526564647265737360d01b6064820152608401610190565b6106a0816106fd565b50565b6000546001600160a01b031633146104155760405162461bcd60e51b815260206004820181905260248201527f4f776e61626c653a2063616c6c6572206973206e6f7420746865206f776e65726044820152606401610190565b600080546001600160a01b038381166001600160a01b0319831681178455604051919092169283917f8be0079c531659141344cd1fd0a4f28419497f9722a3daafe3b4186f6b6457e09190a35050565b80356001600160a01b038116811461076457600080fd5b919050565b6000806040838503121561077c57600080fd5b6107858361074d565b946020939093013593505050565b6000602082840312156107a557600080fd5b6107ae8261074d565b9392505050565b6000602082840312156107c757600080fd5b5035919050565b6000602082840312156107e057600080fd5b5051919050565b6000602082840312156107f957600080fd5b815180151581146107ae57600080fdfea2646970667358221220e272534a370f94936cb4c019d0867e0318c9113b04adee0cfff8a899372eebf064736f6c63430008100033",
    "linkReferences": {}
  },
  "methodIdentifiers": {
    "IGbarToken()": "f06753d9",
    "deposit(uint256)": "b6b55f25",
    "getContractBalance()": "6f9fb98a",
    "owner()": "8da5cb5b",
    "renounceOwnership()": "715018a6",
    "setGBAR(address)": "5af3efbd",
    "transferOwnership(address)": "f2fde38b",
    "withdrawTo(address,uint256)": "205c2878"
  },
  "id": 2
}