{
  "abi": [
    {
      "inputs": [
        {
          "internalType": "address",
          "name": "gbarToken",
          "type": "address"
        },
        {
          "internalType": "address",
          "name": "gbarStakePool",
          "type": "address"
        },
        {
          "internalType": "address",
          "name": "liquidityStakePool",
          "type": "address"
        },
        {
          "internalType": "address",
          "name": "company",
          "type": "address"
        },
        {
          "internalType": "address",
          "name": "goldPriceOracle",
          "type": "address"
        }
      ],
      "stateMutability": "nonpayable",
      "type": "constructor"
    },
    {
      "anonymous": false,
      "inputs": [
        {
          "indexed": false,
          "internalType": "uint256",
          "name": "companyFee",
          "type": "uint256"
        }
      ],
      "name": "CompanyFeeDistributed",
      "type": "event"
    },
    {
      "anonymous": false,
      "inputs": [
        {
          "indexed": false,
          "internalType": "uint256",
          "name": "gbarVaultAmount",
          "type": "uint256"
        },
        {
          "indexed": false,
          "internalType": "uint256",
          "name": "liqVaultAmount",
          "type": "uint256"
        }
      ],
      "name": "FeeDistributed",
      "type": "event"
    },
    {
      "anonymous": false,
      "inputs": [
        {
          "indexed": true,
          "internalType": "address",
          "name": "previousOwner",
          "type": "address"
        },
        {
          "indexed": true,
          "internalType": "address",
          "name": "newOwner",
          "type": "address"
        }
      ],
      "name": "OwnershipTransferred",
      "type": "event"
    },
    {
      "anonymous": false,
      "inputs": [
        {
          "indexed": false,
          "internalType": "uint256",
          "name": "totalFee",
          "type": "uint256"
        },
        {
          "indexed": false,
          "internalType": "uint256",
          "name": "companyFee",
          "type": "uint256"
        }
      ],
      "name": "PayoutValuesSet",
      "type": "event"
    },
    {
      "anonymous": false,
      "inputs": [
        {
          "indexed": false,
          "internalType": "uint256",
          "name": "stakeCap",
          "type": "uint256"
        }
      ],
      "name": "StakeCapSet",
      "type": "event"
    },
    {
      "inputs": [],
      "name": "COMPANY",
      "outputs": [
        {
          "internalType": "address",
          "name": "",
          "type": "address"
        }
      ],
      "stateMutability": "view",
      "type": "function"
    },
    {
      "inputs": [],
      "name": "COMPANY_FEE",
      "outputs": [
        {
          "internalType": "uint256",
          "name": "",
          "type": "uint256"
        }
      ],
      "stateMutability": "view",
      "type": "function"
    },
    {
      "inputs": [],
      "name": "DISTRIBUTION_PERIOD",
      "outputs": [
        {
          "internalType": "uint256",
          "name": "",
          "type": "uint256"
        }
      ],
      "stateMutability": "view",
      "type": "function"
    },
    {
      "inputs": [],
      "name": "FOUR_HUNDRED",
      "outputs": [
        {
          "internalType": "uint256",
          "name": "",
          "type": "uint256"
        }
      ],
      "stateMutability": "view",
      "type": "function"
    },
    {
      "inputs": [],
      "name": "GBAR_INTEREST_RATE",
      "outputs": [
        {
          "internalType": "uint256",
          "name": "",
          "type": "uint256"
        }
      ],
      "stateMutability": "view",
      "type": "function"
    },
    {
      "inputs": [],
      "name": "GBAR_STAKEPOOL",
      "outputs": [
        {
          "internalType": "address",
          "name": "",
          "type": "address"
        }
      ],
      "stateMutability": "view",
      "type": "function"
    },
    {
      "inputs": [],
      "name": "GOLD_PRICE_ORACLE",
      "outputs": [
        {
          "internalType": "contract IGoldPriceOracle",
          "name": "",
          "type": "address"
        }
      ],
      "stateMutability": "view",
      "type": "function"
    },
    {
      "inputs": [],
      "name": "GOLD_PRICE_OUNCE",
      "outputs": [
        {
          "internalType": "uint256",
          "name": "",
          "type": "uint256"
        }
      ],
      "stateMutability": "view",
      "type": "function"
    },
    {
      "inputs": [],
      "name": "HUNDRED",
      "outputs": [
        {
          "internalType": "uint256",
          "name": "",
          "type": "uint256"
        }
      ],
      "stateMutability": "view",
      "type": "function"
    },
    {
      "inputs": [],
      "name": "IGbarToken",
      "outputs": [
        {
          "internalType": "contract IERC20",
          "name": "",
          "type": "address"
        }
      ],
      "stateMutability": "view",
      "type": "function"
    },
    {
      "inputs": [],
      "name": "LIQUIDITY_STAKEPOOL",
      "outputs": [
        {
          "internalType": "address",
          "name": "",
          "type": "address"
        }
      ],
      "stateMutability": "view",
      "type": "function"
    },
    {
      "inputs": [],
      "name": "LIQUIDITY_VAULT",
      "outputs": [
        {
          "internalType": "contract ILiquidityProviderStaking",
          "name": "",
          "type": "address"
        }
      ],
      "stateMutability": "view",
      "type": "function"
    },
    {
      "inputs": [],
      "name": "LIQ_INTEREST_RATE",
      "outputs": [
        {
          "internalType": "uint256",
          "name": "",
          "type": "uint256"
        }
      ],
      "stateMutability": "view",
      "type": "function"
    },
    {
      "inputs": [],
      "name": "RESERVE_PERCENT",
      "outputs": [
        {
          "internalType": "uint256",
          "name": "",
          "type": "uint256"
        }
      ],
      "stateMutability": "view",
      "type": "function"
    },
    {
      "inputs": [],
      "name": "REWARD_FEE",
      "outputs": [
        {
          "internalType": "uint256",
          "name": "",
          "type": "uint256"
        }
      ],
      "stateMutability": "view",
      "type": "function"
    },
    {
      "inputs": [],
      "name": "STAKE_VAULT",
      "outputs": [
        {
          "internalType": "contract IStakeVault",
          "name": "",
          "type": "address"
        }
      ],
      "stateMutability": "view",
      "type": "function"
    },
    {
      "inputs": [
        {
          "internalType": "uint256",
          "name": "gbarRewardFee",
          "type": "uint256"
        }
      ],
      "name": "_calculateStakeCap",
      "outputs": [
        {
          "internalType": "uint256",
          "name": "",
          "type": "uint256"
        }
      ],
      "stateMutability": "nonpayable",
      "type": "function"
    },
    {
      "inputs": [
        {
          "internalType": "uint256",
          "name": "collectedFee",
          "type": "uint256"
        }
      ],
      "name": "_distributeGbarStakeVaultFee",
      "outputs": [
        {
          "internalType": "uint256",
          "name": "interest",
          "type": "uint256"
        },
        {
          "internalType": "bool",
          "name": "success",
          "type": "bool"
        }
      ],
      "stateMutability": "nonpayable",
      "type": "function"
    },
    {
      "inputs": [
        {
          "internalType": "uint256",
          "name": "collectedFee",
          "type": "uint256"
        }
      ],
      "name": "_distributeLiquidityFee",
      "outputs": [
        {
          "internalType": "uint256",
          "name": "liqInterest",
          "type": "uint256"
        },
        {
          "internalType": "bool",
          "name": "success",
          "type": "bool"
        }
      ],
      "stateMutability": "nonpayable",
      "type": "function"
    },
    {
      "inputs": [],
      "name": "companyFeeForPeriod",
      "outputs": [
        {
          "internalType": "uint256",
          "name": "",
          "type": "uint256"
        }
      ],
      "stateMutability": "view",
      "type": "function"
    },
    {
      "inputs": [],
      "name": "companyFeeSet",
      "outputs": [
        {
          "internalType": "bool",
          "name": "",
          "type": "bool"
        }
      ],
      "stateMutability": "view",
      "type": "function"
    },
    {
      "inputs": [],
      "name": "distributeOpen",
      "outputs": [
        {
          "internalType": "bool",
          "name": "",
          "type": "bool"
        }
      ],
      "stateMutability": "view",
      "type": "function"
    },
    {
      "inputs": [],
      "name": "distributePeriod",
      "outputs": [
        {
          "internalType": "uint256",
          "name": "",
          "type": "uint256"
        }
      ],
      "stateMutability": "view",
      "type": "function"
    },
    {
      "inputs": [],
      "name": "distributeRewards",
      "outputs": [],
      "stateMutability": "nonpayable",
      "type": "function"
    },
    {
      "inputs": [],
      "name": "owner",
      "outputs": [
        {
          "internalType": "address",
          "name": "",
          "type": "address"
        }
      ],
      "stateMutability": "view",
      "type": "function"
    },
    {
      "inputs": [],
      "name": "payCompany",
      "outputs": [],
      "stateMutability": "nonpayable",
      "type": "function"
    },
    {
      "inputs": [],
      "name": "payoutGbarPool",
      "outputs": [
        {
          "internalType": "bool",
          "name": "",
          "type": "bool"
        }
      ],
      "stateMutability": "view",
      "type": "function"
    },
    {
      "inputs": [],
      "name": "payoutLiquidityPool",
      "outputs": [
        {
          "internalType": "bool",
          "name": "",
          "type": "bool"
        }
      ],
      "stateMutability": "view",
      "type": "function"
    },
    {
      "inputs": [],
      "name": "periodFinish",
      "outputs": [
        {
          "internalType": "uint256",
          "name": "",
          "type": "uint256"
        }
      ],
      "stateMutability": "view",
      "type": "function"
    },
    {
      "inputs": [],
      "name": "renounceOwnership",
      "outputs": [],
      "stateMutability": "nonpayable",
      "type": "function"
    },
    {
      "inputs": [],
      "name": "sendAllFeesToGbarVault",
      "outputs": [],
      "stateMutability": "nonpayable",
      "type": "function"
    },
    {
      "inputs": [],
      "name": "sendAllFeesToLiqVault",
      "outputs": [],
      "stateMutability": "nonpayable",
      "type": "function"
    },
    {
      "inputs": [
        {
          "internalType": "address",
          "name": "company",
          "type": "address"
        }
      ],
      "name": "setCompany",
      "outputs": [],
      "stateMutability": "nonpayable",
      "type": "function"
    },
    {
      "inputs": [
        {
          "internalType": "address",
          "name": "stakepool",
          "type": "address"
        }
      ],
      "name": "setGbarStakePool",
      "outputs": [],
      "stateMutability": "nonpayable",
      "type": "function"
    },
    {
      "inputs": [
        {
          "internalType": "address",
          "name": "stakepool",
          "type": "address"
        }
      ],
      "name": "setGbarStakePoolInterface",
      "outputs": [],
      "stateMutability": "nonpayable",
      "type": "function"
    },
    {
      "inputs": [
        {
          "internalType": "address",
          "name": "gbarToken",
          "type": "address"
        }
      ],
      "name": "setGbarToken",
      "outputs": [],
      "stateMutability": "nonpayable",
      "type": "function"
    },
    {
      "inputs": [
        {
          "internalType": "address",
          "name": "liqpool",
          "type": "address"
        }
      ],
      "name": "setLiqStakePool",
      "outputs": [],
      "stateMutability": "nonpayable",
      "type": "function"
    },
    {
      "inputs": [
        {
          "internalType": "address",
          "name": "liqpool",
          "type": "address"
        }
      ],
      "name": "setLiqStakePoolInterface",
      "outputs": [],
      "stateMutability": "nonpayable",
      "type": "function"
    },
    {
      "inputs": [],
      "name": "setPayoutValues",
      "outputs": [],
      "stateMutability": "nonpayable",
      "type": "function"
    },
    {
      "inputs": [
        {
          "internalType": "uint256",
          "name": "reservePercent",
          "type": "uint256"
        }
      ],
      "name": "setReservePercent",
      "outputs": [],
      "stateMutability": "nonpayable",
      "type": "function"
    },
    {
      "inputs": [],
      "name": "togglePayoutGbarPool",
      "outputs": [],
      "stateMutability": "nonpayable",
      "type": "function"
    },
    {
      "inputs": [],
      "name": "togglePayoutLiquidityPool",
      "outputs": [],
      "stateMutability": "nonpayable",
      "type": "function"
    },
    {
      "inputs": [
        {
          "internalType": "address",
          "name": "newOwner",
          "type": "address"
        }
      ],
      "name": "transferOwnership",
      "outputs": [],
      "stateMutability": "nonpayable",
      "type": "function"
    },
    {
      "inputs": [],
      "name": "updateGoldPriceTime",
      "outputs": [
        {
          "internalType": "uint256",
          "name": "",
          "type": "uint256"
        }
      ],
      "stateMutability": "view",
      "type": "function"
    }
  ],
  "bytecode": {
    "object": "0x60806040526304c4b4006002556000600581905560068190556007556008805463ffffffff191690553480156200003557600080fd5b506040516200217a3803806200217a83398101604081905262000058916200017b565b62000063336200010e565b60018055600880546001600160a01b0380881664010000000002600160201b600160c01b031990921691909117909155600980548683166001600160a01b03199182168117909255600a80548785169083168117909155600b8054868616908416179055600c80548316909317909255600d80548216909217909155600e805492851692909116919091179055620000ff62278d0042620001eb565b60055550620002139350505050565b600080546001600160a01b038381166001600160a01b0319831681178455604051919092169283917f8be0079c531659141344cd1fd0a4f28419497f9722a3daafe3b4186f6b6457e09190a35050565b80516001600160a01b03811681146200017657600080fd5b919050565b600080600080600060a086880312156200019457600080fd5b6200019f866200015e565b9450620001af602087016200015e565b9350620001bf604087016200015e565b9250620001cf606087016200015e565b9150620001df608087016200015e565b90509295509295909350565b808201808211156200020d57634e487b7160e01b600052601160045260246000fd5b92915050565b611f5780620002236000396000f3fe608060405234801561001057600080fd5b50600436106102745760003560e01c80639f8f32db11610151578063d85d0cf3116100c3578063f0afd27a11610087578063f0afd27a146104e3578063f2fde38b146104f6578063f828148614610509578063f843719f1461051c578063f85fc0ab14610525578063fdf5e9f81461053057600080fd5b8063d85d0cf31461049b578063ebe2b12b146104a4578063ed8051c2146104ad578063f0024028146104c0578063f06753d9146104c957600080fd5b8063b299e84611610115578063b299e84614610447578063b94c65e814610452578063bd198ddd1461045a578063c04809241461046d578063c49947e214610480578063d5f9477e1461049357600080fd5b80639f8f32db146103f1578063a743f27b14610404578063a8db244514610417578063b092deb11461042a578063b11277c61461043457600080fd5b806359268914116101ea57806383cf83f6116101ae57806383cf83f6146103a15780638b753060146103b35780638cccae6c146103bb5780638da5cb5b146103c357806399161309146103d45780639b083e4a146103e757600080fd5b8063592689141461036a57806361f3934d146103755780636f4a2cd014610388578063715018a6146103905780637ed0444a1461039857600080fd5b806316dbaee61161023c57806316dbaee6146102cd5780632676e735146102f15780632c454fda14610304578063322c21981461030d57806336113dba14610317578063424067e31461034257600080fd5b806303f39e131461027957806309d86893146102835780630fac9b611461029657806311ccd06e146102a957806314b9302e146102b1575b600080fd5b61028161053d565b005b610281610291366004611c61565b610757565b6102816102a4366004611c7a565b610772565b6102816107c2565b6102ba60065481565b6040519081526020015b60405180910390f35b6008546102e1906301000000900460ff1681565b60405190151581526020016102c4565b6008546102e19062010000900460ff1681565b6102ba60035481565b6102ba6207a12081565b600b5461032a906001600160a01b031681565b6040516001600160a01b0390911681526020016102c4565b610355610350366004611c61565b610969565b604080519283529015156020830152016102c4565b6102ba63017d784081565b610355610383366004611c61565b610d74565b61028161102b565b610281611301565b6102ba60075481565b6008546102e190610100900460ff1681565b610281611315565b61028161133e565b6000546001600160a01b031661032a565b600e5461032a906001600160a01b031681565b6102ba6203d09081565b6102816103ff366004611c7a565b611514565b610281610412366004611c7a565b611564565b610281610425366004611c7a565b6115b4565b6102ba62278d0081565b600c5461032a906001600160a01b031681565b6102ba63047868c081565b610281611634565b6102ba610468366004611c61565b61180b565b61028161047b366004611c7a565b611a32565b600a5461032a906001600160a01b031681565b610281611ac7565b6102ba60025481565b6102ba60055481565b6102816104bb366004611c7a565b611aee565b6102ba61019081565b60085461032a90600160201b90046001600160a01b031681565b600d5461032a906001600160a01b031681565b610281610504366004611c7a565b611b3e565b60095461032a906001600160a01b031681565b6102ba60045481565b6102ba6305f5e10081565b6008546102e19060ff1681565b6002600154036105945760405162461bcd60e51b815260206004820152601f60248201527f5265656e7472616e637947756172643a207265656e7472616e742063616c6c0060448201526064015b60405180910390fd5b60026001556005544210156105bb5760405162461bcd60e51b815260040161058b90611caa565b600854610100900460ff16156106275760405162461bcd60e51b815260206004820152602b60248201527f4572726f723a206c69717569646974792064697374726962757465206973206160448201526a363932b0b23c9037b832b760a91b606482015260840161058b565b6008546040516370a0823160e01b8152306004820152600091600160201b90046001600160a01b0316906370a0823190602401602060405180830381865afa158015610677573d6000803e3d6000fd5b505050506040513d601f19601f8201168201806040525081019061069b9190611cf4565b9050600081116106bd5760405162461bcd60e51b815260040161058b90611d0d565b642c7c5c88406106d2816402540be400611d5a565b6003556106e142610e10611d79565b6004556305f5e1006106f763017d784084611d5a565b6107019190611d92565b60078190556008805461ffff19166101011790556040805184815260208101929092527f1cf00097f442b4e689f4c5a67d95485310d4912b7c1cf82d951b918a72dac91a910160405180910390a1505060018055565b61075f611bb7565b61076c81620f4240611d5a565b60025550565b61077a611bb7565b6001600160a01b0381166107a05760405162461bcd60e51b815260040161058b90611db4565b600c80546001600160a01b0319166001600160a01b0392909216919091179055565b6107ca611bb7565b4260055410156107ec5760405162461bcd60e51b815260040161058b90611caa565b60085460ff1661083e5760405162461bcd60e51b815260206004820152601d60248201527f4572726f723a20636f6d70616e7920666565206973206e6f7420736574000000604482015260640161058b565b600780546000918290556008805460ff191690819055600e5460405163a9059cbb60e01b81526001600160a01b03918216600482015260248101849052929392600160201b909204169063a9059cbb906044016020604051808303816000875af11580156108b0573d6000803e3d6000fd5b505050506040513d601f19601f820116820180604052508101906108d49190611df9565b9050806109315760405162461bcd60e51b815260206004820152602560248201527f4572726f723a206661696c656420746f207472616e7366657220636f6d70616e604482015264792066656560d81b606482015260840161058b565b6040518281527f9765714001989bb91764f5d9a64ba92d39443175d684509c59a929ab3b09bb0e906020015b60405180910390a15050565b6000806000600960009054906101000a90046001600160a01b03166001600160a01b03166338f908446040518163ffffffff1660e01b8152600401602060405180830381865afa1580156109c1573d6000803e3d6000fd5b505050506040513d601f19601f820116820180604052508101906109e59190611df9565b905060006305f5e1006109fc63047868c087611d5a565b610a069190611d92565b905060009350818015610a195750600654155b15610b455760006305f5e10060025483610a339190611d5a565b610a3d9190611d92565b90506000610a4d61019083611d5a565b600954604051637080543560e01b8152600481018390529192506001600160a01b0316906370805435906024016020604051808303816000875af1158015610a99573d6000803e3d6000fd5b505050506040513d601f19601f82011682018060405250810190610abd9190611df9565b50600960009054906101000a90046001600160a01b03166001600160a01b0316630e9d3f3c6040518163ffffffff1660e01b81526004016020604051808303816000875af1158015610b13573d6000803e3d6000fd5b505050506040513d601f19601f82011682018060405250810190610b379190611df9565b506001945050505050915091565b818015610b5457506000600654115b15610be357610b628161180b565b9350600960009054906101000a90046001600160a01b03166001600160a01b0316630e9d3f3c6040518163ffffffff1660e01b81526004016020604051808303816000875af1158015610bb9573d6000803e3d6000fd5b505050506040513d601f19601f82011682018060405250810190610bdd9190611df9565b50610c49565b610bec8161180b565b93508115610c4957600960009054906101000a90046001600160a01b03166001600160a01b0316630e9d3f3c6040518163ffffffff1660e01b81526004016020604051808303816000875af1158015610bb9573d6000803e3d6000fd5b8315610d6d5783811015610c6f5760405162461bcd60e51b815260040161058b90611e1b565b600854600c5460405163a9059cbb60e01b81526001600160a01b03918216600482015260248101879052600160201b909204169063a9059cbb906044016020604051808303816000875af1158015610ccb573d6000803e3d6000fd5b505050506040513d601f19601f82011682018060405250810190610cef9190611df9565b925082610d0e5760405162461bcd60e51b815260040161058b90611e5e565b600954604051633c6b16ab60e01b8152600481018690526001600160a01b0390911690633c6b16ab90602401600060405180830381600087803b158015610d5457600080fd5b505af1158015610d68573d6000803e3d6000fd5b505050505b5050915091565b6000806000600a60009054906101000a90046001600160a01b03166001600160a01b03166318160ddd6040518163ffffffff1660e01b8152600401602060405180830381865afa158015610dcc573d6000803e3d6000fd5b505050506040513d601f19601f82011682018060405250810190610df09190611cf4565b905060008111610e425760405162461bcd60e51b815260206004820152601a60248201527f4572726f723a206e6f206c6971756964697479207374616b6564000000000000604482015260640161058b565b6003546801afa5bf5b379a800090600090610e5e908390611d92565b90506000610e6c8285611d5a565b610e7990620f4240611d5a565b905060006305f5e100610e9063047868c08a611d5a565b610e9a9190611d92565b90506305f5e100610eae6207a12084611d5a565b610eb89190611d92565b965086811015610eda5760405162461bcd60e51b815260040161058b90611e1b565b600854600d5460405163a9059cbb60e01b81526001600160a01b039182166004820152602481018a9052600160201b909204169063a9059cbb906044016020604051808303816000875af1158015610f36573d6000803e3d6000fd5b505050506040513d601f19601f82011682018060405250810190610f5a9190611df9565b955085610fc35760405162461bcd60e51b815260206004820152603160248201527f4572726f723a206661696c656420746f207472616e7366657220696e74657265604482015270737420746f204c4951205265776172647360781b606482015260840161058b565b600a54604051633c6b16ab60e01b8152600481018990526001600160a01b0390911690633c6b16ab90602401600060405180830381600087803b15801561100957600080fd5b505af115801561101d573d6000803e3d6000fd5b505050505050505050915091565b60026001540361107d5760405162461bcd60e51b815260206004820152601f60248201527f5265656e7472616e637947756172643a207265656e7472616e742063616c6c00604482015260640161058b565b60026001556005544210156110a45760405162461bcd60e51b815260040161058b90611caa565b600854610100900460ff166110fb5760405162461bcd60e51b815260206004820152601d60248201527f4572726f723a2064697374726962757465206973206e6f74206f70656e000000604482015260640161058b565b60045442111561115b5760405162461bcd60e51b815260206004820152602560248201527f4572726f723a20676f6c64207072696365206e6565647320746f20626520757060448201526419185d195960da1b606482015260840161058b565b6000600354116111ad5760405162461bcd60e51b815260206004820152601c60248201527f4572726f723a20676f6c64207072696365206973206e6f742073657400000000604482015260640161058b565b6008546040516370a0823160e01b8152306004820152600091600160201b90046001600160a01b0316906370a0823190602401602060405180830381865afa1580156111fd573d6000803e3d6000fd5b505050506040513d601f19601f820116820180604052508101906112219190611cf4565b9050600081116112435760405162461bcd60e51b815260040161058b90611d0d565b600080600080600860029054906101000a900460ff161561126d5761126785610d74565b90945091505b6008546301000000900460ff161561128e5761128885610969565b90935090505b61129b62278d0042611d79565b6005556008805461ff0019169055600680546000906112b990611eb3565b9091555060408051848152602081018690527f61930a6c1553eab59d5766da6e1bab8eba982aec848ae7683452f4a6423b6e4a910160405180910390a1505060018055505050565b611309611bb7565b6113136000611c11565b565b61131d611bb7565b6008805463ff00000019811663010000009182900460ff1615909102179055565b611346611bb7565b6008546040516370a0823160e01b8152306004820152600091600160201b90046001600160a01b0316906370a0823190602401602060405180830381865afa158015611396573d6000803e3d6000fd5b505050506040513d601f19601f820116820180604052508101906113ba9190611cf4565b9050600081116113dc5760405162461bcd60e51b815260040161058b90611d0d565b600854600c5460405163a9059cbb60e01b81526001600160a01b03918216600482015260248101849052600092600160201b90049091169063a9059cbb906044016020604051808303816000875af115801561143c573d6000803e3d6000fd5b505050506040513d601f19601f820116820180604052508101906114609190611df9565b90508061147f5760405162461bcd60e51b815260040161058b90611e5e565b600954604051633c6b16ab60e01b8152600481018490526001600160a01b0390911690633c6b16ab90602401600060405180830381600087803b1580156114c557600080fd5b505af11580156114d9573d6000803e3d6000fd5b505060408051858152600060208201527f61930a6c1553eab59d5766da6e1bab8eba982aec848ae7683452f4a6423b6e4a935001905061095d565b61151c611bb7565b6001600160a01b0381166115425760405162461bcd60e51b815260040161058b90611ecc565b600a80546001600160a01b0319166001600160a01b0392909216919091179055565b61156c611bb7565b6001600160a01b0381166115925760405162461bcd60e51b815260040161058b90611ecc565b600d80546001600160a01b0319166001600160a01b0392909216919091179055565b6115bc611bb7565b6001600160a01b0381166116125760405162461bcd60e51b815260206004820152601e60248201527f4572726f723a20636f6d70616e792061646472657373206973207a65726f0000604482015260640161058b565b600e80546001600160a01b0319166001600160a01b0392909216919091179055565b61163c611bb7565b6008546040516370a0823160e01b8152306004820152600091600160201b90046001600160a01b0316906370a0823190602401602060405180830381865afa15801561168c573d6000803e3d6000fd5b505050506040513d601f19601f820116820180604052508101906116b09190611cf4565b9050600081116116d25760405162461bcd60e51b815260040161058b90611d0d565b600854600d5460405163a9059cbb60e01b81526001600160a01b03918216600482015260248101849052600092600160201b90049091169063a9059cbb906044016020604051808303816000875af1158015611732573d6000803e3d6000fd5b505050506040513d601f19601f820116820180604052508101906117569190611df9565b9050806117755760405162461bcd60e51b815260040161058b90611e5e565b600a54604051633c6b16ab60e01b8152600481018490526001600160a01b0390911690633c6b16ab90602401600060405180830381600087803b1580156117bb57600080fd5b505af11580156117cf573d6000803e3d6000fd5b50506040805160008152602081018690527f61930a6c1553eab59d5766da6e1bab8eba982aec848ae7683452f4a6423b6e4a935001905061095d565b600080600960009054906101000a90046001600160a01b03166001600160a01b03166318160ddd6040518163ffffffff1660e01b8152600401602060405180830381865afa158015611861573d6000803e3d6000fd5b505050506040513d601f19601f820116820180604052508101906118859190611cf4565b905060006305f5e10061189b6203d09084611d5a565b6118a59190611d92565b905060006305f5e10060025483876118bd9190611f0e565b6118c79190611d5a565b6118d19190611d92565b90508015611a2a5760006118e761019083611d5a565b905060006118f58286611d79565b90506000600960009054906101000a90046001600160a01b03166001600160a01b031663ba28fd2e6040518163ffffffff1660e01b8152600401602060405180830381865afa15801561194c573d6000803e3d6000fd5b505050506040513d601f19601f820116820180604052508101906119709190611cf4565b905080821115611a1e57600954604051637080543560e01b8152600481018490526001600160a01b03909116906370805435906024016020604051808303816000875af11580156119c5573d6000803e3d6000fd5b505050506040513d601f19601f820116820180604052508101906119e99190611df9565b506040518281527fc92ee4010010a6bd88a54dcce0a26909d7ffe9105ac66d998385c12bddee073f9060200160405180910390a15b50929695505050505050565b949350505050565b611a3a611bb7565b6001600160a01b038116611a9a5760405162461bcd60e51b815260206004820152602160248201527f4572726f723a206762617220746f6b656e2061646472657373206973207a65726044820152606f60f81b606482015260840161058b565b600880546001600160a01b03909216600160201b02640100000000600160c01b0319909216919091179055565b611acf611bb7565b6008805462ff0000198116620100009182900460ff1615909102179055565b611af6611bb7565b6001600160a01b038116611b1c5760405162461bcd60e51b815260040161058b90611db4565b600980546001600160a01b0319166001600160a01b0392909216919091179055565b611b46611bb7565b6001600160a01b038116611bab5760405162461bcd60e51b815260206004820152602660248201527f4f776e61626c653a206e6577206f776e657220697320746865207a65726f206160448201526564647265737360d01b606482015260840161058b565b611bb481611c11565b50565b6000546001600160a01b031633146113135760405162461bcd60e51b815260206004820181905260248201527f4f776e61626c653a2063616c6c6572206973206e6f7420746865206f776e6572604482015260640161058b565b600080546001600160a01b038381166001600160a01b0319831681178455604051919092169283917f8be0079c531659141344cd1fd0a4f28419497f9722a3daafe3b4186f6b6457e09190a35050565b600060208284031215611c7357600080fd5b5035919050565b600060208284031215611c8c57600080fd5b81356001600160a01b0381168114611ca357600080fd5b9392505050565b6020808252602a908201527f4572726f723a20646973747269627574696f6e20706572696f64206973206e6f6040820152691d08199a5b9a5cda195960b21b606082015260800190565b600060208284031215611d0657600080fd5b5051919050565b6020808252601b908201527f4572726f723a206e6f2066656520746f20646973747269627574650000000000604082015260600190565b634e487b7160e01b600052601160045260246000fd5b6000816000190483118215151615611d7457611d74611d44565b500290565b80820180821115611d8c57611d8c611d44565b92915050565b600082611daf57634e487b7160e01b600052601260045260246000fd5b500490565b60208082526025908201527f4572726f723a2067626172207374616b65706f6f6c2061646472657373206973604082015264207a65726f60d81b606082015260800190565b600060208284031215611e0b57600080fd5b81518015158114611ca357600080fd5b60208082526023908201527f4572726f723a206e6f7420656e6f7567682066656520746f206469737472696260408201526275746560e81b606082015260800190565b60208082526035908201527f4572726f723a206661696c656420746f207472616e7366657220696e746572656040820152741cdd081d1bc811d090548814dd185ad948141bdbdb605a1b606082015260800190565b600060018201611ec557611ec5611d44565b5060010190565b60208082526022908201527f4572726f723a206c697120726577617264732061646472657373206973207a65604082015261726f60f01b606082015260800190565b81810381811115611d8c57611d8c611d4456fea2646970667358221220d5cc437bc0bd405654c6121f2891b9ae03a3a2bc02a8778ebfb6a6adea3be15664736f6c63430008100033",
    "linkReferences": {}
  },
  "methodIdentifiers": {
    "COMPANY()": "99161309",
    "COMPANY_FEE()": "59268914",
    "DISTRIBUTION_PERIOD()": "b092deb1",
    "FOUR_HUNDRED()": "f0024028",
    "GBAR_INTEREST_RATE()": "9b083e4a",
    "GBAR_STAKEPOOL()": "b11277c6",
    "GOLD_PRICE_ORACLE()": "36113dba",
    "GOLD_PRICE_OUNCE()": "2c454fda",
    "HUNDRED()": "f85fc0ab",
    "IGbarToken()": "f06753d9",
    "LIQUIDITY_STAKEPOOL()": "f0afd27a",
    "LIQUIDITY_VAULT()": "c49947e2",
    "LIQ_INTEREST_RATE()": "322c2198",
    "RESERVE_PERCENT()": "d85d0cf3",
    "REWARD_FEE()": "b299e846",
    "STAKE_VAULT()": "f8281486",
    "_calculateStakeCap(uint256)": "bd198ddd",
    "_distributeGbarStakeVaultFee(uint256)": "424067e3",
    "_distributeLiquidityFee(uint256)": "61f3934d",
    "companyFeeForPeriod()": "7ed0444a",
    "companyFeeSet()": "fdf5e9f8",
    "distributeOpen()": "83cf83f6",
    "distributePeriod()": "14b9302e",
    "distributeRewards()": "6f4a2cd0",
    "owner()": "8da5cb5b",
    "payCompany()": "11ccd06e",
    "payoutGbarPool()": "16dbaee6",
    "payoutLiquidityPool()": "2676e735",
    "periodFinish()": "ebe2b12b",
    "renounceOwnership()": "715018a6",
    "sendAllFeesToGbarVault()": "8cccae6c",
    "sendAllFeesToLiqVault()": "b94c65e8",
    "setCompany(address)": "a8db2445",
    "setGbarStakePool(address)": "0fac9b61",
    "setGbarStakePoolInterface(address)": "ed8051c2",
    "setGbarToken(address)": "c0480924",
    "setLiqStakePool(address)": "a743f27b",
    "setLiqStakePoolInterface(address)": "9f8f32db",
    "setPayoutValues()": "03f39e13",
    "setReservePercent(uint256)": "09d86893",
    "togglePayoutGbarPool()": "8b753060",
    "togglePayoutLiquidityPool()": "d5f9477e",
    "transferOwnership(address)": "f2fde38b",
    "updateGoldPriceTime()": "f843719f"
  },
  "id": 11
}