{
  "abi": [
    {
      "inputs": [
        {
          "internalType": "address",
          "name": "_gbarVault",
          "type": "address"
        }
      ],
      "stateMutability": "nonpayable",
      "type": "constructor"
    },
    {
      "anonymous": false,
      "inputs": [
        {
          "indexed": false,
          "internalType": "uint256",
          "name": "_id",
          "type": "uint256"
        },
        {
          "indexed": true,
          "internalType": "address",
          "name": "sender",
          "type": "address"
        },
        {
          "indexed": false,
          "internalType": "uint256",
          "name": "amount",
          "type": "uint256"
        }
      ],
      "name": "DepositReceived",
      "type": "event"
    },
    {
      "anonymous": false,
      "inputs": [
        {
          "indexed": true,
          "internalType": "address",
          "name": "previousOwner",
          "type": "address"
        },
        {
          "indexed": true,
          "internalType": "address",
          "name": "newOwner",
          "type": "address"
        }
      ],
      "name": "OwnershipTransferred",
      "type": "event"
    },
    {
      "anonymous": false,
      "inputs": [
        {
          "indexed": false,
          "internalType": "uint256",
          "name": "_id",
          "type": "uint256"
        },
        {
          "indexed": true,
          "internalType": "address",
          "name": "sender",
          "type": "address"
        },
        {
          "indexed": false,
          "internalType": "uint256",
          "name": "amount",
          "type": "uint256"
        }
      ],
      "name": "Received",
      "type": "event"
    },
    {
      "stateMutability": "payable",
      "type": "fallback"
    },
    {
      "inputs": [],
      "name": "deposit",
      "outputs": [],
      "stateMutability": "payable",
      "type": "function"
    },
    {
      "inputs": [],
      "name": "depositId",
      "outputs": [
        {
          "internalType": "uint256",
          "name": "",
          "type": "uint256"
        }
      ],
      "stateMutability": "view",
      "type": "function"
    },
    {
      "inputs": [],
      "name": "gbarVault",
      "outputs": [
        {
          "internalType": "contract IGBARVault",
          "name": "",
          "type": "address"
        }
      ],
      "stateMutability": "view",
      "type": "function"
    },
    {
      "inputs": [],
      "name": "owner",
      "outputs": [
        {
          "internalType": "address",
          "name": "",
          "type": "address"
        }
      ],
      "stateMutability": "view",
      "type": "function"
    },
    {
      "inputs": [],
      "name": "renounceOwnership",
      "outputs": [],
      "stateMutability": "nonpayable",
      "type": "function"
    },
    {
      "inputs": [
        {
          "internalType": "address",
          "name": "_gbarVault",
          "type": "address"
        }
      ],
      "name": "setGBARVault",
      "outputs": [],
      "stateMutability": "nonpayable",
      "type": "function"
    },
    {
      "inputs": [
        {
          "internalType": "address",
          "name": "newOwner",
          "type": "address"
        }
      ],
      "name": "transferOwnership",
      "outputs": [],
      "stateMutability": "nonpayable",
      "type": "function"
    },
    {
      "inputs": [
        {
          "internalType": "address payable",
          "name": "to",
          "type": "address"
        }
      ],
      "name": "withdraw",
      "outputs": [],
      "stateMutability": "payable",
      "type": "function"
    },
    {
      "stateMutability": "payable",
      "type": "receive"
    }
  ],
  "bytecode": {
    "object": "0x608060405234801561001057600080fd5b506040516107ec3803806107ec83398101604081905261002f9161010b565b610038336100bb565b600180556001600160a01b0381166100965760405162461bcd60e51b815260206004820181905260248201527f4572726f723a205661756c7420616464726573732063616e6e6f742062652030604482015260640160405180910390fd5b600380546001600160a01b0319166001600160a01b039290921691909117905561013b565b600080546001600160a01b038381166001600160a01b0319831681178455604051919092169283917f8be0079c531659141344cd1fd0a4f28419497f9722a3daafe3b4186f6b6457e09190a35050565b60006020828403121561011d57600080fd5b81516001600160a01b038116811461013457600080fd5b9392505050565b6106a28061014a6000396000f3fe60806040526004361061007f5760003560e01c8063a8b5b8eb1161004e578063a8b5b8eb1461016d578063d0e30db01461018d578063e3c6052614610195578063f2fde38b146101b5576100d8565b806351cff8d9146100e8578063715018a6146100fd5780638da5cb5b146101125780639852099c14610149576100d8565b366100d85760028054906000610094836105f3565b90915550506002546040805191825234602083015233917fdb4180dac917b30af1e3b7cd73c7a8ae35b1838cb62ffcf24e2b6cc47bd73248910160405180910390a2005b60028054906000610094836105f3565b6100fb6100f636600461062f565b6101d5565b005b34801561010957600080fd5b506100fb6102d2565b34801561011e57600080fd5b506000546001600160a01b03165b6040516001600160a01b0390911681526020015b60405180910390f35b34801561015557600080fd5b5061015f60025481565b604051908152602001610140565b34801561017957600080fd5b506100fb61018836600461062f565b6102e6565b6100fb610366565b3480156101a157600080fd5b5060035461012c906001600160a01b031681565b3480156101c157600080fd5b506100fb6101d036600461062f565b6104d0565b6101dd610549565b600047116102325760405162461bcd60e51b815260206004820152601960248201527f4572726f723a204e6f2065746820696e20636f6e74726163740000000000000060448201526064015b60405180910390fd5b6000816001600160a01b03164760405160006040518083038185875af1925050503d806000811461027f576040519150601f19603f3d011682016040523d82523d6000602084013e610284565b606091505b50509050806102ce5760405162461bcd60e51b8152602060048201526016602482015275115c9c9bdc8e88151c985b9cd9995c8819985a5b195960521b6044820152606401610229565b5050565b6102da610549565b6102e460006105a3565b565b6102ee610549565b6001600160a01b0381166103445760405162461bcd60e51b815260206004820181905260248201527f4572726f723a205661756c7420616464726573732063616e6e6f7420626520306044820152606401610229565b600380546001600160a01b0319166001600160a01b0392909216919091179055565b6002600154036103b85760405162461bcd60e51b815260206004820152601f60248201527f5265656e7472616e637947756172643a207265656e7472616e742063616c6c006044820152606401610229565b6002600155600354604080516337cfdcc560e11b815290516000926001600160a01b031691636f9fb98a9160048083019260209291908290030181865afa158015610407573d6000803e3d6000fd5b505050506040513d601f19601f8201168201806040525081019061042b9190610653565b116104785760405162461bcd60e51b815260206004820152601860248201527f4572726f723a204e6f2066756e647320696e207661756c7400000000000000006044820152606401610229565b60028054906000610488836105f3565b90915550506002546040805191825234602083015233917f5b063c6569a91e8133fc6cd71d31a4ca5c65c652fd53ae093f46107754f08541910160405180910390a260018055565b6104d8610549565b6001600160a01b03811661053d5760405162461bcd60e51b815260206004820152602660248201527f4f776e61626c653a206e6577206f776e657220697320746865207a65726f206160448201526564647265737360d01b6064820152608401610229565b610546816105a3565b50565b6000546001600160a01b031633146102e45760405162461bcd60e51b815260206004820181905260248201527f4f776e61626c653a2063616c6c6572206973206e6f7420746865206f776e65726044820152606401610229565b600080546001600160a01b038381166001600160a01b0319831681178455604051919092169283917f8be0079c531659141344cd1fd0a4f28419497f9722a3daafe3b4186f6b6457e09190a35050565b60006001820161061357634e487b7160e01b600052601160045260246000fd5b5060010190565b6001600160a01b038116811461054657600080fd5b60006020828403121561064157600080fd5b813561064c8161061a565b9392505050565b60006020828403121561066557600080fd5b505191905056fea264697066735822122099c2fae5d4b7fe06608f2ee774e36a7414dfee8507fdccd3e5d4514d219fec7264736f6c63430008100033",
    "linkReferences": {}
  },
  "methodIdentifiers": {
    "deposit()": "d0e30db0",
    "depositId()": "9852099c",
    "gbarVault()": "e3c60526",
    "owner()": "8da5cb5b",
    "renounceOwnership()": "715018a6",
    "setGBARVault(address)": "a8b5b8eb",
    "transferOwnership(address)": "f2fde38b",
    "withdraw(address)": "51cff8d9"
  },
  "id": 0
}