{
  "abi": [
    {
      "inputs": [
        {
          "internalType": "address",
          "name": "feeProvider",
          "type": "address"
        },
        {
          "internalType": "uint256",
          "name": "numOfConfirmationsRequired",
          "type": "uint256"
        },
        {
          "internalType": "address[]",
          "name": "retrievalGuardList",
          "type": "address[]"
        }
      ],
      "stateMutability": "nonpayable",
      "type": "constructor"
    },
    {
      "anonymous": false,
      "inputs": [
        {
          "indexed": true,
          "internalType": "address",
          "name": "owner",
          "type": "address"
        },
        {
          "indexed": true,
          "internalType": "address",
          "name": "spender",
          "type": "address"
        },
        {
          "indexed": false,
          "internalType": "uint256",
          "name": "value",
          "type": "uint256"
        }
      ],
      "name": "Approval",
      "type": "event"
    },
    {
      "anonymous": false,
      "inputs": [
        {
          "indexed": true,
          "internalType": "address",
          "name": "from",
          "type": "address"
        },
        {
          "indexed": false,
          "internalType": "uint256",
          "name": "amount",
          "type": "uint256"
        }
      ],
      "name": "Burned",
      "type": "event"
    },
    {
      "anonymous": false,
      "inputs": [
        {
          "indexed": true,
          "internalType": "address",
          "name": "retrievalGuard",
          "type": "address"
        },
        {
          "indexed": true,
          "internalType": "uint256",
          "name": "txIndex",
          "type": "uint256"
        }
      ],
      "name": "ConfirmRetrievalRequest",
      "type": "event"
    },
    {
      "anonymous": false,
      "inputs": [
        {
          "indexed": true,
          "internalType": "address",
          "name": "retrievalGuard",
          "type": "address"
        },
        {
          "indexed": true,
          "internalType": "uint256",
          "name": "txIndex",
          "type": "uint256"
        },
        {
          "indexed": true,
          "internalType": "address",
          "name": "from",
          "type": "address"
        },
        {
          "indexed": false,
          "internalType": "uint256",
          "name": "amount",
          "type": "uint256"
        }
      ],
      "name": "CreateRetrievalRequest",
      "type": "event"
    },
    {
      "anonymous": false,
      "inputs": [
        {
          "indexed": true,
          "internalType": "address",
          "name": "to",
          "type": "address"
        },
        {
          "indexed": false,
          "internalType": "uint256",
          "name": "amount",
          "type": "uint256"
        }
      ],
      "name": "MintedAndStaked",
      "type": "event"
    },
    {
      "anonymous": false,
      "inputs": [
        {
          "indexed": true,
          "internalType": "address",
          "name": "to",
          "type": "address"
        },
        {
          "indexed": false,
          "internalType": "uint256",
          "name": "amount",
          "type": "uint256"
        }
      ],
      "name": "MintedAndTransferred",
      "type": "event"
    },
    {
      "anonymous": false,
      "inputs": [
        {
          "indexed": true,
          "internalType": "address",
          "name": "previousOwner",
          "type": "address"
        },
        {
          "indexed": true,
          "internalType": "address",
          "name": "newOwner",
          "type": "address"
        }
      ],
      "name": "OwnershipTransferred",
      "type": "event"
    },
    {
      "anonymous": false,
      "inputs": [
        {
          "indexed": true,
          "internalType": "address",
          "name": "retrievalGuard",
          "type": "address"
        },
        {
          "indexed": true,
          "internalType": "uint256",
          "name": "txIndex",
          "type": "uint256"
        }
      ],
      "name": "RevokeConfirmation",
      "type": "event"
    },
    {
      "anonymous": false,
      "inputs": [
        {
          "indexed": true,
          "internalType": "address",
          "name": "from",
          "type": "address"
        },
        {
          "indexed": true,
          "internalType": "address",
          "name": "to",
          "type": "address"
        },
        {
          "indexed": false,
          "internalType": "uint256",
          "name": "value",
          "type": "uint256"
        }
      ],
      "name": "Transfer",
      "type": "event"
    },
    {
      "anonymous": false,
      "inputs": [
        {
          "indexed": true,
          "internalType": "address",
          "name": "from",
          "type": "address"
        },
        {
          "indexed": true,
          "internalType": "address",
          "name": "to",
          "type": "address"
        },
        {
          "indexed": false,
          "internalType": "uint256",
          "name": "amount",
          "type": "uint256"
        }
      ],
      "name": "TransferredFromWallet",
      "type": "event"
    },
    {
      "inputs": [],
      "name": "FEE_DISTRIBUTOR",
      "outputs": [
        {
          "internalType": "address",
          "name": "",
          "type": "address"
        }
      ],
      "stateMutability": "view",
      "type": "function"
    },
    {
      "inputs": [],
      "name": "FEE_PROVIDER",
      "outputs": [
        {
          "internalType": "contract IFeeProvider",
          "name": "",
          "type": "address"
        }
      ],
      "stateMutability": "view",
      "type": "function"
    },
    {
      "inputs": [],
      "name": "STAKE_VAULT",
      "outputs": [
        {
          "internalType": "contract IStakeVault",
          "name": "",
          "type": "address"
        }
      ],
      "stateMutability": "view",
      "type": "function"
    },
    {
      "inputs": [
        {
          "internalType": "address",
          "name": "wallet",
          "type": "address"
        }
      ],
      "name": "addBlacklist",
      "outputs": [],
      "stateMutability": "nonpayable",
      "type": "function"
    },
    {
      "inputs": [
        {
          "internalType": "address",
          "name": "toExclude",
          "type": "address"
        }
      ],
      "name": "addFeeExclusion",
      "outputs": [],
      "stateMutability": "nonpayable",
      "type": "function"
    },
    {
      "inputs": [
        {
          "internalType": "address",
          "name": "owner",
          "type": "address"
        },
        {
          "internalType": "address",
          "name": "spender",
          "type": "address"
        }
      ],
      "name": "allowance",
      "outputs": [
        {
          "internalType": "uint256",
          "name": "",
          "type": "uint256"
        }
      ],
      "stateMutability": "view",
      "type": "function"
    },
    {
      "inputs": [
        {
          "internalType": "address",
          "name": "spender",
          "type": "address"
        },
        {
          "internalType": "uint256",
          "name": "amount",
          "type": "uint256"
        }
      ],
      "name": "approve",
      "outputs": [
        {
          "internalType": "bool",
          "name": "",
          "type": "bool"
        }
      ],
      "stateMutability": "nonpayable",
      "type": "function"
    },
    {
      "inputs": [
        {
          "internalType": "address",
          "name": "account",
          "type": "address"
        }
      ],
      "name": "balanceOf",
      "outputs": [
        {
          "internalType": "uint256",
          "name": "",
          "type": "uint256"
        }
      ],
      "stateMutability": "view",
      "type": "function"
    },
    {
      "inputs": [
        {
          "internalType": "address",
          "name": "",
          "type": "address"
        }
      ],
      "name": "blacklist",
      "outputs": [
        {
          "internalType": "bool",
          "name": "",
          "type": "bool"
        }
      ],
      "stateMutability": "view",
      "type": "function"
    },
    {
      "inputs": [
        {
          "internalType": "address",
          "name": "from",
          "type": "address"
        },
        {
          "internalType": "uint256",
          "name": "amount",
          "type": "uint256"
        }
      ],
      "name": "burn",
      "outputs": [],
      "stateMutability": "nonpayable",
      "type": "function"
    },
    {
      "inputs": [
        {
          "internalType": "uint256",
          "name": "index",
          "type": "uint256"
        }
      ],
      "name": "confirmRetrievalRequest",
      "outputs": [],
      "stateMutability": "nonpayable",
      "type": "function"
    },
    {
      "inputs": [
        {
          "internalType": "address",
          "name": "from",
          "type": "address"
        },
        {
          "internalType": "uint256",
          "name": "amount",
          "type": "uint256"
        }
      ],
      "name": "createRetrievalRequest",
      "outputs": [],
      "stateMutability": "nonpayable",
      "type": "function"
    },
    {
      "inputs": [],
      "name": "decimals",
      "outputs": [
        {
          "internalType": "uint8",
          "name": "",
          "type": "uint8"
        }
      ],
      "stateMutability": "pure",
      "type": "function"
    },
    {
      "inputs": [
        {
          "internalType": "address",
          "name": "spender",
          "type": "address"
        },
        {
          "internalType": "uint256",
          "name": "subtractedValue",
          "type": "uint256"
        }
      ],
      "name": "decreaseAllowance",
      "outputs": [
        {
          "internalType": "bool",
          "name": "",
          "type": "bool"
        }
      ],
      "stateMutability": "nonpayable",
      "type": "function"
    },
    {
      "inputs": [
        {
          "internalType": "address",
          "name": "",
          "type": "address"
        }
      ],
      "name": "excludedFromFee",
      "outputs": [
        {
          "internalType": "bool",
          "name": "",
          "type": "bool"
        }
      ],
      "stateMutability": "view",
      "type": "function"
    },
    {
      "inputs": [
        {
          "internalType": "uint256",
          "name": "index",
          "type": "uint256"
        }
      ],
      "name": "executeRetrievalRequest",
      "outputs": [],
      "stateMutability": "nonpayable",
      "type": "function"
    },
    {
      "inputs": [
        {
          "internalType": "uint256",
          "name": "index",
          "type": "uint256"
        }
      ],
      "name": "getRetrievalRequest",
      "outputs": [
        {
          "components": [
            {
              "internalType": "address",
              "name": "from",
              "type": "address"
            },
            {
              "internalType": "uint256",
              "name": "amount",
              "type": "uint256"
            },
            {
              "internalType": "uint256",
              "name": "numConfirmations",
              "type": "uint256"
            },
            {
              "internalType": "bool",
              "name": "executed",
              "type": "bool"
            }
          ],
          "internalType": "struct RetrievalRequest",
          "name": "",
          "type": "tuple"
        }
      ],
      "stateMutability": "view",
      "type": "function"
    },
    {
      "inputs": [],
      "name": "getRetrievalRequestCount",
      "outputs": [
        {
          "internalType": "uint256",
          "name": "",
          "type": "uint256"
        }
      ],
      "stateMutability": "view",
      "type": "function"
    },
    {
      "inputs": [],
      "name": "getRetrievalRetrievalGuardsCount",
      "outputs": [
        {
          "internalType": "uint256",
          "name": "",
          "type": "uint256"
        }
      ],
      "stateMutability": "view",
      "type": "function"
    },
    {
      "inputs": [
        {
          "internalType": "address",
          "name": "spender",
          "type": "address"
        },
        {
          "internalType": "uint256",
          "name": "addedValue",
          "type": "uint256"
        }
      ],
      "name": "increaseAllowance",
      "outputs": [
        {
          "internalType": "bool",
          "name": "",
          "type": "bool"
        }
      ],
      "stateMutability": "nonpayable",
      "type": "function"
    },
    {
      "inputs": [
        {
          "internalType": "address",
          "name": "",
          "type": "address"
        }
      ],
      "name": "isRetrievalGuard",
      "outputs": [
        {
          "internalType": "bool",
          "name": "",
          "type": "bool"
        }
      ],
      "stateMutability": "view",
      "type": "function"
    },
    {
      "inputs": [
        {
          "internalType": "address",
          "name": "to",
          "type": "address"
        },
        {
          "internalType": "uint256",
          "name": "amount",
          "type": "uint256"
        }
      ],
      "name": "mint",
      "outputs": [
        {
          "internalType": "bool",
          "name": "",
          "type": "bool"
        }
      ],
      "stateMutability": "nonpayable",
      "type": "function"
    },
    {
      "inputs": [],
      "name": "name",
      "outputs": [
        {
          "internalType": "string",
          "name": "",
          "type": "string"
        }
      ],
      "stateMutability": "view",
      "type": "function"
    },
    {
      "inputs": [],
      "name": "numConfirmationsRequired",
      "outputs": [
        {
          "internalType": "uint256",
          "name": "",
          "type": "uint256"
        }
      ],
      "stateMutability": "view",
      "type": "function"
    },
    {
      "inputs": [],
      "name": "owner",
      "outputs": [
        {
          "internalType": "address",
          "name": "",
          "type": "address"
        }
      ],
      "stateMutability": "view",
      "type": "function"
    },
    {
      "inputs": [
        {
          "internalType": "address",
          "name": "wallet",
          "type": "address"
        }
      ],
      "name": "removeBlacklist",
      "outputs": [],
      "stateMutability": "nonpayable",
      "type": "function"
    },
    {
      "inputs": [
        {
          "internalType": "address",
          "name": "toExclude",
          "type": "address"
        }
      ],
      "name": "removeFeeExclusion",
      "outputs": [],
      "stateMutability": "nonpayable",
      "type": "function"
    },
    {
      "inputs": [],
      "name": "renounceOwnership",
      "outputs": [],
      "stateMutability": "nonpayable",
      "type": "function"
    },
    {
      "inputs": [
        {
          "internalType": "uint256",
          "name": "",
          "type": "uint256"
        }
      ],
      "name": "retrievalGuards",
      "outputs": [
        {
          "internalType": "address",
          "name": "",
          "type": "address"
        }
      ],
      "stateMutability": "view",
      "type": "function"
    },
    {
      "inputs": [
        {
          "internalType": "uint256",
          "name": "",
          "type": "uint256"
        },
        {
          "internalType": "address",
          "name": "",
          "type": "address"
        }
      ],
      "name": "retrievalRequestConfirmed",
      "outputs": [
        {
          "internalType": "bool",
          "name": "",
          "type": "bool"
        }
      ],
      "stateMutability": "view",
      "type": "function"
    },
    {
      "inputs": [
        {
          "internalType": "uint256",
          "name": "",
          "type": "uint256"
        }
      ],
      "name": "retrievalRequests",
      "outputs": [
        {
          "internalType": "address",
          "name": "from",
          "type": "address"
        },
        {
          "internalType": "uint256",
          "name": "amount",
          "type": "uint256"
        },
        {
          "internalType": "uint256",
          "name": "numConfirmations",
          "type": "uint256"
        },
        {
          "internalType": "bool",
          "name": "executed",
          "type": "bool"
        }
      ],
      "stateMutability": "view",
      "type": "function"
    },
    {
      "inputs": [
        {
          "internalType": "uint256",
          "name": "index",
          "type": "uint256"
        }
      ],
      "name": "revokeConfirmation",
      "outputs": [],
      "stateMutability": "nonpayable",
      "type": "function"
    },
    {
      "inputs": [
        {
          "internalType": "address",
          "name": "feeDistributor",
          "type": "address"
        }
      ],
      "name": "setFeeDistributor",
      "outputs": [],
      "stateMutability": "nonpayable",
      "type": "function"
    },
    {
      "inputs": [
        {
          "internalType": "address",
          "name": "feeProvider",
          "type": "address"
        }
      ],
      "name": "setFeeProvider",
      "outputs": [],
      "stateMutability": "nonpayable",
      "type": "function"
    },
    {
      "inputs": [
        {
          "internalType": "address",
          "name": "stakeVault",
          "type": "address"
        }
      ],
      "name": "setStakeVault",
      "outputs": [],
      "stateMutability": "nonpayable",
      "type": "function"
    },
    {
      "inputs": [],
      "name": "symbol",
      "outputs": [
        {
          "internalType": "string",
          "name": "",
          "type": "string"
        }
      ],
      "stateMutability": "view",
      "type": "function"
    },
    {
      "inputs": [],
      "name": "totalSupply",
      "outputs": [
        {
          "internalType": "uint256",
          "name": "",
          "type": "uint256"
        }
      ],
      "stateMutability": "view",
      "type": "function"
    },
    {
      "inputs": [
        {
          "internalType": "address",
          "name": "to",
          "type": "address"
        },
        {
          "internalType": "uint256",
          "name": "amount",
          "type": "uint256"
        }
      ],
      "name": "transfer",
      "outputs": [
        {
          "internalType": "bool",
          "name": "",
          "type": "bool"
        }
      ],
      "stateMutability": "nonpayable",
      "type": "function"
    },
    {
      "inputs": [
        {
          "internalType": "address",
          "name": "from",
          "type": "address"
        },
        {
          "internalType": "address",
          "name": "to",
          "type": "address"
        },
        {
          "internalType": "uint256",
          "name": "amount",
          "type": "uint256"
        }
      ],
      "name": "transferFrom",
      "outputs": [
        {
          "internalType": "bool",
          "name": "",
          "type": "bool"
        }
      ],
      "stateMutability": "nonpayable",
      "type": "function"
    },
    {
      "inputs": [
        {
          "internalType": "address",
          "name": "newOwner",
          "type": "address"
        }
      ],
      "name": "transferOwnership",
      "outputs": [],
      "stateMutability": "nonpayable",
      "type": "function"
    },
    {
      "inputs": [
        {
          "internalType": "address",
          "name": "buyer",
          "type": "address"
        },
        {
          "internalType": "uint256",
          "name": "amount",
          "type": "uint256"
        }
      ],
      "name": "transferTokenToBuyer",
      "outputs": [],
      "stateMutability": "nonpayable",
      "type": "function"
    },
    {
      "inputs": [
        {
          "internalType": "address",
          "name": "buyer",
          "type": "address"
        },
        {
          "internalType": "uint256",
          "name": "amount",
          "type": "uint256"
        }
      ],
      "name": "transferTokenToStakeVault",
      "outputs": [],
      "stateMutability": "nonpayable",
      "type": "function"
    }
  ],
  "bytecode": {
    "object": "0x60806040523480156200001157600080fd5b5060405162002a9438038062002a948339810160408190526200003491620003b2565b60408051808201825260048082526323a120a960e11b602080840182905284518086019095529184529083015290600362000070838262000533565b5060046200007f828262000533565b5050506200009c620000966200032960201b60201c565b6200032d565b600160065581620000fd5760405162461bcd60e51b8152602060048201526031602482015260008051602062002a74833981519152604482015270062652067726561746572207468616e203607c1b60648201526084015b60405180910390fd5b80518211156200018b5760405162461bcd60e51b8152602060048201526057602482015260008051602062002a7483398151915260448201527f6265206c657373207468616e206f7220657175616c20746f20746865206e756d60648201527f626572206f662072657472696576616c20677561726473000000000000000000608482015260a401620000f4565b600880546001600160a01b0319166001600160a01b038516179055600c82905560005b81518110156200031f576000828281518110620001cf57620001cf620005ff565b6020026020010151905060006001600160a01b0316816001600160a01b0316036200023d5760405162461bcd60e51b815260206004820152601760248201527f696e76616c69642072657472696576616c2067756172640000000000000000006044820152606401620000f4565b6001600160a01b03811660009081526010602052604090205460ff1615620002a85760405162461bcd60e51b815260206004820152601a60248201527f72657472696576616c206775617264206e6f7420756e697175650000000000006044820152606401620000f4565b6001600160a01b03166000818152601060205260408120805460ff19166001908117909155600b805491820181559091527f0175b7a638427703f0dbe7bb9bbf987a2551717b34e79f33b5b1008d1fa01db90180546001600160a01b0319169091179055620003178162000615565b9050620001ae565b505050506200063d565b3390565b600580546001600160a01b038381166001600160a01b0319831681179093556040519116919082907f8be0079c531659141344cd1fd0a4f28419497f9722a3daafe3b4186f6b6457e090600090a35050565b80516001600160a01b03811681146200039757600080fd5b919050565b634e487b7160e01b600052604160045260246000fd5b600080600060608486031215620003c857600080fd5b620003d3846200037f565b60208581015160408701519295509350906001600160401b0380821115620003fa57600080fd5b818701915087601f8301126200040f57600080fd5b8151818111156200042457620004246200039c565b8060051b604051601f19603f830116810181811085821117156200044c576200044c6200039c565b60405291825284820192508381018501918a8311156200046b57600080fd5b938501935b82851015620004945762000484856200037f565b8452938501939285019262000470565b8096505050505050509250925092565b600181811c90821680620004b957607f821691505b602082108103620004da57634e487b7160e01b600052602260045260246000fd5b50919050565b601f8211156200052e57600081815260208120601f850160051c81016020861015620005095750805b601f850160051c820191505b818110156200052a5782815560010162000515565b5050505b505050565b81516001600160401b038111156200054f576200054f6200039c565b6200056781620005608454620004a4565b84620004e0565b602080601f8311600181146200059f5760008415620005865750858301515b600019600386901b1c1916600185901b1785556200052a565b600085815260208120601f198616915b82811015620005d057888601518255948401946001909101908401620005af565b5085821015620005ef5787850151600019600388901b60f8161c191681555b5050505050600190811b01905550565b634e487b7160e01b600052603260045260246000fd5b6000600182016200063657634e487b7160e01b600052601160045260246000fd5b5060010190565b612427806200064d6000396000f3fe608060405234801561001057600080fd5b506004361061025d5760003560e01c806398aa5d6a11610146578063ccfc2e8d116100c3578063ec5d35af11610087578063ec5d35af146105a6578063f2fde38b146105b9578063f36ba4d8146105cc578063f8281486146105df578063f869664f146105f2578063f9f92be41461062057600080fd5b8063ccfc2e8d14610551578063d0549b8514610564578063d6dbc4671461056d578063dd62ed3e14610580578063eb91e6511461059357600080fd5b8063a745ecca1161010a578063a745ecca146104fd578063a9059cbb14610510578063ad444e0014610523578063c64bdf5a1461052b578063c9bf8e461461053e57600080fd5b806398aa5d6a146104725780639cfe42da146104855780639dc29fac14610498578063a1ce20f7146104ab578063a457c2d7146104ea57600080fd5b806339509351116101df57806370a08231116101a357806370a08231146103f2578063715018a61461041b5780637595fc0d1461042357806385ecafd7146104365780638da5cb5b1461045957806395d89b411461046a57600080fd5b8063395093511461037b5780633bc787101461038e57806340c10f19146103a15780635a9537ef146103b45780636910dcce146103c757600080fd5b806318160ddd1161022657806318160ddd14610329578063191646161461033157806320ea8d861461034657806323b872dd14610359578063313ce5671461036c57600080fd5b80623fad85146102625780630178649f146102bc57806306fdde03146102ce578063095ea7b3146102e357806312648c0f14610306575b600080fd5b610275610270366004612036565b610643565b6040516102b3919081516001600160a01b03168152602080830151908201526040808301519082015260609182015115159181019190915260800190565b60405180910390f35b600a545b6040519081526020016102b3565b6102d66106fe565b6040516102b3919061204f565b6102f66102f13660046120b9565b610790565b60405190151581526020016102b3565b6102f66103143660046120e3565b60106020526000908152604090205460ff1681565b6002546102c0565b61034461033f366004612036565b6107aa565b005b610344610354366004612036565b610941565b6102f6610367366004612105565b610ac9565b604051600681526020016102b3565b6102f66103893660046120b9565b610ca3565b61034461039c3660046120b9565b610cc5565b6102f66103af3660046120b9565b610dbc565b6103446103c23660046120b9565b610e39565b6007546103da906001600160a01b031681565b6040516001600160a01b0390911681526020016102b3565b6102c06104003660046120e3565b6001600160a01b031660009081526020819052604090205490565b610344611035565b6103da610431366004612036565b611049565b6102f66104443660046120e3565b600d6020526000908152604090205460ff1681565b6005546001600160a01b03166103da565b6102d6611073565b6008546103da906001600160a01b031681565b6103446104933660046120e3565b611082565b6103446104a63660046120b9565b6110d4565b6104be6104b9366004612036565b61118e565b604080516001600160a01b039095168552602085019390935291830152151560608201526080016102b3565b6102f66104f83660046120b9565b6111d5565b61034461050b366004612036565b61125b565b6102f661051e3660046120b9565b611407565b600b546102c0565b6103446105393660046120e3565b61158b565b61034461054c3660046120e3565b6115db565b61034461055f3660046120e3565b61162d565b6102c0600c5481565b61034461057b3660046120b9565b61167d565b6102c061058e366004612141565b6117f8565b6103446105a13660046120e3565b611823565b6103446105b43660046120e3565b611872565b6103446105c73660046120e3565b6118c1565b6103446105da3660046120e3565b61193a565b6009546103da906001600160a01b031681565b6102f6610600366004612174565b600f60209081526000928352604080842090915290825290205460ff1681565b6102f661062e3660046120e3565b600e6020526000908152604090205460ff1681565b604080516080810182526000808252602082018190529181018290526060810191909152600a54829081106106935760405162461bcd60e51b815260040161068a90612197565b60405180910390fd5b600a83815481106106a6576106a66121c7565b600091825260209182902060408051608081018252600490930290910180546001600160a01b0316835260018101549383019390935260028301549082015260039091015460ff161515606082015291505b50919050565b60606003805461070d906121dd565b80601f0160208091040260200160405190810160405280929190818152602001828054610739906121dd565b80156107865780601f1061075b57610100808354040283529160200191610786565b820191906000526020600020905b81548152906001019060200180831161076957829003601f168201915b5050505050905090565b60003361079e81858561198a565b60019150505b92915050565b3360009081526010602052604090205460ff166107d95760405162461bcd60e51b815260040161068a90612211565b600a54819081106107fc5760405162461bcd60e51b815260040161068a90612197565b81600a8181548110610810576108106121c7565b600091825260209091206003600490920201015460ff16156108445760405162461bcd60e51b815260040161068a9061223e565b6000838152600f60209081526040808320338452909152902054839060ff16156108b05760405162461bcd60e51b815260206004820152601960248201527f7265717565737420616c726561647920636f6e6669726d656400000000000000604482015260640161068a565b6000600a85815481106108c5576108c56121c7565b9060005260206000209060040201905060018160020160008282546108ea919061228b565b90915550506000858152600f60209081526040808320338085529252808320805460ff191660011790555187927fe2ca1256ca5fa4597ec5b20f4b2bb6fbec674edacbf74099945f1ba24504ba7291a35050505050565b3360009081526010602052604090205460ff166109705760405162461bcd60e51b815260040161068a90612211565b600a54819081106109935760405162461bcd60e51b815260040161068a90612197565b81600a81815481106109a7576109a76121c7565b600091825260209091206003600490920201015460ff16156109db5760405162461bcd60e51b815260040161068a9061223e565b6000838152600f6020908152604080832033845290915290205460ff16610a3c5760405162461bcd60e51b81526020600482015260156024820152741c995c5d595cdd081b9bdd0818dbdb999a5c9b5959605a1b604482015260640161068a565b6000600a8481548110610a5157610a516121c7565b906000526020600020906004020190506001816002016000828254610a76919061229e565b90915550506000848152600f60209081526040808320338085529252808320805460ff191690555186927ff0dca620e2e81f7841d07bcc105e1704fb01475b278a9d4c236e1c62945edd5591a350505050565b6000600260065403610aed5760405162461bcd60e51b815260040161068a906122b1565b600260065581610b0f5760405162461bcd60e51b815260040161068a906122e8565b6001600160a01b038316610b355760405162461bcd60e51b815260040161068a9061232b565b336000908152600e602052604090205460ff16158015610b6e57506001600160a01b0384166000908152600e602052604090205460ff16155b8015610b9357506001600160a01b0383166000908152600e602052604090205460ff16155b610bdf5760405162461bcd60e51b815260206004820152601f60248201527f626c61636b6c6973746564207472616e73616374696f6e20626c6f636b656400604482015260640161068a565b610bea843384611aaf565b6000610bf583611b29565b6001600160a01b0386166000908152600d602052604090205490915060ff1680610c3757506001600160a01b0384166000908152600d602052604090205460ff165b80610c515750336000908152600d602052604090205460ff165b15610c5a575060005b6000610c66828561229e565b90508115610c8657600754610c869087906001600160a01b031684611b97565b610c91868683611b97565b60019250505060016006559392505050565b60003361079e818585610cb683836117f8565b610cc0919061228b565b61198a565b610ccd611d65565b6001600160a01b038216610d235760405162461bcd60e51b815260206004820152601f60248201527f474241523a20627579657220697320746865207a65726f206164647265737300604482015260640161068a565b60008111610d6b5760405162461bcd60e51b81526020600482015260156024820152740474241523a2067626172416d6f756e74206973203605c1b604482015260640161068a565b610d758282611dbf565b816001600160a01b03167f49996c4dc4a427a14574025b42307c27360eadeeebebd8d610883219d3d3d1cd82604051610db091815260200190565b60405180910390a25050565b6000610dc6611d65565b600260065403610de85760405162461bcd60e51b815260040161068a906122b1565b600260065581610e0a5760405162461bcd60e51b815260040161068a906122e8565b8160116000828254610e1c919061228b565b90915550610e2c90508383611dbf565b5060018060065592915050565b3360009081526010602052604090205460ff16610e685760405162461bcd60e51b815260040161068a90612211565b6001600160a01b038216610ecd5760405162461bcd60e51b815260206004820152602660248201527f4572726f723a2066726f6d2063616e6e6f7420626520746865206e756c6c206160448201526564647265737360d01b606482015260840161068a565b60008111610eed5760405162461bcd60e51b815260040161068a9061236f565b600a8054604080516080810182526001600160a01b03868116808352602083018781526000948401858152606085018681526001880189559790955292517fc65a7bb8d6351c1cf70c95a316cc6a92839c986682d98bc35f958f4883f9d2a86004870290810180546001600160a01b031916929094169190911790925591517fc65a7bb8d6351c1cf70c95a316cc6a92839c986682d98bc35f958f4883f9d2a982015591517fc65a7bb8d6351c1cf70c95a316cc6a92839c986682d98bc35f958f4883f9d2aa83015592517fc65a7bb8d6351c1cf70c95a316cc6a92839c986682d98bc35f958f4883f9d2ab909101805460ff19169115159190911790559081336001600160a01b03167f6e205faae21a948d7e7291ced6a73140340ba2492e0bb7ec6c11a6162fc7d1868560405161102891815260200190565b60405180910390a4505050565b61103d611d65565b6110476000611e9e565b565b600b818154811061105957600080fd5b6000918252602090912001546001600160a01b0316905081565b60606004805461070d906121dd565b61108a611d65565b6001600160a01b0381166110b05760405162461bcd60e51b815260040161068a9061232b565b6001600160a01b03166000908152600e60205260409020805460ff19166001179055565b6110dc611d65565b6002600654036110fe5760405162461bcd60e51b815260040161068a906122b1565b6002600655806111205760405162461bcd60e51b815260040161068a9061236f565b8060116000828254611132919061229e565b9091555061114290508282611ef0565b816001600160a01b03167f696de425f79f4a40bc6d2122ca50507f0efbeabbff86a84871b7196ab8ea8df78260405161117d91815260200190565b60405180910390a250506001600655565b600a818154811061119e57600080fd5b600091825260209091206004909102018054600182015460028301546003909301546001600160a01b039092169350919060ff1684565b600033816111e382866117f8565b9050838110156112435760405162461bcd60e51b815260206004820152602560248201527f45524332303a2064656372656173656420616c6c6f77616e63652062656c6f77604482015264207a65726f60d81b606482015260840161068a565b611250828686840361198a565b506001949350505050565b3360009081526010602052604090205460ff1661128a5760405162461bcd60e51b815260040161068a90612211565b600a54819081106112ad5760405162461bcd60e51b815260040161068a90612197565b81600a81815481106112c1576112c16121c7565b600091825260209091206003600490920201015460ff16156112f55760405162461bcd60e51b815260040161068a9061223e565b6000600a848154811061130a5761130a6121c7565b90600052602060002090600402019050600c54816002015410156113705760405162461bcd60e51b815260206004820152601860248201527f6e6f7420656e6f75676820636f6e6669726d6174696f6e730000000000000000604482015260640161068a565b600381018054600160ff19918216811790925582546001600160a01b039081166000908152600e60205260409020805490921683179091558254918301546113bb9290911690611ef0565b80546001820154604080519182525133926001600160a01b0316917f3bcab83b5f0fec3820292a28108ad177984b8ad799f6b1430d23f43958618f13919081900360200190a350505050565b600060026006540361142b5760405162461bcd60e51b815260040161068a906122b1565b60026006558161144d5760405162461bcd60e51b815260040161068a906122e8565b6001600160a01b0383166114735760405162461bcd60e51b815260040161068a9061232b565b336000908152600e602052604090205460ff161580156114ac57506001600160a01b0383166000908152600e602052604090205460ff16155b6114f85760405162461bcd60e51b815260206004820152601f60248201527f626c61636b6c6973746564207472616e73616374696f6e20626c6f636b656400604482015260640161068a565b600061150383611b29565b336000908152600d602052604090205490915060ff168061153c57506001600160a01b0384166000908152600d602052604090205460ff165b15611545575060005b6000611551828561229e565b9050811561156f5761156f336007546001600160a01b031684611b97565b61157a338683611b97565b600192505050600160065592915050565b611593611d65565b6001600160a01b0381166115b95760405162461bcd60e51b815260040161068a9061232b565b600880546001600160a01b0319166001600160a01b0392909216919091179055565b6115e3611d65565b6001600160a01b0381166116095760405162461bcd60e51b815260040161068a9061232b565b6001600160a01b03166000908152600d60205260409020805460ff19166001179055565b611635611d65565b6001600160a01b03811661165b5760405162461bcd60e51b815260040161068a9061232b565b600780546001600160a01b0319166001600160a01b0392909216919091179055565b611685611d65565b6001600160a01b0382166116db5760405162461bcd60e51b815260206004820152601f60248201527f474241523a20627579657220697320746865207a65726f206164647265737300604482015260640161068a565b600081116117235760405162461bcd60e51b81526020600482015260156024820152740474241523a2067626172416d6f756e74206973203605c1b604482015260640161068a565b61172d3082611dbf565b6009546117459030906001600160a01b03168361198a565b60095460405163d522e0bf60e01b81526001600160a01b038481166004830152602482018490529091169063d522e0bf906044016020604051808303816000875af1158015611798573d6000803e3d6000fd5b505050506040513d601f19601f820116820180604052508101906117bc91906123b6565b50816001600160a01b03167f961eeda174afd4029f1991bfcedaa367b3fd9ca53dc2b47eaa0de23afc46e8d682604051610db091815260200190565b6001600160a01b03918216600090815260016020908152604080832093909416825291909152205490565b61182b611d65565b6001600160a01b0381166118515760405162461bcd60e51b815260040161068a9061232b565b6001600160a01b03166000908152600e60205260409020805460ff19169055565b61187a611d65565b6001600160a01b0381166118a05760405162461bcd60e51b815260040161068a9061232b565b6001600160a01b03166000908152600d60205260409020805460ff19169055565b6118c9611d65565b6001600160a01b03811661192e5760405162461bcd60e51b815260206004820152602660248201527f4f776e61626c653a206e6577206f776e657220697320746865207a65726f206160448201526564647265737360d01b606482015260840161068a565b61193781611e9e565b50565b611942611d65565b6001600160a01b0381166119685760405162461bcd60e51b815260040161068a9061232b565b600980546001600160a01b0319166001600160a01b0392909216919091179055565b6001600160a01b0383166119ec5760405162461bcd60e51b8152602060048201526024808201527f45524332303a20617070726f76652066726f6d20746865207a65726f206164646044820152637265737360e01b606482015260840161068a565b6001600160a01b038216611a4d5760405162461bcd60e51b815260206004820152602260248201527f45524332303a20617070726f766520746f20746865207a65726f206164647265604482015261737360f01b606482015260840161068a565b6001600160a01b0383811660008181526001602090815260408083209487168084529482529182902085905590518481527f8c5be1e5ebec7d5bd14f71427d1e84f3dd0314c0f7b2291e5b200ac8c7c3b92591015b60405180910390a3505050565b6000611abb84846117f8565b90506000198114611b235781811015611b165760405162461bcd60e51b815260206004820152601d60248201527f45524332303a20696e73756666696369656e7420616c6c6f77616e6365000000604482015260640161068a565b611b23848484840361198a565b50505050565b600854604051633f3b917d60e21b8152600481018390526000916001600160a01b03169063fcee45f490602401602060405180830381865afa158015611b73573d6000803e3d6000fd5b505050506040513d601f19601f820116820180604052508101906107a491906123d8565b6001600160a01b038316611bfb5760405162461bcd60e51b815260206004820152602560248201527f45524332303a207472616e736665722066726f6d20746865207a65726f206164604482015264647265737360d81b606482015260840161068a565b6001600160a01b038216611c5d5760405162461bcd60e51b815260206004820152602360248201527f45524332303a207472616e7366657220746f20746865207a65726f206164647260448201526265737360e81b606482015260840161068a565b6001600160a01b03831660009081526020819052604090205481811015611cd55760405162461bcd60e51b815260206004820152602660248201527f45524332303a207472616e7366657220616d6f756e7420657863656564732062604482015265616c616e636560d01b606482015260840161068a565b6001600160a01b03808516600090815260208190526040808220858503905591851681529081208054849290611d0c90849061228b565b92505081905550826001600160a01b0316846001600160a01b03167fddf252ad1be2c89b69c2b068fc378daa952ba7f163c4a11628f55a4df523b3ef84604051611d5891815260200190565b60405180910390a3611b23565b6005546001600160a01b031633146110475760405162461bcd60e51b815260206004820181905260248201527f4f776e61626c653a2063616c6c6572206973206e6f7420746865206f776e6572604482015260640161068a565b6001600160a01b038216611e155760405162461bcd60e51b815260206004820152601f60248201527f45524332303a206d696e7420746f20746865207a65726f206164647265737300604482015260640161068a565b8060026000828254611e27919061228b565b90915550506001600160a01b03821660009081526020819052604081208054839290611e5490849061228b565b90915550506040518181526001600160a01b038316906000907fddf252ad1be2c89b69c2b068fc378daa952ba7f163c4a11628f55a4df523b3ef9060200160405180910390a35050565b600580546001600160a01b038381166001600160a01b0319831681179093556040519116919082907f8be0079c531659141344cd1fd0a4f28419497f9722a3daafe3b4186f6b6457e090600090a35050565b6001600160a01b038216611f505760405162461bcd60e51b815260206004820152602160248201527f45524332303a206275726e2066726f6d20746865207a65726f206164647265736044820152607360f81b606482015260840161068a565b6001600160a01b03821660009081526020819052604090205481811015611fc45760405162461bcd60e51b815260206004820152602260248201527f45524332303a206275726e20616d6f756e7420657863656564732062616c616e604482015261636560f01b606482015260840161068a565b6001600160a01b0383166000908152602081905260408120838303905560028054849290611ff390849061229e565b90915550506040518281526000906001600160a01b038516907fddf252ad1be2c89b69c2b068fc378daa952ba7f163c4a11628f55a4df523b3ef90602001611aa2565b60006020828403121561204857600080fd5b5035919050565b600060208083528351808285015260005b8181101561207c57858101830151858201604001528201612060565b506000604082860101526040601f19601f8301168501019250505092915050565b80356001600160a01b03811681146120b457600080fd5b919050565b600080604083850312156120cc57600080fd5b6120d58361209d565b946020939093013593505050565b6000602082840312156120f557600080fd5b6120fe8261209d565b9392505050565b60008060006060848603121561211a57600080fd5b6121238461209d565b92506121316020850161209d565b9150604084013590509250925092565b6000806040838503121561215457600080fd5b61215d8361209d565b915061216b6020840161209d565b90509250929050565b6000806040838503121561218757600080fd5b8235915061216b6020840161209d565b6020808252601690820152751c995c5d595cdd08191bd95cc81b9bdd08195e1a5cdd60521b604082015260600190565b634e487b7160e01b600052603260045260246000fd5b600181811c908216806121f157607f821691505b6020821081036106f857634e487b7160e01b600052602260045260246000fd5b6020808252601390820152721b9bdd081c995d1c9a595d985b0819dd585c99606a1b604082015260600190565b60208082526018908201527f7265717565737420616c72656164792065786563757465640000000000000000604082015260600190565b634e487b7160e01b600052601160045260246000fd5b808201808211156107a4576107a4612275565b818103818111156107a4576107a4612275565b6020808252601f908201527f5265656e7472616e637947756172643a207265656e7472616e742063616c6c00604082015260600190565b60208082526023908201527f4572726f723a2076616c7565206d75737420626520677265617465722074686160408201526206e20360ec1b606082015260800190565b60208082526024908201527f4572726f723a20746f2063616e6e6f7420626520746865206e756c6c206164646040820152637265737360e01b606082015260800190565b60208082526027908201527f4572726f723a20616d6f756e74206d7573742062652067726561746572207468604082015266616e207a65726f60c81b606082015260800190565b6000602082840312156123c857600080fd5b815180151581146120fe57600080fd5b6000602082840312156123ea57600080fd5b505191905056fea264697066735822122002aee2730ea9894489672913efde8b7998112e7a92d81ac02689b716911bcd5364736f6c634300081000336e756d4f66436f6e6669726d6174696f6e735265717569726564206d75737420",
    "linkReferences": {}
  },
  "methodIdentifiers": {
    "FEE_DISTRIBUTOR()": "6910dcce",
    "FEE_PROVIDER()": "98aa5d6a",
    "STAKE_VAULT()": "f8281486",
    "addBlacklist(address)": "9cfe42da",
    "addFeeExclusion(address)": "c9bf8e46",
    "allowance(address,address)": "dd62ed3e",
    "approve(address,uint256)": "095ea7b3",
    "balanceOf(address)": "70a08231",
    "blacklist(address)": "f9f92be4",
    "burn(address,uint256)": "9dc29fac",
    "confirmRetrievalRequest(uint256)": "19164616",
    "createRetrievalRequest(address,uint256)": "5a9537ef",
    "decimals()": "313ce567",
    "decreaseAllowance(address,uint256)": "a457c2d7",
    "excludedFromFee(address)": "85ecafd7",
    "executeRetrievalRequest(uint256)": "a745ecca",
    "getRetrievalRequest(uint256)": "003fad85",
    "getRetrievalRequestCount()": "0178649f",
    "getRetrievalRetrievalGuardsCount()": "ad444e00",
    "increaseAllowance(address,uint256)": "39509351",
    "isRetrievalGuard(address)": "12648c0f",
    "mint(address,uint256)": "40c10f19",
    "name()": "06fdde03",
    "numConfirmationsRequired()": "d0549b85",
    "owner()": "8da5cb5b",
    "removeBlacklist(address)": "eb91e651",
    "removeFeeExclusion(address)": "ec5d35af",
    "renounceOwnership()": "715018a6",
    "retrievalGuards(uint256)": "7595fc0d",
    "retrievalRequestConfirmed(uint256,address)": "f869664f",
    "retrievalRequests(uint256)": "a1ce20f7",
    "revokeConfirmation(uint256)": "20ea8d86",
    "setFeeDistributor(address)": "ccfc2e8d",
    "setFeeProvider(address)": "c64bdf5a",
    "setStakeVault(address)": "f36ba4d8",
    "symbol()": "95d89b41",
    "totalSupply()": "18160ddd",
    "transfer(address,uint256)": "a9059cbb",
    "transferFrom(address,address,uint256)": "23b872dd",
    "transferOwnership(address)": "f2fde38b",
    "transferTokenToBuyer(address,uint256)": "3bc78710",
    "transferTokenToStakeVault(address,uint256)": "d6dbc467"
  },
  "id": 0
}