{
  "abi": [
    {
      "inputs": [
        {
          "internalType": "address",
          "name": "gcoinAddress",
          "type": "address"
        },
        {
          "internalType": "address",
          "name": "gbarAddress",
          "type": "address"
        }
      ],
      "stateMutability": "nonpayable",
      "type": "constructor"
    },
    {
      "anonymous": false,
      "inputs": [
        {
          "indexed": true,
          "internalType": "address",
          "name": "previousOwner",
          "type": "address"
        },
        {
          "indexed": true,
          "internalType": "address",
          "name": "newOwner",
          "type": "address"
        }
      ],
      "name": "OwnershipTransferred",
      "type": "event"
    },
    {
      "anonymous": false,
      "inputs": [
        {
          "indexed": false,
          "internalType": "uint256",
          "name": "reward",
          "type": "uint256"
        }
      ],
      "name": "RewardAdded",
      "type": "event"
    },
    {
      "anonymous": false,
      "inputs": [
        {
          "indexed": true,
          "internalType": "address",
          "name": "user",
          "type": "address"
        },
        {
          "indexed": false,
          "internalType": "uint256",
          "name": "reward",
          "type": "uint256"
        }
      ],
      "name": "RewardPaid",
      "type": "event"
    },
    {
      "anonymous": false,
      "inputs": [
        {
          "indexed": false,
          "internalType": "uint256",
          "name": "newDuration",
          "type": "uint256"
        }
      ],
      "name": "RewardsDurationUpdated",
      "type": "event"
    },
    {
      "anonymous": false,
      "inputs": [
        {
          "indexed": true,
          "internalType": "address",
          "name": "user",
          "type": "address"
        },
        {
          "indexed": false,
          "internalType": "uint256",
          "name": "amount",
          "type": "uint256"
        }
      ],
      "name": "StakedFromMint",
      "type": "event"
    },
    {
      "anonymous": false,
      "inputs": [
        {
          "indexed": true,
          "internalType": "address",
          "name": "user",
          "type": "address"
        },
        {
          "indexed": false,
          "internalType": "uint256",
          "name": "amount",
          "type": "uint256"
        }
      ],
      "name": "UnStaked",
      "type": "event"
    },
    {
      "inputs": [],
      "name": "FEE_DISTRIBUTOR",
      "outputs": [
        {
          "internalType": "address",
          "name": "",
          "type": "address"
        }
      ],
      "stateMutability": "view",
      "type": "function"
    },
    {
      "inputs": [],
      "name": "GCOIN",
      "outputs": [
        {
          "internalType": "contract IERC20",
          "name": "",
          "type": "address"
        }
      ],
      "stateMutability": "view",
      "type": "function"
    },
    {
      "inputs": [],
      "name": "IGbarToken",
      "outputs": [
        {
          "internalType": "contract IGBAR",
          "name": "",
          "type": "address"
        }
      ],
      "stateMutability": "view",
      "type": "function"
    },
    {
      "inputs": [
        {
          "internalType": "address",
          "name": "",
          "type": "address"
        }
      ],
      "name": "Rewards",
      "outputs": [
        {
          "internalType": "uint256",
          "name": "",
          "type": "uint256"
        }
      ],
      "stateMutability": "view",
      "type": "function"
    },
    {
      "inputs": [
        {
          "internalType": "address",
          "name": "",
          "type": "address"
        }
      ],
      "name": "Stakers",
      "outputs": [
        {
          "internalType": "uint256",
          "name": "totalStaked",
          "type": "uint256"
        },
        {
          "internalType": "uint256",
          "name": "rewardCallableDate",
          "type": "uint256"
        }
      ],
      "stateMutability": "view",
      "type": "function"
    },
    {
      "inputs": [
        {
          "internalType": "address",
          "name": "",
          "type": "address"
        }
      ],
      "name": "UserRewardPerTokenPaid",
      "outputs": [
        {
          "internalType": "uint256",
          "name": "",
          "type": "uint256"
        }
      ],
      "stateMutability": "view",
      "type": "function"
    },
    {
      "inputs": [
        {
          "internalType": "address",
          "name": "account",
          "type": "address"
        }
      ],
      "name": "balanceOf",
      "outputs": [
        {
          "internalType": "uint256",
          "name": "",
          "type": "uint256"
        }
      ],
      "stateMutability": "view",
      "type": "function"
    },
    {
      "inputs": [
        {
          "internalType": "address",
          "name": "account",
          "type": "address"
        }
      ],
      "name": "earned",
      "outputs": [
        {
          "internalType": "uint256",
          "name": "",
          "type": "uint256"
        }
      ],
      "stateMutability": "view",
      "type": "function"
    },
    {
      "inputs": [],
      "name": "getRewardForDuration",
      "outputs": [
        {
          "internalType": "uint256",
          "name": "",
          "type": "uint256"
        }
      ],
      "stateMutability": "view",
      "type": "function"
    },
    {
      "inputs": [],
      "name": "lastTimeRewardApplicable",
      "outputs": [
        {
          "internalType": "uint256",
          "name": "",
          "type": "uint256"
        }
      ],
      "stateMutability": "view",
      "type": "function"
    },
    {
      "inputs": [],
      "name": "lastUpdateTime",
      "outputs": [
        {
          "internalType": "uint256",
          "name": "",
          "type": "uint256"
        }
      ],
      "stateMutability": "view",
      "type": "function"
    },
    {
      "inputs": [
        {
          "internalType": "uint256",
          "name": "amount",
          "type": "uint256"
        },
        {
          "internalType": "address",
          "name": "liquidityProvider",
          "type": "address"
        }
      ],
      "name": "mintStake",
      "outputs": [],
      "stateMutability": "nonpayable",
      "type": "function"
    },
    {
      "inputs": [
        {
          "internalType": "uint256",
          "name": "reward",
          "type": "uint256"
        }
      ],
      "name": "notifyRewardAmount",
      "outputs": [],
      "stateMutability": "nonpayable",
      "type": "function"
    },
    {
      "inputs": [],
      "name": "owner",
      "outputs": [
        {
          "internalType": "address",
          "name": "",
          "type": "address"
        }
      ],
      "stateMutability": "view",
      "type": "function"
    },
    {
      "inputs": [],
      "name": "periodFinish",
      "outputs": [
        {
          "internalType": "uint256",
          "name": "",
          "type": "uint256"
        }
      ],
      "stateMutability": "view",
      "type": "function"
    },
    {
      "inputs": [],
      "name": "renounceOwnership",
      "outputs": [],
      "stateMutability": "nonpayable",
      "type": "function"
    },
    {
      "inputs": [],
      "name": "rewardPerToken",
      "outputs": [
        {
          "internalType": "uint256",
          "name": "",
          "type": "uint256"
        }
      ],
      "stateMutability": "view",
      "type": "function"
    },
    {
      "inputs": [],
      "name": "rewardPerTokenStored",
      "outputs": [
        {
          "internalType": "uint256",
          "name": "",
          "type": "uint256"
        }
      ],
      "stateMutability": "view",
      "type": "function"
    },
    {
      "inputs": [],
      "name": "rewardRate",
      "outputs": [
        {
          "internalType": "uint256",
          "name": "",
          "type": "uint256"
        }
      ],
      "stateMutability": "view",
      "type": "function"
    },
    {
      "inputs": [],
      "name": "rewardsDuration",
      "outputs": [
        {
          "internalType": "uint256",
          "name": "",
          "type": "uint256"
        }
      ],
      "stateMutability": "view",
      "type": "function"
    },
    {
      "inputs": [
        {
          "internalType": "address",
          "name": "feeDistributor",
          "type": "address"
        }
      ],
      "name": "setFeeDistributor",
      "outputs": [],
      "stateMutability": "nonpayable",
      "type": "function"
    },
    {
      "inputs": [
        {
          "internalType": "uint256",
          "name": "_rewardsDuration",
          "type": "uint256"
        }
      ],
      "name": "setRewardsDuration",
      "outputs": [],
      "stateMutability": "nonpayable",
      "type": "function"
    },
    {
      "inputs": [
        {
          "internalType": "uint256",
          "name": "lockPeriod",
          "type": "uint256"
        }
      ],
      "name": "setStakingLockPeriod",
      "outputs": [],
      "stateMutability": "nonpayable",
      "type": "function"
    },
    {
      "inputs": [],
      "name": "totalSupply",
      "outputs": [
        {
          "internalType": "uint256",
          "name": "",
          "type": "uint256"
        }
      ],
      "stateMutability": "view",
      "type": "function"
    },
    {
      "inputs": [
        {
          "internalType": "address",
          "name": "newOwner",
          "type": "address"
        }
      ],
      "name": "transferOwnership",
      "outputs": [],
      "stateMutability": "nonpayable",
      "type": "function"
    },
    {
      "inputs": [
        {
          "internalType": "uint256",
          "name": "entryId",
          "type": "uint256"
        }
      ],
      "name": "unStake",
      "outputs": [],
      "stateMutability": "nonpayable",
      "type": "function"
    }
  ],
  "bytecode": {
    "object": "0x608060405262015180600555600060065560006007553480156200002257600080fd5b50604051620016e9380380620016e98339810160408190526200004591620000f3565b620000503362000086565b60018055600380546001600160a01b039384166001600160a01b031991821617909155600480549290931691161790556200012b565b600080546001600160a01b038381166001600160a01b0319831681178455604051919092169283917f8be0079c531659141344cd1fd0a4f28419497f9722a3daafe3b4186f6b6457e09190a35050565b80516001600160a01b0381168114620000ee57600080fd5b919050565b600080604083850312156200010757600080fd5b6200011283620000d6565b91506200012260208401620000d6565b90509250929050565b6115ae806200013b6000396000f3fe608060405234801561001057600080fd5b506004361061018d5760003560e01c806380faa57d116100de578063ccfc2e8d11610097578063ebe2b12b11610071578063ebe2b12b14610330578063ede85eb714610339578063f06753d914610375578063f2fde38b1461038857600080fd5b8063ccfc2e8d1461030c578063cd3daf9d1461031f578063df136d651461032757600080fd5b806380faa57d146102b157806383638c12146102b95780638da5cb5b146102cc578063b4811be6146102dd578063c8f33c91146102f0578063cc1a378f146102f957600080fd5b8063386a95251161014b5780636910dcce116101255780636910dcce1461024c57806370a0823114610277578063715018a6146102a05780637b0a47ee146102a857600080fd5b8063386a95251461021d5780633c6b16ab146102265780635d3eea911461023957600080fd5b80628cc2621461019257806318160ddd146101b85780631c1f78eb146101c05780631f45f501146101c8578063237634c8146101dd57806327f5d558146101fd575b600080fd5b6101a56101a0366004611429565b61039b565b6040519081526020015b60405180910390f35b600b546101a5565b6101a561042a565b6101db6101d636600461144b565b610441565b005b6101a56101eb366004611429565b60106020526000908152604090205481565b6101a561020b366004611429565b600f6020526000908152604090205481565b6101a560055481565b6101db61023436600461144b565b61044e565b6101db61024736600461144b565b6106cd565b60025461025f906001600160a01b031681565b6040516001600160a01b0390911681526020016101af565b6101a5610285366004611429565b6001600160a01b03166000908152600d602052604090205490565b6101db610a83565b6101a560065481565b6101a5610a97565b60035461025f906001600160a01b031681565b6000546001600160a01b031661025f565b6101db6102eb366004611464565b610aae565b6101a560085481565b6101db61030736600461144b565b610f5b565b6101db61031a366004611429565b61103b565b6101a56110ce565b6101a560095481565b6101a560075481565b610360610347366004611429565b600e602052600090815260409020805460039091015482565b604080519283526020830191909152016101af565b60045461025f906001600160a01b031681565b6101db610396366004611429565b611135565b6001600160a01b0381166000908152601060205260408120546103c2620f424060016114a6565b6001600160a01b0384166000908152600f60205260409020546103e36110ce565b6103ed91906114c5565b6001600160a01b0385166000908152600d602052604090205461041091906114a6565b61041a91906114d8565b61042491906114fa565b92915050565b600060055460065461043c91906114a6565b905090565b6104496111ae565b600c55565b6002546001600160a01b0316336001600160a01b0316148061047a57506000546001600160a01b031633145b6104f15760405162461bcd60e51b815260206004820152603a60248201527f4572726f723a204f6e6c79204665654469737472696275746f7220636f6e747260448201527f6163742063616e2063616c6c20746869732066756e6374696f6e00000000000060648201526084015b60405180910390fd5b60006104fb6110ce565b600955610506610a97565b6008556001600160a01b0381161561054d576105218161039b565b6001600160a01b038216600090815260106020908152604080832093909355600954600f909152919020555b600754421061056b5760055461056390836114d8565b6006556105ad565b60004260075461057b91906114c5565b905060006006548261058d91906114a6565b60055490915061059d82866114fa565b6105a791906114d8565b60065550505b600480546040516370a0823160e01b815230928101929092526000916001600160a01b03909116906370a0823190602401602060405180830381865afa1580156105fb573d6000803e3d6000fd5b505050506040513d601f19601f8201168201806040525081019061061f919061150d565b90506005548161062f91906114d8565b60065411156106805760405162461bcd60e51b815260206004820152601860248201527f50726f76696465642072657761726420746f6f2068696768000000000000000060448201526064016104e8565b426008819055600554610692916114fa565b6007556040518381527fde88a922e0d3b88b24e9623efeb464919c6bf9f66857a65e2bfcf2ce87a9433d9060200160405180910390a1505050565b60026001540361071f5760405162461bcd60e51b815260206004820152601f60248201527f5265656e7472616e637947756172643a207265656e7472616e742063616c6c0060448201526064016104e8565b60026001553361072d6110ce565b600955610738610a97565b6008556001600160a01b0381161561077f576107538161039b565b6001600160a01b038216600090815260106020908152604080832093909355600954600f909152919020555b6107893383611208565b336000908152600e602090815260408083208584526002019091529020546107e85760405162461bcd60e51b81526020600482015260126024820152714572726f723a20456d70747920656e74727960701b60448201526064016104e8565b336000818152600e6020818152604080842087855260028101835290842054949093525254101561086b5760405162461bcd60e51b815260206004820152602760248201527f4572726f723a2043616e6e6f74207769746864726177206d6f7265207468616e604482015266081cdd185ad95960ca1b60648201526084016104e8565b336000908152600e60209081526040808320858452600290810190925290912001544210156108dc5760405162461bcd60e51b815260206004820152601960248201527f4572726f723a20456e747279206e6f7420756e6c6f636b65640000000000000060448201526064016104e8565b336000908152600e602090815260408083208584526002019091528120805490829055600b8054919283926109129084906114c5565b9091555050336000908152600d6020526040812080548392906109369084906114c5565b9091555050336000908152600e60205260408120805483929061095a9084906114c5565b9091555050336000908152600d60205260409020541580156109895750336000908152600e6020526040902054155b156109a457600a805490600061099e83611526565b91905055505b6003546001600160a01b031663a9059cbb336040516001600160e01b031960e084901b1681526001600160a01b039091166004820152602481018490526044016020604051808303816000875af1158015610a03573d6000803e3d6000fd5b505050506040513d601f19601f82011682018060405250810190610a27919061153d565b503360009081526010602052604090205415610a4557610a45611285565b60405181815233907f79d3df6837cc49ff0e09fd3258e6e45594e0703445bb06825e9d75156eaee8f09060200160405180910390a250506001805550565b610a8b6111ae565b610a9560006113bd565b565b60006007544210610aa9575060075490565b504290565b600260015403610b005760405162461bcd60e51b815260206004820152601f60248201527f5265656e7472616e637947756172643a207265656e7472616e742063616c6c0060448201526064016104e8565b60026001556003546001600160a01b0316336001600160a01b031614610b835760405162461bcd60e51b815260206004820152603260248201527f4572726f723a204f6e6c792047434f494e20636f6e74726163742063616e206360448201527130b636103a3434b990333ab731ba34b7b71760711b60648201526084016104e8565b80610b8c6110ce565b600955610b97610a97565b6008556001600160a01b03811615610bde57610bb28161039b565b6001600160a01b038216600090815260106020908152604080832093909355600954600f909152919020555b60008311610c2e5760405162461bcd60e51b815260206004820152601960248201527f4572726f723a20416d6f756e74206d757374206265203e20300000000000000060448201526064016104e8565b600354604051636eb1769f60e11b81526001600160a01b0390911660048201819052306024830152849163dd62ed3e90604401602060405180830381865afa158015610c7e573d6000803e3d6000fd5b505050506040513d601f19601f82011682018060405250810190610ca2919061150d565b1015610d075760405162461bcd60e51b815260206004820152602e60248201527f4572726f723a205472616e73666572206f6620746f6b656e20686173206e6f7460448201526d081899595b88185c1c1c9bdd995960921b60648201526084016104e8565b6001600160a01b0382166000908152600d60205260408120549003610d3c57600a8054906000610d368361155f565b91905055505b6001600160a01b0382166000908152600e60205260408120600190810154610d63916114fa565b6001600160a01b0384166000908152600e6020526040812080549293508692909190610d909084906114fa565b90915550506001600160a01b0383166000908152600e6020908152604080832060018082018054918201815585528385200185905584845260020190915281208054869290610de09084906114fa565b90915550506001600160a01b0383166000908152600e602090815260408083208484526002019091529020426001909101819055600c54610e20916114fa565b6001600160a01b0384166000908152600e60209081526040808320858452600290810190925282200191909155600b8054869290610e5f9084906114fa565b90915550506001600160a01b0383166000908152600d602052604081208054869290610e8c9084906114fa565b90915550506003546040516323b872dd60e01b81526001600160a01b039091166004820181905230602483015260448201869052906323b872dd906064016020604051808303816000875af1158015610ee9573d6000803e3d6000fd5b505050506040513d601f19601f82011682018060405250810190610f0d919061153d565b50826001600160a01b03167ff286512bc20439f01d4b20d9420b6865ed5f2e5fe4bf3f17aa5b4d900a1db76d85604051610f4991815260200190565b60405180910390a25050600180555050565b610f636111ae565b60075442116110005760405162461bcd60e51b815260206004820152605860248201527f50726576696f7573207265776172647320706572696f64206d7573742062652060448201527f636f6d706c657465206265666f7265206368616e67696e67207468652064757260648201527f6174696f6e20666f7220746865206e657720706572696f640000000000000000608482015260a4016104e8565b60058190556040518181527ffb46ca5a5e06d4540d6387b930a7c978bce0db5f449ec6b3f5d07c6e1d44f2d39060200160405180910390a150565b6110436111ae565b6001600160a01b0381166110ac5760405162461bcd60e51b815260206004820152602a60248201527f4572726f723a20466565204469737472696275746f722063616e6e6f742062656044820152692030206164647265737360b01b60648201526084016104e8565b600280546001600160a01b0319166001600160a01b0392909216919091179055565b6000600b546000036110e1575060095490565b600b546110f2620f424060016114a6565b600654600854611100610a97565b61110a91906114c5565b61111491906114a6565b61111e91906114a6565b61112891906114d8565b60095461043c91906114fa565b61113d6111ae565b6001600160a01b0381166111a25760405162461bcd60e51b815260206004820152602660248201527f4f776e61626c653a206e6577206f776e657220697320746865207a65726f206160448201526564647265737360d01b60648201526084016104e8565b6111ab816113bd565b50565b6000546001600160a01b03163314610a955760405162461bcd60e51b815260206004820181905260248201527f4f776e61626c653a2063616c6c6572206973206e6f7420746865206f776e657260448201526064016104e8565b6001600160a01b0382166000908152600e602090815260408083208484526002019091529020600101544210156112815760405162461bcd60e51b815260206004820152601b60248201527f4572726f723a20456e74727920646f6573206e6f74206578697374000000000060448201526064016104e8565b5050565b3361128e6110ce565b600955611299610a97565b6008556001600160a01b038116156112e0576112b48161039b565b6001600160a01b038216600090815260106020908152604080832093909355600954600f909152919020555b3360009081526010602052604090205480156112815733600081815260106020908152604080832083905560048054825163a9059cbb60e01b8152918201959095526024810186905290516001600160a01b039094169363a9059cbb936044808401949383900301908290875af115801561135f573d6000803e3d6000fd5b505050506040513d601f19601f82011682018060405250810190611383919061153d565b5060405181815233907fe2403640ba68fed3a2f88b7557551d1993f84b99bb10ff833f0cf8db0c5e04869060200160405180910390a25050565b600080546001600160a01b038381166001600160a01b0319831681178455604051919092169283917f8be0079c531659141344cd1fd0a4f28419497f9722a3daafe3b4186f6b6457e09190a35050565b80356001600160a01b038116811461142457600080fd5b919050565b60006020828403121561143b57600080fd5b6114448261140d565b9392505050565b60006020828403121561145d57600080fd5b5035919050565b6000806040838503121561147757600080fd5b823591506114876020840161140d565b90509250929050565b634e487b7160e01b600052601160045260246000fd5b60008160001904831182151516156114c0576114c0611490565b500290565b8181038181111561042457610424611490565b6000826114f557634e487b7160e01b600052601260045260246000fd5b500490565b8082018082111561042457610424611490565b60006020828403121561151f57600080fd5b5051919050565b60008161153557611535611490565b506000190190565b60006020828403121561154f57600080fd5b8151801515811461144457600080fd5b60006001820161157157611571611490565b506001019056fea2646970667358221220572b7dc33db38c6afacbc7a83085d44dda0951e900d19cf35694ef5c7f65116564736f6c63430008100033",
    "linkReferences": {}
  },
  "methodIdentifiers": {
    "FEE_DISTRIBUTOR()": "6910dcce",
    "GCOIN()": "83638c12",
    "IGbarToken()": "f06753d9",
    "Rewards(address)": "237634c8",
    "Stakers(address)": "ede85eb7",
    "UserRewardPerTokenPaid(address)": "27f5d558",
    "balanceOf(address)": "70a08231",
    "earned(address)": "008cc262",
    "getRewardForDuration()": "1c1f78eb",
    "lastTimeRewardApplicable()": "80faa57d",
    "lastUpdateTime()": "c8f33c91",
    "mintStake(uint256,address)": "b4811be6",
    "notifyRewardAmount(uint256)": "3c6b16ab",
    "owner()": "8da5cb5b",
    "periodFinish()": "ebe2b12b",
    "renounceOwnership()": "715018a6",
    "rewardPerToken()": "cd3daf9d",
    "rewardPerTokenStored()": "df136d65",
    "rewardRate()": "7b0a47ee",
    "rewardsDuration()": "386a9525",
    "setFeeDistributor(address)": "ccfc2e8d",
    "setRewardsDuration(uint256)": "cc1a378f",
    "setStakingLockPeriod(uint256)": "1f45f501",
    "totalSupply()": "18160ddd",
    "transferOwnership(address)": "f2fde38b",
    "unStake(uint256)": "5d3eea91"
  },
  "id": 17
}