{
  "abi": [
    {
      "inputs": [
        {
          "internalType": "address",
          "name": "token",
          "type": "address"
        }
      ],
      "stateMutability": "nonpayable",
      "type": "constructor"
    },
    {
      "anonymous": false,
      "inputs": [
        {
          "indexed": true,
          "internalType": "address",
          "name": "previousOwner",
          "type": "address"
        },
        {
          "indexed": true,
          "internalType": "address",
          "name": "newOwner",
          "type": "address"
        }
      ],
      "name": "OwnershipTransferred",
      "type": "event"
    },
    {
      "anonymous": false,
      "inputs": [
        {
          "indexed": false,
          "internalType": "address",
          "name": "reciever",
          "type": "address"
        },
        {
          "indexed": false,
          "internalType": "uint256",
          "name": "amount",
          "type": "uint256"
        }
      ],
      "name": "RewardWithdraw",
      "type": "event"
    },
    {
      "inputs": [],
      "name": "ReleaseDate",
      "outputs": [
        {
          "internalType": "uint256",
          "name": "",
          "type": "uint256"
        }
      ],
      "stateMutability": "view",
      "type": "function"
    },
    {
      "inputs": [
        {
          "internalType": "address",
          "name": "",
          "type": "address"
        }
      ],
      "name": "RewardAmountClaimed",
      "outputs": [
        {
          "internalType": "uint256",
          "name": "",
          "type": "uint256"
        }
      ],
      "stateMutability": "view",
      "type": "function"
    },
    {
      "inputs": [],
      "name": "RewardToken",
      "outputs": [
        {
          "internalType": "contract IERC20",
          "name": "",
          "type": "address"
        }
      ],
      "stateMutability": "view",
      "type": "function"
    },
    {
      "inputs": [],
      "name": "merkleRoot",
      "outputs": [
        {
          "internalType": "bytes32",
          "name": "",
          "type": "bytes32"
        }
      ],
      "stateMutability": "view",
      "type": "function"
    },
    {
      "inputs": [],
      "name": "owner",
      "outputs": [
        {
          "internalType": "address",
          "name": "",
          "type": "address"
        }
      ],
      "stateMutability": "view",
      "type": "function"
    },
    {
      "inputs": [],
      "name": "renounceOwnership",
      "outputs": [],
      "stateMutability": "nonpayable",
      "type": "function"
    },
    {
      "inputs": [
        {
          "internalType": "bytes32",
          "name": "root",
          "type": "bytes32"
        }
      ],
      "name": "setMerkleRoot",
      "outputs": [],
      "stateMutability": "nonpayable",
      "type": "function"
    },
    {
      "inputs": [
        {
          "internalType": "uint256",
          "name": "releaseDate",
          "type": "uint256"
        }
      ],
      "name": "setReleaseDate",
      "outputs": [],
      "stateMutability": "nonpayable",
      "type": "function"
    },
    {
      "inputs": [
        {
          "internalType": "address",
          "name": "newOwner",
          "type": "address"
        }
      ],
      "name": "transferOwnership",
      "outputs": [],
      "stateMutability": "nonpayable",
      "type": "function"
    },
    {
      "inputs": [
        {
          "internalType": "uint256",
          "name": "amount",
          "type": "uint256"
        },
        {
          "internalType": "bytes32[]",
          "name": "_merkleProof",
          "type": "bytes32[]"
        }
      ],
      "name": "withdraw",
      "outputs": [],
      "stateMutability": "nonpayable",
      "type": "function"
    }
  ],
  "bytecode": {
    "object": "0x6080604052600060025534801561001557600080fd5b50604051610ba3380380610ba3833981016040819052610034916100b9565b600160005561004233610067565b600380546001600160a01b0319166001600160a01b03929092169190911790556100e9565b600180546001600160a01b038381166001600160a01b0319831681179093556040519116919082907f8be0079c531659141344cd1fd0a4f28419497f9722a3daafe3b4186f6b6457e090600090a35050565b6000602082840312156100cb57600080fd5b81516001600160a01b03811681146100e257600080fd5b9392505050565b610aab806100f86000396000f3fe608060405234801561001057600080fd5b506004361061009e5760003560e01c80638cf49cad116100665780638cf49cad146101025780638da5cb5b1461010b578063cb4d650314610130578063f1e9f1e514610150578063f2fde38b1461016357600080fd5b80631352faec146100a35780632eb4a7ab146100b857806336317972146100d4578063715018a6146100e75780637cb64759146100ef575b600080fd5b6100b66100b1366004610899565b610176565b005b6100c160025481565b6040519081526020015b60405180910390f35b6100b66100e23660046108b2565b610209565b6100b66106bb565b6100b66100fd366004610899565b6106f1565b6100c160045481565b6001546001600160a01b03165b6040516001600160a01b0390911681526020016100cb565b6100c161013e366004610931565b60056020526000908152604090205481565b600354610118906001600160a01b031681565b6100b6610171366004610931565b610720565b6001546001600160a01b031633146101a95760405162461bcd60e51b81526004016101a090610961565b60405180910390fd5b4281116102045760405162461bcd60e51b8152602060048201526024808201527f52656c6561736520646174652068617320746f20626520696e207468652066756044820152637475726560e01b60648201526084016101a0565b600455565b60026000540361025b5760405162461bcd60e51b815260206004820152601f60248201527f5265656e7472616e637947756172643a207265656e7472616e742063616c6c0060448201526064016101a0565b60026000556003546040516370a0823160e01b815230600482015284916001600160a01b0316906370a0823190602401602060405180830381865afa1580156102a8573d6000803e3d6000fd5b505050506040513d601f19601f820116820180604052508101906102cc9190610996565b10156103125760405162461bcd60e51b8152602060048201526015602482015274139bdd08195b9bdd59da08199d5b991cc81b19599d605a1b60448201526064016101a0565b60025460000361035a5760405162461bcd60e51b81526020600482015260136024820152721b595c9adb19481c9bdbdd081b9bdd081cd95d606a1b60448201526064016101a0565b6040516bffffffffffffffffffffffff193360601b166020820152603481018490526000906054016040516020818303038152906040528051906020012090506103db8383808060200260200160405190810160405280939291908181526020018383602002808284376000920191909152505060025491508490506107bb565b6104195760405162461bcd60e51b815260206004820152600f60248201526e24b731b7b93932b1ba10383937b7b360891b60448201526064016101a0565b3360009081526005602052604090205484116104775760405162461bcd60e51b815260206004820152601c60248201527f546f74616c20616d6f756e7420616c726561647920636c61696d65640000000060448201526064016101a0565b60045415801590610489575042600454105b6104d55760405162461bcd60e51b815260206004820152601c60248201527f52656c6561736520686173206e6f74207374617274656420796574210000000060448201526064016101a0565b6000600454426104e591906109c5565b905060006104f662278d00836109d8565b90506000601282111561050857601291505b81601203610517575085610590565b60005b8281101561058e5780158061052f5750806001145b1561055b5761053f6064896109d8565b61054a90600a6109fa565b6105549083610a11565b915061057e565b6105666064896109d8565b6105719060056109fa565b61057b9083610a11565b91505b61058781610a24565b905061051a565b505b336000908152600560205260409020546105aa90826109c5565b90506000811180156105bc5750868111155b156106ad5733600090815260056020526040812080548392906105e0908490610a11565b90915550506003546001600160a01b031663a9059cbb336040516001600160e01b031960e084901b1681526001600160a01b039091166004820152602481018490526044016020604051808303816000875af1158015610644573d6000803e3d6000fd5b505050506040513d601f19601f820116820180604052508101906106689190610a3d565b507f6553897c25961cd3a105492c25576d0552123ee868aca283e90f3b4224d7d17733604080516001600160a01b039092168252602082018490520160405180910390a15b505060016000555050505050565b6001546001600160a01b031633146106e55760405162461bcd60e51b81526004016101a090610961565b6106ef60006107d1565b565b6001546001600160a01b0316331461071b5760405162461bcd60e51b81526004016101a090610961565b600255565b6001546001600160a01b0316331461074a5760405162461bcd60e51b81526004016101a090610961565b6001600160a01b0381166107af5760405162461bcd60e51b815260206004820152602660248201527f4f776e61626c653a206e6577206f776e657220697320746865207a65726f206160448201526564647265737360d01b60648201526084016101a0565b6107b8816107d1565b50565b6000826107c88584610823565b14949350505050565b600180546001600160a01b038381166001600160a01b0319831681179093556040519116919082907f8be0079c531659141344cd1fd0a4f28419497f9722a3daafe3b4186f6b6457e090600090a35050565b600081815b845181101561088f57600085828151811061084557610845610a5f565b6020026020010151905080831161086b576000838152602082905260409020925061087c565b600081815260208490526040902092505b508061088781610a24565b915050610828565b5090505b92915050565b6000602082840312156108ab57600080fd5b5035919050565b6000806000604084860312156108c757600080fd5b83359250602084013567ffffffffffffffff808211156108e657600080fd5b818601915086601f8301126108fa57600080fd5b81358181111561090957600080fd5b8760208260051b850101111561091e57600080fd5b6020830194508093505050509250925092565b60006020828403121561094357600080fd5b81356001600160a01b038116811461095a57600080fd5b9392505050565b6020808252818101527f4f776e61626c653a2063616c6c6572206973206e6f7420746865206f776e6572604082015260600190565b6000602082840312156109a857600080fd5b5051919050565b634e487b7160e01b600052601160045260246000fd5b81810381811115610893576108936109af565b6000826109f557634e487b7160e01b600052601260045260246000fd5b500490565b8082028115828204841417610893576108936109af565b80820180821115610893576108936109af565b600060018201610a3657610a366109af565b5060010190565b600060208284031215610a4f57600080fd5b8151801515811461095a57600080fd5b634e487b7160e01b600052603260045260246000fdfea264697066735822122030f7c48b400e00931ad17ae0eb183fda9ea6ce551f1578da6353f2f375a0027864736f6c63430008110033",
    "linkReferences": {}
  },
  "methodIdentifiers": {
    "ReleaseDate()": "8cf49cad",
    "RewardAmountClaimed(address)": "cb4d6503",
    "RewardToken()": "f1e9f1e5",
    "merkleRoot()": "2eb4a7ab",
    "owner()": "8da5cb5b",
    "renounceOwnership()": "715018a6",
    "setMerkleRoot(bytes32)": "7cb64759",
    "setReleaseDate(uint256)": "1352faec",
    "transferOwnership(address)": "f2fde38b",
    "withdraw(uint256,bytes32[])": "36317972"
  },
  "id": 7
}