{
  "abi": [
    {
      "inputs": [
        {
          "internalType": "uint256",
          "name": "amount",
          "type": "uint256"
        }
      ],
      "name": "getFee",
      "outputs": [
        {
          "internalType": "uint256",
          "name": "",
          "type": "uint256"
        }
      ],
      "stateMutability": "pure",
      "type": "function"
    }
  ],
  "bytecode": {
    "object": "0x608060405234801561001057600080fd5b50610200806100206000396000f3fe608060405234801561001057600080fd5b506004361061002b5760003560e01c8063fcee45f414610030575b600080fd5b61004361003e366004610147565b610055565b60405190815260200160405180910390f35b60008160000361006757506000919050565b6000821180156100845750610080620f42406064610176565b8211155b156100c057610097620f42406064610176565b826100a6620f42406001610176565b6100b09190610176565b6100ba9190610195565b92915050565b6100ce620f42406064610176565b82111561013f5760006100e5620f42406064610176565b6100f184610960610176565b6100fb9190610195565b610109620f42406001610176565b61011391906101b7565b9050610123620f42406019610176565b8111156100ba57610138620f42406019610176565b9392505050565b506000919050565b60006020828403121561015957600080fd5b5035919050565b634e487b7160e01b600052601160045260246000fd5b600081600019048311821515161561019057610190610160565b500290565b6000826101b257634e487b7160e01b600052601260045260246000fd5b500490565b808201808211156100ba576100ba61016056fea2646970667358221220b7a52711cde41941c4012861723d26d355f8c67491bd7969ee616184b872731264736f6c63430008100033",
    "linkReferences": {}
  },
  "methodIdentifiers": {
    "getFee(uint256)": "fcee45f4"
  },
  "id": 15
}